:020000040800F2
:10000000F0140120D5020008E3020008E502000810
:10001000E7020008E9020008EB0200080000000007
:10002000000000000000000000000000ED020008D9
:10003000EF02000800000000F1020008F3020008CF
:10004000F5020008F5020008F5020008F5020008B4
:10005000F5020008F5020008F5020008F5020008A4
:10006000F5020008F5020008F5020008F502000894
:10007000F5020008F5020008F5020008F502000884
:10008000F5020008F5020008F5020008F502000874
:10009000F5020008F5020008F5020008F502000864
:1000A000F5020008F5020008F5020008F502000854
:1000B000F5020008F5020008F5020008F502000844
:1000C000F5020008F5020008F5020008F502000834
:1000D000F50200089D150008F5020008F502000869
:1000E000F5020008F5020008F5020008F502000814
:1000F000F5020008F5020008F5020008F502000804
:10010000F5020008F5020008F5020008F5020008F3
:10011000F5020008F5020008F5020008F5020008E3
:10012000F5020008F5020008F5020008F5020008D3
:10013000F5020008F5020008F5020008F5020008C3
:10014000F5020008F5020008F5020008F5020008B3
:10015000F5020008F5020008F5020008F5020008A3
:10016000F5020008F5020008F5020008F502000893
:10017000F5020008F5020008F5020008F502000883
:10018000F5020008F502000800F002F800F092F80D
:100190000AA090E8000C82448344AAF10107DA45E2
:1001A00001D100F087F8AFF2090EBAE80F0013F0A2
:1001B000010F18BFFB1A43F001031847BCC700002A
:1001C000DCC70000103A24BF78C878C1FAD85207BB
:1001D00024BF30C830C144BF04680C6070470000C1
:1001E0000023002400250026103A28BF78C1FBD840
:1001F000520728BF30C148BF0B6070476E2900F01E
:10020000AD81702900F0E38266290CF0FF82652938
:100210000CF0FC8267290CF0F98261290CF0F8825D
:1002200003681B0A28BF41F08001692900F05A8148
:10023000642900F05781752900F054816F2900F07E
:100240007182782900F0AF82E92900F00B82E4295D
:1002500000F00882F52900F00582EF2900F06E8297
:10026000F82900F0AE820368DB0928BF41F0800165
:10027000632901F02180732901F02680E32901F030
:100280003180F32901F03680002070471FB50CF053
:100290007FFA01F089F80400002000210CF01CFA1C
:1002A000401C6060002000210CF000FAE0601FBDDF
:1002B00010B510BD01F04AF81146FFF7E7FF0AF04C
:1002C00041FB00F039F803B4FFF7F2FF03BC01F083
:1002D000CFF900000B48016841F4700101600A4841
:1002E0000047FEE7FEE7FEE7FEE7FEE7FEE7FEE784
:1002F000FEE7FEE7FEE7000004480549054A064B15
:100300007047000088ED00E089010008F00401203A
:10031000F0140120F00C0120F00C012070470000C7
:100320000FB4044910B503AA029800F02BF910BCD1
:100330005DF814FB40F6002010B50446AFF30080D2
:100340002046BDE81040FFF7BEBF032A40F23080D0
:1003500010F0030C00F0158011F8013BBCF1020F06
:10036000624498BF11F801CB00F8013B38BF11F887
:10037000013BA2F1040298BF00F801CB38BF00F89E
:10038000013B11F0030300F0F182083AC0F008804D
:1003900051F8043B083A51F804CBA0E80810F5E7FF
:1003A000121D5CBF51F8043B40F8043BAFF30080E2
:1003B000D20724BF11F8013B11F801CB48BF11F857
:1003C000012B24BF00F8013B00F801CB48BF00F827
:1003D000012B70474FF000020429C0F0128010F08A
:1003E000030C00F0F782CCF1040CBCF1020F18BF33
:1003F00000F8012BA8BF20F8022BA1EB0C0100F0A4
:10040000E9BA5FEAC17C24BF00F8012B00F8012B98
:1004100048BF00F8012B704770477047704770471E
:1004200070B5044685690068C10601D5302600E034
:100430002026C00707D070BDD4E90121304690477F
:10044000206A401C20626D1EF6D570BD70B5044652
:1004500085690078C00707D170BDD4E9012120204B
:100460009047206A401C20626D1EF6D570BD096859
:100470004A0501D540B27047C905FCD500B27047A6
:1004800009684A0501D5C0B27047C905FCD580B2DC
:10049000704770B50C460546012A05D028788006BD
:1004A00000D5EA69002302E0012305E05B1C9342CA
:1004B00002D2E05C0028F9D1A869E618C01AA86148
:1004C000286A184428622846FFF7AAFF04E0D5E905
:1004D000012114F8010B9047B442F8D32846FFF7E6
:1004E000B5FF70BD2DE9F04106460024106875295E
:1004F000314616A510D0FFF7BAFF002802DA4042B5
:1005000013A507E031688A0701D512A502E0490763
:1005100004D511A5012401E0FFF7B2FF00210A2252
:1005200006F1240709E0B0FBF2FCB0FBF2F302FB9A
:100530001C00303078541846491C0028F3D123465B
:100540002A463046BDE8F04100F0AEBA0000000097
:100550002D0000002B000000200000001168026840
:10056000006A530501D508700AE0D30501D508805B
:1005700006E0130603D5C217C1E9000200E00860D7
:1005800001207047074B70B50D467B4400F077FEA5
:100590000446284600F0B2FE10B14FF0FF3070BDA7
:1005A000204670BD87A300002DE9FF5F15468A46EF
:1005B0000446DFF8AC80F8440027D8E900103E4636
:1005C000CDE9001010E03AF816106A4602A800F0D3
:1005D00099FE411C07D02178890603D5E2693918B4
:1005E00091420DD80744761C2078800602D5E06938
:1005F000B84205DDAE42E6DB3AF816000028E2D14B
:10060000A069C01BA0612046FFF70AFFD8E90010CF
:10061000CDE90010002017E03AF818106A4602A849
:1006200000F070FEB0F1FF3F81460BD000250DF1C8
:10063000080B05E0D4E901211BF8050090476D1C6B
:100640004D45F7D308F10100B0428046E4DB206A53
:10065000384420622046FFF7F9FEBDE8FF9F000006
:100660005AC200002DE9F0418046D21D22F0070257
:100670000025D2E90002F52915A614D0011E72F159
:10068000000106DA0023D0EB030063EB020211A69F
:1006900008E0D8F800108B0701D50FA602E0490743
:1006A00001D50EA601251146002408F1240704E017
:1006B00000F0B5F930323A55641C50EA0102F7D126
:1006C0002B46324621464046BDE8F04100F0ECB9E9
:1006D000000000002D0000002B00000020000000A2
:1006E00030B4002100F1240408E002F00705D2082C
:1006F000303542EA4372DB086554491C52EA03056F
:10070000F3D10468002310A2250708D504F02004C3
:100710000C4304D0C46901230CA2641EC46130BC24
:1007200000F0C2B910B5044621461068FFF7A8FED4
:1007300002462046BDE810400023D1E7D21D22F03A
:100740000701D1E90023CBE70000000030000000E2
:10075000F0B40D460188090502D5214C7C4402E025
:100760001F4C7C440E34002100F1240608E002F006
:100770000F071209E75D42EA03721B097754491C0F
:1007800052EA0307F3D102780023120704D5702D33
:1007900006D009B1022311342246F0BC00F084B91E
:1007A00001231034F8E770B504460D462146106861
:1007B000FFF766FE024629462046BDE8704000234A
:1007C000C6E7D21D22F00703D3E90023C0E7036880
:1007D000126843F0200303600823C3610023B7E7D6
:1007E000BCC000002DE9F05F894604464FF0000AC6
:1007F000DFF874B1FB44C0F820A02046E1688847C8
:10080000002874D0252806D0D4E901219047206A19
:10081000401C2062F1E700265F462046E1688847D9
:100820002028054607DB312D05D2781910F8200C59
:1008300008B10643F1E7B00701D526F00406C4F875
:100840001CA00027C4F818A02A2D09D028460BF0B8
:1008500026FF38B304EB8708303DC8F8185019E07C
:1008600059F8041B204604EB87029161E168884730
:10087000012F054618D1E069002820DA26F020066D
:100880001DE0D8F8180000EB800005EB4000303880
:10089000C8F818002046E168884705460BF0FFFEBF
:1008A0000028EED1012F0AD02E2D08D12046E16874
:1008B00088477F1C0546022F46F02006C4DBA0694E
:1008C000002803DA404246F00106A061F00701D09B
:1008D00026F010066C2D0BD0682D09D04C2D39D088
:1008E0006A2D35D0742D35D07A2D33D016E038E00E
:1008F000E1682F4620468847B842054609D16C2F4B
:1009000026D04FF48060E1680643204688470546BC
:1009100004E06C2F1AD04FF4807006430DB3A5F19C
:100920004100192802D8203546F400664A46294677
:10093000204626604E46FFF761FC80B101280BD0AF
:10094000F61D26F0070000F1080956E74020E4E70D
:100950008020D8E70020D6E706F104094DE72846B5
:1009600052E7206ABDE8F09F4CC0000010B5203A65
:10097000C0F00B80B1E81850A0E81850B1E818504A
:10098000A0E81850203ABFF4F5AF5FEA027C24BF1C
:10099000B1E81850A0E8185044BF18C918C0BDE805
:1009A00010405FEA827C24BF51F8043B40F8043BCE
:1009B00008BF7047D20728BF31F8023B48BF11F883
:1009C000012B28BF20F8023B48BF00F8012B7047DD
:1009D0004FF0000200B5134694469646203922BFD8
:1009E000A0E80C50A0E80C50B1F12001BFF4F7AF23
:1009F000090728BFA0E80C5048BF0CC05DF804EB05
:100A0000890028BF40F8042B08BF704748BF20F872
:100A1000022B11F0804F18BF00F8012B704730B542
:100A2000B0F10A0271F100034FEA900E4EEA817EA6
:100A3000B0EB0E0061EB91014FEA101E4EEA017E11
:100A400010EB0E0041EB11114FEA102E4EEA016E31
:100A500010EB0E0041EB11214FEA104E4EEA014E11
:100A600010EB0E0041EB1141401841F100014FEA3B
:100A7000D00040EA41704FEAD1014FEA810444EAD4
:100A8000907410EB800544EB01046D1944EB0404F1
:100A9000521BA3414FF0000348BF0A3200D530BDBE
:100AA000401C41F1000130BD2DE9F0470D4699464B
:100AB0009246044600F124080168880604D5E069DE
:100AC00021F01001216000E00120A84201DD471B58
:100AD00000E00027A1697A1902EB0900081AA06159
:100AE0002078C00602D42046FFF79AFC002608E0D2
:100AF000D4E901211AF806009047206A401C761CB0
:100B000020624E45F4DB2078C0060AD52046FFF768
:100B100087FC06E0D4E9012130209047206A401C80
:100B20002062381EA7F10107F4DC07E0D4E90121B7
:100B300018F805009047206A401C2062281EA5F185
:100B40000105F3DC2046FFF781FC2078000602D582
:100B50000220BDE8F0870120FBE72DE9FF4F0C469E
:100B60001E464FF0FF378BB0D2E90001DDF8608000
:100B70000A908A46C1F30A5505B93D460021084648
:100B80004FF00000BAF1000F00F4400005DA00EB6E
:100B900080004FF4400101EA50004FEA9059B9F14A
:100BA000010F00DDB9460A9850EA4A000ED044F61B
:100BB0001050A5F2FF3545432F14B8F1000F1ED099
:100BC0007542291E1EDDC9F100021CE0B8F1010FBB
:100BD0004FF0000001D0302103E0F24305E0215442
:100BE000401CB042FBDB30460022002121540B990F
:100BF000C1F80880C1E900200FB0BDE8F08FBD1B2F
:100C00006D1CDEE74A4600DA694206A800F010FCD7
:100C100006AB93E8070003AB83E8070050460A9948
:100C20000BF00FF98DE80700A0F500501F38009079
:100C30000398002D0ADD42F21F014A4608440023B2
:100C400003A9039068460BF079FB09E0A0F500507A
:100C50004A461F38002303A9039068460BF083FB24
:100C60008DE807000004000C03D04FF0FF3041086E
:100C700000E01046B8F1000F03D0002200921546A4
:100C80001EE0751E05D4FFF7CAFE303262556D1E98
:100C9000F9D5B3460122084302D000227F1C04E0AC
:100CA0002078302801D100227F1E002A099784D0A5
:100CB0001DE0112D07DAFFF7B2FE303262556D1CD0
:100CC00050EA0102F5D1084302D00098C8B10EE005
:100CD0000021681E05E0235C625C63542254401EC0
:100CE000491C8142F7DBAB46A81B401E099000203F
:100CF00004F80B000B98099AC0F80880C0E9002B93
:100D00007AE711264FF0000857E72DE9F04F8846A3
:100D10000446D21D22F0070191B0D1E90001CDE9CE
:100D20000A010BF057FC02460B98C00F01D02D2092
:100D300007E02068810701D52B2002E0202101EA8D
:100D4000C000032A099001D0072A05DB034641466B
:100D5000204600F02DFB0BE12078800601D5E069EC
:100D600000E00620B8F1650F814606D0B8F1660FA5
:100D700018D0B8F1670F70D131E00020B9F1110F30
:100D8000009001DB112301E009F101030AAA01A986
:100D90000CA8FFF7E2FEDDE90C70002609F1010561
:100DA000834647E001204B4600904FF000470AAAD7
:100DB00001A90CA8FFF7D1FEDDE90DB00C995D4645
:100DC000002610B909F101000D18B9EB050003D494
:100DD000C0F1FF3609F10105A5EB09002BE0B9F1DF
:100DE000010F01DA4FF001090020B9F1110F009055
:100DF000484601DD112300E003460AAA01A90CA818
:100E0000FFF7ABFEDDE90C704D46002683462078E7
:100E100000070AD4AB4500DA5D4601A8012D04DDC8
:100E2000411911F8011C302907D04F4502DA17F19A
:100E3000040F04DA012082460FE06D1EEEE7002F5A
:100E400002DCED1B3E4403E0781CA84200DD7D1C63
:100E5000B81B00F1010A4FF000472078000703D4C7
:100E6000AA4501DB4FF0FF3A0021B7F1004F0DF129
:100E700043088DF8431024D002202B23002F01DAE1
:100E80007F422D230A21021EA0F1010000DC5FB188
:100E900097FBF1FC97FBF1F201FB1C7C17460CF170
:100EA000300C08F801CDEEE7A8F1010003702188AD
:100EB000090501D5452100E06521A0F1010800F8F0
:100EC000011C09980FA9A1EB0807FF1D00B1012023
:100ED000411901EBEA70A1693844081A401EA0616B
:100EE0002078C00602D42046FFF79AFA099828B164
:100EF000D4E901219047206A401C20622078C00676
:100F000022D52046FFF78CFA1EE0002E04DBB34505
:100F100002DD01A8805D00E03020D4E90121904786
:100F2000206A401C2062761CAAF101005FEA000AD8
:100F30000AD100F039FAC0680168405CD4E90121A7
:100F40009047206A401C2062281EA5F10105DCDCC8
:100F500007E0D4E9012118F8010B9047206A401CF2
:100F60002062381EA7F10107F3DC2046FFF76EFA76
:100F7000032011B041E600002DE9F04F04460D4674
:100F8000D21D22F0070089B0D0E9009748463946C3
:100F90000BF020FB0246F80F01D02D2307E020685C
:100FA000810701D52B2302E0202101EAC0038DF83F
:100FB00020300BB1012000E00020032A824601D03E
:100FC000072A04DB2946204600F0F2F93FE12078A9
:100FD000800601D40D2500E0E569C7F30A560D2D02
:100FE00049DA00214FEA175B08464FF00000002F56
:100FF00000F4400007DA00EB80004FF4400100EB02
:10100000D07001EA60008115012901DD4FF0FF3148
:1010100000224FEA850CBCF1180F06D31346ACF141
:1010200018004FF08052C24003E04FF4801323FABF
:101030000CF30CF10C0CBCF1200F04D3ACF1200C20
:1010400009FA0CF001E007FA0CF000294FF0004813
:1010500001DD18B90FE00ED140450CD319EB0209A0
:101060005F4121B9404502D19F4329EA0209BBEB08
:10107000175F00D0761C2088000502D57B48784495
:1010800002E07A487844193808AA302302F80A3076
:10109000037C0AF10101002E0AF1020A53546A4648
:1010A00002DC4FF0300101E04FF031014FF0010858
:1010B0008DF8001002D0A6F2FF3603E059EA47018E
:1010C00000D06B4E002D02DC2178090704D54FF0CB
:1010D00002082E218DF80110C44600210BE0C7F351
:1010E00003433F01C35C491C6D1E02F8083005290B
:1010F00008F1010801DA002DF1DC00210CE000EB21
:101100001973491C1B786D1E082902F808304FEA34
:10111000091908F1010801DA002DF0DC21688B06BD
:1011200002D516E0A8F10108E04505DD02EB080351
:1011300013F8013C302BF5D0B8F1000F09DD02EBBC
:10114000080313F8013C2E2B03D1090701D4A8F1A1
:101150000108002D05DD3E2102F808106D1E08F182
:101160000108407C002E02F8080008F1010804DAAA
:101170002D20764202F8080002E02B2002F8080039
:101180000A214FF47A70864208F101080BDB96FBC6
:10119000F0F3303302F8083096FBF0F308F1010861
:1011A00000FB136601E0642E0CDB642096FBF0F379
:1011B000303302F8083096FBF0F308F1010800FB29
:1011C000136601E00A2E06DB96FBF1F0303002F8E0
:1011D000080008F1010896FBF1F001FB10603030C7
:1011E00002F80800A16908F1010808EB050202EB0A
:1011F0000A00081AA0612078C00602D42046FFF732
:101200000FF9216A08AE01EB0A00206204E0D4E97C
:10121000012116F8010B9047BAF1010AF7D22078A4
:10122000C00602D52046FFF7FBF86E4609E016F827
:10123000010B3E280FD0D4E901219047206A401CC1
:101240002062B8F10108F2D22046FFF7FFF809B09A
:101250000320BDE8F08F206A2844206203E0D4E92F
:101260000121302090476D1EEBD3F8E7E6B7000070
:1012700002FCFFFF01694A1C02610878704700B553
:101280008FB0CDE901310021059105497944CDE9BF
:10129000031011466846FFF7A5FA0FB000BD000025
:1012A000E5FFFFFF10B5436913B1AFF3008001E024
:1012B000FFF7EFF8012010BD127800F124010A7049
:1012C00000224A700122EDE711684FF0FF32E9E792
:1012D00010B5436913B1AFF3008001E0FFF764F983
:1012E000012010BD128800F1240182840022C284F2
:1012F0000122EDE711684FF0FF32E9E7007B00F0D3
:10130000800070472DE9F04116460C46054600F076
:1013100043F8036893F80101012807D0FF2C12D885
:10132000185D80B101202C70BDE8F081D3F8070171
:101330003246214603F20713C7182846BC46BDE8CB
:10134000F041002360474FF0FF30EDE7754600F0B5
:10135000E1F8AE4605006946534620F00700854691
:1013600018B020B5FEF7C8FFBDE820404FF00006DA
:101370004FF000074FF000084FF0000BAC46ACE810
:10138000C009ACE8C009ACE8C009ACE8C00921F06C
:1013900007018D467047000010B500F005F8001DEC
:1013A00010BD00BF35B300000048704700F60020B4
:1013B0002DE9F0411F46044603260168072A01F47F
:1013C000006004DB08B116A505E016A503E008B12E
:1013D00015A500E015A521F010002060A069C01E31
:1013E000A0610FB1401EA0612046FFF719F84FB170
:1013F000D4E9012138469047206A401C2062C01C75
:10140000206206E0206AFAE7D4E9012115F8010B11
:101410009047761EF8D22046FFF718F8BDE8F08115
:101420004E414E006E616E00494E4600696E660088
:101430002DE9F047814616468AB0354878440DC8F4
:101440008DE80D0032487844801C03AC0DC884E858
:101450000D0041F69B300844372190FBF1F290FBE0
:10146000F1F5A5F1800501FB12041B3C02D5644295
:10147000012000E00020DFF898A080460027FA4411
:10148000AAF1BE0A0EE0E0070AD03246684607EB32
:10149000470101230AEB81010AF065FF8DE807008F
:1014A00064107F1C002CEED1194F7F44AE3F19E031
:1014B000E80715D007EB04100DF1180A90E80E00AC
:1014C0008AE80E00C068F04201D1981908903246AF
:1014D000012306A903A80AF046FF03AB83E807002F
:1014E0006D10641C002DE3D14FF0010332466946B4
:1014F000B8F1000F03A802D00AF020FF01E00AF0C3
:1015000032FFC9E90001C9F808200AB0BDE8F08738
:10151000B8B4000000487047E0F50020000000006B
:1015200030B44FF0013C50F8042B51F8043BCCFA96
:1015300052F4D51A20D1FCB950F8042B51F8043BD1
:10154000CCFA52F4D51A17D1B4B950F8042B51F88B
:10155000043BCCFA52F4D51A0ED16CB950F8042BD6
:1015600051F8043BCCFA52F4D51A05D1002CDAD04C
:1015700030BC4FF00000704729BAB1FA81F111F088
:101580001801D1F120008440F2D1CA40CB4012F0C2
:10159000FF0213F0FF0330BCD01A704781B041F254
:1015A0000000C4F201000068800600285DD5FFE756
:1015B00041F20400C4F2010000688DF803004FF20C
:1015C0006070C2F200004078000600284CD4FFE7AB
:1015D0004FF26070C2F2000000884004002816D567
:1015E000FFE79DF803000A2807D0FFE74FF260717C
:1015F000C2F200010020088008E04FF26071C2F2E0
:101600000001088840F400400880FFE72BE09DF8C7
:1016100003000D2809D1FFE74FF26071C2F200010B
:10162000088840F4804008801CE09DF803104FF2C9
:101630006070C2F2000003886FF39F334FF298622C
:10164000C2F20002D1540188013101800088C8280B
:1016500007DBFFE74FF26071C2F200010020088053
:10166000FFE7FFE7FFE7FFE7FFE701B07047000094
:1016700081B0009001B070472DE9F0438DB0DDF8E6
:1016800068C0DDF864C0DDF860C0DDF85CC0DDF87E
:1016900058C0DDF854C0DDF850C00C900B910A9290
:1016A000099300208DF823000998406801280FD184
:1016B000FFE719988068C11700EB917121F00301D1
:1016C000401A28B9FFE70B988069012804D0FFE78A
:1016D000FF208DF8230021E00C980B990A9A099BB2
:1016E000DDF850C0159C169D179E189FDDF864808C
:1016F000DDF86890EE46CEF81890CEF81480CEF85B
:101700001070CEF80C60CEF80850CEF80440CEF839
:1017100000C000F031F98DF82300FFE79DF92300A8
:101720000DB0BDE8F08300002DE9F04F9DB0DDF86D
:10173000B0C0DDF8ACC0DDF8A8C0DDF8A4C0DDF8AD
:10174000A0C0DDF89CC0DDF898C01B901A911992DA
:1017500018931A98006920B9FFE71A98406920B1D8
:10176000FFE7FF208DF873008FE02B9880681790BB
:101770002B98C06816901898C06815901A988068C1
:101780001490189880681A99C96848431599484375
:1017900013902B9880681699484312902B984068B4
:1017A000119018980068109026980F9000200E90C5
:1017B000FFE70E981099884263DAFFE70F9A0E98B8
:1017C00015994843189B59689B68584300FB0120B2
:1017D000269000200D90FFE70D98119988424BDA72
:1017E000FFE726980A9028992A9A2C9B1998D0F8F6
:1017F00000C04468179D169E159F1A98D0F8008067
:10180000D0F80490D0F820A0D0F824B0149807FBAA
:1018100000FE68460B90C0F824E00A98DDF82CE042
:10182000CEF820B0CEF81CA0CEF81890CEF81480D8
:10183000CEF81070CEF80C60CEF80850CEF8044008
:10184000CEF800C003F058F98DF833009DF933004D
:1018500028B1FFE79DF833008DF8730015E0139968
:1018600026980844269012992C9808442C90FFE75B
:101870000D9801300D90AFE7FFE70E9801300E9004
:1018800097E700208DF87300FFE79DF973001DB006
:10189000BDE8F08F2DE9F04F93B0DDF888C0DDF89A
:1018A00084C0DDF880C0DDF87CC0DDF878C0DDF8EC
:1018B00074C0DDF870C0119010910F920E931098C3
:1018C000006970B9FFE71098406950B9FFE71098B8
:1018D0008068012805D1FFE71098C068012804D06E
:1018E000FFE7FF208DF84B0040E00E98016842684A
:1018F0008068504348430D902198C0680C900E9822
:10190000C0680B901C981E99209A229BDDF83CE041
:10191000DEF800C0DEF804400D9D0C9E0B9FDDF844
:1019200040E0DEF80080DEF80490DEF820A0DEF86B
:1019300024B0EE46CDF828E0CEF82470CEF820B0E2
:10194000CEF81CA0CEF81890CEF81480CEF8107007
:10195000CEF80C60CEF80850CEF80440CEF800C0A7
:1019600003F0CAF800208DF84B00FFE79DF94B000B
:1019700013B0BDE8F08F00002DE9F043D3B0DDF8DF
:1019800080C1DDF87CC1DDF878C1DDF874C1DDF817
:1019900070C1DDF86CC1DDF868C1349033913292CA
:1019A00031933498006858B9FFE731985B9900F09B
:1019B000A7FA012804DBFFE7FF208DF8D70099E2A2
:1019C000349800683090319800682F903198806882
:1019D000ADF8BA0031984068ADF8B8003198C068E9
:1019E000ADF8B6005B988068ADF8B4005B984068CD
:1019F000ADF8B2005F988068ADF8B0005F984068BD
:101A0000ADF8AE005F98C068ADF8AC0033980069DF
:101A1000ADF8AA0033984069ADF8A8003398806803
:101A2000ADF8A6003398C068ADF8A40033980068FC
:101A300028903398406827903398006A269033980E
:101A4000406A25903298006824903298406823902C
:101A500000202290FFE722982F99884280F2468248
:101A6000FFE733988069ADF886003398C069ADF818
:101A7000840030981C9060981B9000202090FFE715
:101A80002098BDF8AE10884280F2C080FFE70020A9
:101A90001F90FFE71F98BDF8B010884280F2B18018
:101AA000FFE7BDF8A40020994843BDF8A810401AEC
:101AB0001A90BDF8A6001F994843BDF8AA10401A15
:101AC000199000201E90FFE71E98BDF8B2108842C2
:101AD00053DAFFE700201D90FFE71D98BDF8B41012
:101AE000884245DAFFE71A9ABDF884001E9900FB88
:101AF00001201890199ABDF886001D9900FB01205D
:101B000017901898002810D4FFE71898BDF8B8105F
:101B100088420ADAFFE71798002806D4FFE71798EB
:101B2000BDF8BA10884207DBFFE71C98BDF8B61075
:101B30004900FEF74FFC10E05A991898BDF8BA20FA
:101B4000179B00FB0230BDF8B62000FB02101C9969
:101B5000BDF9A03007F0B6FEFFE7BDF8B6101C983F
:101B600000EB41001C90FFE71D9801301D90B4E789
:101B7000FFE71E9801301E90A6E71C983099BDF82B
:101B8000B620BDF8B2305A43BDF8B4305A4301EB29
:101B90008201884230D1FFE75C983099BDF8AC20D3
:101BA000239B249C279DBDF99860BDF99470BDF8D6
:101BB000B6C0BDF8B2E00CFB0EFCBDF8B4E00CFB07
:101BC0000EFCDDF87881DDF86C90EE46CEF81890CA
:101BD000CEF81480CEF80C70CEF80860CEF8045021
:101BE000CEF800401FFA8CFCCEF810C002F092F93B
:101BF0001B9030981C90FFE7FFE71F9801301F9063
:101C000048E7FFE720980130209039E71C98309989
:101C1000884200F05081FFE75C98169000201590F4
:101C2000FFE71598BDF8AC10884280F24381FFE7CA
:101C3000002014905E9830B1FFE75E98159950F837
:101C400021001490FFE730981390BDF8B600BDF85E
:101C5000B2104843BDF8B41048438008ADF84A00BC
:101C6000FFE7BDF84A00002867D0FFE716983B90D1
:101C700011A83A9010A839903BA844904498006865
:101C8000006843904499086804300860439838908D
:101C90003898469008204590459800F01F004590E0
:101CA000459818B9FFE74698479004E0469845994B
:101CB000C8414790FFE747982FFA80F0379038984F
:101CC0002FFA80F03690BDF8DE10BDF8DA0040EA59
:101CD000014039990860BDF8D800379940EA0140C1
:101CE0003A9908603B98169013A83F903F9909686D
:101CF00009683E913F9A1168043111603E990F9135
:101D000011990F9A149B21FB023114913D903D983B
:101D1000006800683C903D990868043008603C9871
:101D20000E9010980E99149A20FB01201490BDF883
:101D30004A000138ADF84A0093E7BDF8B600BDF897
:101D4000B2104843BDF8B410484300F00300ADF8AA
:101D50004A00FFE7BDF84A00D0B1FFE71698411CE2
:101D6000169100788DF837001398811C1391008824
:101D7000ADF834009DF93700BDF93410149A10FB0A
:101D800001201490BDF84A000138ADF84A00E1E79F
:101D9000149A2498159B50F82310239850F8230088
:101DA00042924191409042980C904098012803DB68
:101DB000FFE740980B9002E000200B90FFE70C98A3
:101DC0000B9A01219140414341985291519000203A
:101DD00050904FF080414E914F904E984F99529AAB
:101DE000519BC2FB03014F914E904E984F99C00FEB
:101DF00040EA4100509050980A904098012803DB37
:101E0000FFE70020099003E0409840420990FFE777
:101E10000A9909984D914C9000204B904C990120C3
:101E2000884001384A904A984D99084049904D9809
:101E30004C9908414B904A98401048904B98B0F10B
:101E4000FF3F04DCFFE7489801304890FFE74998DE
:101E50004899884204DDFFE74B9801304B90FFE73B
:101E60004B98149027991498084414901498269924
:101E7000884203DDFFE71498089002E02698089056
:101E8000FFE70898149014982599884203DAFFE731
:101E90001498079002E025980790FFE707981490A0
:101EA00014981B994A1C1B920870FFE71598013083
:101EB0001590B6E6FFE7BDF8BA00BDF8B810484384
:101EC000BDF8B6105A9A00FB01205A90BDF8B00038
:101ED000BDF8AE104843BDF8AC10609A00FB01207D
:101EE0006090FFE7229801302290B4E500208DF841
:101EF000D700FFE79DF9D70053B0BDE8F08300009D
:101F000082B0019000910198C068009A516892686F
:101F100050434843800002B0704700002DE9F04371
:101F20008DB0DDF868C0DDF864C0DDF860C0DDF8B4
:101F30005CC0DDF858C0DDF854C0DDF850C00B902F
:101F40000A91099208930A980069002867D1FFE76F
:101F50000A984069002862D1FFE715988068012837
:101F60005DD1FFE715984068012858D1FFE70A982E
:101F70008069012853D1FFE70A98C06901284ED132
:101F8000FFE70A988068012827D1FFE70A98C06810
:101F9000012822D1FFE70B980A99099A089BDDF8DE
:101FA00050C0159C169D179E189FDDF86480DDF8C3
:101FB0006890EE46CEF81890CEF81480CEF81070E7
:101FC000CEF80C60CEF80850CEF80440CEF800C031
:101FD000FFF760FC8DF833007EE00B980A99099AB0
:101FE000089BDDF850C0159C169D179E189FDDF8C4
:101FF0006480DDF86890EE46CEF81890CEF8148034
:10200000CEF81070CEF80C60CEF80850CEF8044030
:10201000CEF800C0FFF788FB8DF833005CE008982D
:102020004068012836D1FFE719988068C11700EB96
:10203000917121F00301401A60BBFFE70A988069A3
:10204000012827D1FFE715984068012822D1FFE732
:102050000B980A99099A089BDDF850C0159C169DAB
:10206000179E189FDDF86480DDF86890EE46CEF884
:102070001890CEF81480CEF81070CEF80C60CEF820
:102080000850CEF80440CEF800C0FFF7F5FA8DF8FE
:10209000330021E00B980A99099A089BDDF850C09B
:1020A000159C169D179E189FDDF86480DDF86890DA
:1020B000EE46CEF81890CEF81480CEF81070CEF818
:1020C0000C60CEF80850CEF80440CEF800C0FFF700
:1020D00053FC8DF83300FFE79DF933000DB0BDE8E8
:1020E000F0830000ADF5687DDDF8B8C3DDF8B4C35A
:1020F000DDF8B0C3DDF8ACC3DDF8A8C3DDF8A4C3D8
:10210000DDF8A0C35990589157925693569880681D
:1021100055905698406854905698C0685390ED98E2
:10212000C068529058984069519058988069509072
:102130005898C0684F90589800694E9057984068DA
:102140004D90579800684C90ED9880684B90ED98B2
:1021500040684A905898406849905898006848905C
:102160005898406A47905898806A46905398529978
:10217000884205D0FFE7FF208DF86B0100F0DCBD41
:10218000519801280ADCFFE7E9988068032805D107
:10219000FFE7E9984068032805D0FFE7FF208DF8A6
:1021A0006B0100F0C9BDEC984590509840424490B6
:1021B000002043904290FFE743984A99884280F27A
:1021C000B785FFE7519840424190002040904498E5
:1021D0004042B0F1FF3F03DCFFE700202C9003E01A
:1021E000449840422C90FFE72C983F90FFE740989E
:1021F0004B99884280F29285FFE700203E904198FB
:102200004042B0F1FF3F03DCFFE700202B9003E0EA
:10221000419840422B90FFE72B983D904598EC90D9
:10222000FFE73E9853990439884200F34E84FFE754
:1022300000203C903B903A903990EC98A8B1FFE791
:10224000EC98011DEC9100683C90EC98011DEC911C
:1022500000683B90EC98011DEC9100683A90EC9876
:10226000011DEC9100683990FFE7E89B44983F9985
:1022700008445399559A4A4300FB0232419800FBA7
:1022800001203E9908443890EA983F9A5399514367
:1022900001EB410108443E99084437904898C0EA50
:1022A000004036903F983590FFE735982A90549833
:1022B0004499401A042803DBFFE70320299004E037
:1022C00054984499401A2990FFE72A9829998842FE
:1022D00080F29681FFE70020349033903290319065
:1022E0003D98002879D1FFE7389866906698006895
:1022F000659065983490379864906498006863900E
:102300006398339036982890349877900820769088
:10231000769800F01F007690769818B9FFE77798C6
:10232000789004E077987699C8417890FFE72898EC
:10233000789920FA81F03290339874900820739045
:10234000739800F01F007390739818B9FFE77498A2
:10235000759004E074987399C8417590FFE775987B
:102360002FFA80F03190329A31993B988A92899174
:1023700088908A988999889A10FB01203B9036981A
:10238000349920FA81F03490329A319939989C929C
:102390009B919A909C989B999A9A10FB3120399026
:1023A00033982FFA80F03390349A33993C9887927F
:1023B0008691859087988699859A10FB01203C909C
:1023C000349A33993A9899929891979099989899C4
:1023D000979A10FB31203A90FFE7389853990844B8
:1023E0006290629800686190619834903798539930
:1023F00008446090609800685F905F9833903698CA
:1024000027903498719008207090709800F01F0009
:102410007090709818B9FFE77198729004E0719805
:102420007099C8417290FFE72798729920FA81F05D
:10243000329033986E9008206D906D9800F01F00D8
:102440006D906D9818B9FFE76E986F9004E06E98E4
:102450006D99C8416F90FFE76F982FFA80F0319027
:10246000329A31993B98849283918290849883998F
:10247000829A10FB01203B903698349920FA81F023
:102480003490329A31993998969295919490969881
:102490009599949A10FB3120399033982FFA80F057
:1024A0003390349A33993C98819280917F908198AF
:1024B00080997F9A10FB01203C90349A33993A9886
:1024C00093929291919093989299919A10FB3120C6
:1024D0003A9055984199401A0328C0F28080FFE74E
:1024E0003898539900EB41005E905E9800685D90CB
:1024F0005D9834903798539900EB41005C905C985C
:1025000000685B905B9833903698269034986B9077
:1025100008206A906A9800F01F006A906A9818B9BB
:10252000FFE76B986C9004E06B986A99C8416C90D7
:10253000FFE726986C9920FA81F0329033986890E2
:1025400008206790679800F01F006790679818B997
:10255000FFE76898699004E068986799C8416990B6
:10256000FFE769982FFA80F03190329A31993B98C1
:102570007E927D917C907E987D997C9A10FB0120C3
:102580003B903698349920FA81F03490329A319900
:10259000399890928F918E9090988F998E9A10FB87
:1025A0003120399033982FFA80F03390349A339950
:1025B0003C987B927A9179907B987A99799A10FBE2
:1025C00001203C90349A33993A988D928C918B905B
:1025D0008D988C998B9A10FB31203A90FFE7539895
:1025E0005599389A00FB01203890539800EB400130
:1025F000379808443790FFE735980130359054E616
:102600003C9A4C983E9B50F823104D9850F823006C
:10261000AB92AA91A990AB982590A998012803DBC9
:10262000FFE7A998249002E000202490FFE7259876
:10263000249A012191404143AA98CF91CE90002045
:10264000CD904FF08041CA91CB90CA98CB99CF9A48
:10265000CE9BC2FB0301CB91CA90CA98CB99C00F05
:1026600040EA4100CD90CD982390A998012803DB42
:10267000FFE70020229003E0A99840422290FFE764
:1026800023992298B191B0900020AF90B099012089
:1026900088400138AE90AE98B1990840AD90B1989D
:1026A000B0990841AF90AE984010AC90AF98B0F19F
:1026B000FF3F04DCFFE7AC980130AC90FFE7AD983A
:1026C000AC99884204DDFFE7AF980130AF90FFE797
:1026D000AF983C903B9A4C983E994B1C50F8231075
:1026E0004D9850F82300A892A791A690A898219001
:1026F000A698012803DBFFE7A698209002E00020BF
:102700002090FFE72198209A012191404143A7980A
:10271000D591D4900020D3904FF08041D091D190AA
:10272000D098D199D59AD49BC2FB0301D191D09076
:10273000D098D199C00F40EA4100D390D3981F9010
:10274000A698012803DBFFE700201E9003E0A6986F
:1027500040421E90FFE71F991E98B791B690002047
:10276000B590B699012088400138B490B498B799D3
:102770000840B390B798B6990841B590B498401006
:10278000B290B598B0F1FF3F04DCFFE7B29801309A
:10279000B290FFE7B398B299884204DDFFE7B5989D
:1027A0000130B590FFE7B5983B903A9A4C983E9926
:1027B0008B1C50F823104D9850F82300A592A4913B
:1027C000A390A5981D90A398012803DBFFE7A39889
:1027D0001C9002E000201C90FFE71D981C9A01212C
:1027E00091404143A498DB91DA900020D9904FF0BA
:1027F0008041D691D790D698D799DB9ADA9BC2FBC5
:102800000301D791D690D698D799C00F40EA4100DE
:10281000D990D9981B90A398012803DBFFE70020EB
:102820001A9003E0A39840421A90FFE71B991A9868
:10283000BD91BC900020BB90BC990120884001381C
:10284000BA90BA98BD990840B990BD98BC99084112
:10285000BB90BA984010B890BB98B0F1FF3F04DC31
:10286000FFE7B8980130B890FFE7B998B899884267
:1028700004DDFFE7BB980130BB90FFE7BB983A90BF
:10288000399A4C983E99CB1C50F823104D9850F82B
:102890002300A292A191A090A2981990A09801283B
:1028A00003DBFFE7A098189002E000201890FFE7F4
:1028B0001998189A012191404143A198E191E09023
:1028C0000020DF904FF08041DC91DD90DC98DD99B5
:1028D000E19AE09BC2FB0301DD91DC90DC98DD997D
:1028E000C00F40EA4100DF90DF981790A0980128C0
:1028F00003DBFFE70020169003E0A098404216900B
:10290000FFE717991698C391C2900020C190C29911
:10291000012088400138C090C098C3990840BF90FA
:10292000C398C2990841C190C0984010BE90C19808
:10293000B0F1FF3F04DCFFE7BE980130BE90FFE737
:10294000BF98BE99884204DDFFE7C1980130C1906D
:10295000FFE7C198399049993C9808443C904999BF
:102960003B9808443B9049993A9808443A904999D1
:102970003998084439903C984799884203DDFFE72D
:102980003C98159002E047981590FFE715984699F6
:1029900088420EDAFFE73C984799884203DDFFE75B
:1029A0003C98149002E047981490FFE71498139015
:1029B00002E046981390FFE713983C903B984799A4
:1029C000884203DDFFE73B98129002E0479812909F
:1029D000FFE71298469988420EDAFFE73B9847993D
:1029E000884203DDFFE73B98119002E04798119081
:1029F000FFE71198109002E046981090FFE71098BA
:102A00003B903A984799884203DDFFE73A980F9048
:102A100002E047980F90FFE70F98469988420EDA38
:102A2000FFE73A984799884203DDFFE73A980E900E
:102A300002E047980E90FFE70E980D9002E046984E
:102A40000D90FFE70D983A9039984799884203DD39
:102A5000FFE739980C9002E047980C90FFE70C983C
:102A6000469988420EDAFFE739984799884203DD94
:102A7000FFE739980B9002E047980B90FFE70B981F
:102A80000A9002E046980A90FFE70A9839903C982D
:102A9000EE99429A531C429388543B98EE99429A7D
:102AA000531C429388543A98EE99429A531C42938D
:102AB00088543998EE99429A531C42938854FFE700
:102AC0003E9804303E90FFF7ACBBFFE73E98539929
:102AD000884280F21981FFE700203090EC9830B1F5
:102AE000FFE7EC98011DEC9100683090FFE7E89B50
:102AF00044983F9908445399559A4A4300FB02323F
:102B0000419800FB01203E9908442F90EA983F9A93
:102B10005399514301EB410108443E9908442E90DA
:102B20003F982D90FFE72D98099054984499401AAA
:102B3000042803DBFFE70320089004E0549844993D
:102B4000401A0890FFE709980899884240DAFFE7A1
:102B50003D9868B9FFE72F9890F90000489908441C
:102B60002E9991F90010309A00FB01203090FFE778
:102B70002F98539A8056489908442E998956309A2E
:102B800000FB0120309055984199401A03280EDB34
:102B9000FFE72F98539A10F91200489908442E998C
:102BA00011F91210309A00FB01203090FFE7539882
:102BB00055992F9A00FB01202F90539800EB40016C
:102BC0002E9808442E90FFE72D9801302D90AAE70B
:102BD000309A4C983E9B50F823104D9850F82300A3
:102BE0009F929E919D909F9807909D98012803DB4E
:102BF000FFE79D98069002E000200690FFE7079807
:102C0000069A0121914041439E98E791E690002069
:102C1000E5904FF08041E291E390E298E399E79AE2
:102C2000E69BC2FB0301E391E290E298E399C00FB7
:102C300040EA4100E590E59805909D98012803DB66
:102C4000FFE70020049003E09D9840420490FFE7D6
:102C500005990498C991C8900020C790C89901208F
:102C600088400138C690C698C9990840C590C9984F
:102C7000C8990841C790C6984010C490C798B0F151
:102C8000FF3F04DCFFE7C4980130C490FFE7C5981C
:102C9000C499884204DDFFE7C7980130C790FFE779
:102CA000C7983090499930980844309030984799A7
:102CB000884203DDFFE73098039002E047980390D5
:102CC000FFE70398469988420EDAFFE73098479964
:102CD000884203DDFFE73098029002E047980290B7
:102CE000FFE70298019002E046980190FFE7019803
:102CF00030903098EE99429A531C42938854FFE7E3
:102D00003E9801303E90E1E6FFE74F994198084434
:102D10004190409801304090FFF769BAFFE74E9923
:102D2000449808444490439801304390FFF744BAD4
:102D300000208DF86B01FFE79DF96B010DF5687DB3
:102D4000704700002DE9F04FB7B0DDF818C1DDF88D
:102D500014C1DDF810C1DDF80CC1DDF808C1DDF8E3
:102D600004C1DDF800C13690359134923393359823
:102D7000C069ADF8CA003598006AADF8C80035984A
:102D80008068C11700EB917121F00301401A0028FF
:102D900074D1FFE73398006801286FD1FFE73598B9
:102DA000C06901286AD1FFE73598006A012865D11A
:102DB000FFE7409830903398426881682F91C3684C
:102DC000DDF808C1459841682A9181682B91C46853
:102DD0003598269041994F688E68D0F81480D0F8C5
:102DE000189001682891416829918568D0F80CA055
:102DF000D0F810B0DDF810E146982E9034990868AC
:102E00002C90269849682D91416A2791806A6946DD
:102E100031918864279931984164289831990864E0
:102E200029993198C1632A98319988632B993198EF
:102E300041632C98319908632D993198C1622E987D
:102E4000319988622F993198C0F824E03098DDF8E4
:102E5000C4E0CEF820B0CEF81CA0CEF81890CEF882
:102E60001480CEF81070CEF80C60CEF80850CEF872
:102E70000440CEF800C007F0A7F979E0409824900C
:102E800033980188239102898388B0F80CC0429C52
:102E900045998D89359817900689DDF804E1BEF8CB
:102EA0000870BEF80480B0F81490B0F818A0B0F81C
:102EB0000CB0B0F810E044982290469821903498D5
:102EC000169000681F9016984068209008891E9000
:102ED000179889881D9101681B9141681C91416A6E
:102EE0001A91806A1990BDF8CA001890BDF8C810F0
:102EF000684625904165189825990865199925987F
:102F0000C1641A98259988641B99259841641C9876
:102F1000259908641D992598C1631E982599886391
:102F20001F99259841632098259908632199259830
:102F3000C16222982599886223992598C0F824E0D7
:102F40002498DDF894E0CEF820B0CEF81CA0CEF89E
:102F50001890CEF81480CEF81070CEF80C60CEF831
:102F60000850CEF80440CEF800C006F0C7FEFFE7D8
:102F7000002037B0BDE8F08F80B5ADF53A7DDDF8C3
:102F800008C3DDF804C3DDF800C3DDF8FCC2DDF8DA
:102F9000F8C2DDF8F4C2DDF8F0C25B905A915992A4
:102FA00058935898C0685790C198C06856905798E1
:102FB0005699884205D0FFE7FF208DF8730100F095
:102FC00091BD5B98006860B9FFE75898BD9900F023
:102FD0008FFD012805DBFFE7FF208DF8730100F06E
:102FE00081BD589880685590589840685490BD9815
:102FF00080685390BD98406852905A9840695190AB
:103000005A98806950905A98C0684F905A980069B1
:103010004E90599840684D90599800684C90C198CE
:1030200080684B90C19840684A905A98406849908F
:103030005A98006848905A98406A47905A98806A0F
:1030400046905B980068459045984490449843901A
:10305000C09842904C9841904D98409000203E90EE
:10306000FFE73E984A99884280F23885FFE73E980C
:103070004E9948435099401AADF8F60000203C9014
:10308000FFE73C984B99884280F22285FFE73C9805
:103090004F9948435199401AADF8EE00BDF9F6003A
:1030A0004042B0F1FF3F03DCFFE700201F9004E047
:1030B000BDF9F60040421F90FFE71F983A905298E2
:1030C0005499BDF9F620891A884203DAFFE752982D
:1030D0001E9005E05498BDF9F610401A1E90FFE7C7
:1030E0001E983990002038903A98A8B1FFE743988D
:1030F000389900EB41005399579A51433A9A5143FA
:103100004900FDF767F95398579948433A99389A17
:1031100000FB01203890FFE73A983790FFE7379897
:103120003999884244DAFFE7BDF9F6003799084437
:10313000369000203590FFE735985399884232DA6F
:10314000FFE7BDF9EE003599084434903498002823
:1031500005D4FFE734985599884209DBFFE7439887
:10316000389900EB410057994900FDF733F911E018
:10317000BC993698559A349B00FB0230579A00FB55
:1031800002104399389B01EB4301BDF9203106F051
:1031900099FBFFE75799389808443890FFE735982E
:1031A00001303590C8E7FFE7379801303790B6E730
:1031B00052983999401A3390339868B1FFE7439891
:1031C000389900EB41005399579A5143339A514330
:1031D0004900FDF7FFF8FFE75698C11700EB917023
:1031E0008008ADF8FE000020ADF8FC004298C090C9
:1031F00041984C9040984D90FFE7BDF8FE000028A4
:1032000000F08483FFE700203290319030902F90BF
:10321000C098A8B1FFE7C098011DC0910068329026
:10322000C098011DC09100683190C098011DC091E7
:1032300000683090C098011DC09100682F90FFE792
:1032400053985299484300EBD0704008ADF8BA004B
:103250004498BDF8FC1000EB41002D90BE98BDF8DD
:10326000FC1008442C90BDF8FC000430ADF8FC00C4
:10327000FFE7BDF8BA00002800F0C780FFE72C98F0
:103280006090609800685F905F9829902C9857999B
:1032900008445E905E9800685D905D982B902D9834
:1032A0006890689800686790679827902D9857995C
:1032B00000EB4100669066980068659065982690DE
:1032C00029982FFA80F02A9029986D9008206C9008
:1032D0006C9800F01F006C906C9818B9FFE76D981F
:1032E0006E9004E06D986C99C8416E90FFE76E98FF
:1032F0002FFA80F029902B982FFA80F028902B98A5
:103300006A9008206990699800F01F006990699898
:1033100018B9FFE76A986B9004E06A986999C84108
:103320006B90FFE76B982FFA80F02B90BDF8980018
:10333000279940EA01402590BDF89A10BDF89E00FB
:1033400040EA01402790BDF8A0002A9940EA0140D8
:10335000269025982699329A20FB01203290BDF8BC
:10336000A4002B9940EA0140269027982699319A8B
:1033700020FB012031902D980430649064980068FF
:103380006390639827902D98579900EB4100043083
:10339000629062980068619061982690BDF89800EC
:1033A000279940EA01402590BDF89A10BDF89E008B
:1033B00040EA01402790BDF8AA10BDF8A20040EAFB
:1033C0000140269025982699309A20FB01203090C4
:1033D000BDF8AE10BDF8A60040EA0140269027983F
:1033E00026992F9A20FB01202F9057992C9800EBBB
:1033F00041002C9057992D9800EB81002D90BDF83D
:10340000BA000138ADF8BA0033E7539852994843EF
:1034100000F00100ADF8BA00FFE7BDF8BA00B8B39C
:10342000FFE72C9890F900002D99B1F90010329A1D
:1034300010FB012032902C9890F901002D99B1F9E0
:103440000210319A10FB012031902C9890F9020063
:103450002D99B1F90410309A10FB012030902C986E
:1034600090F903002D99B1F906102F9A10FB012055
:103470002F9057992C9808442C9057992D9800EB31
:1034800041002D90BDF8BA000138ADF8BA00C4E78C
:10349000329A4C98011D4C9101684D98031D4D9333
:1034A00000687D927C917B907D981D907B9801288F
:1034B00003DBFFE77B981C9002E000201C90FFE7F5
:1034C0001D981C9A0121914041437C98A191A090A4
:1034D00000209F904FF080419C919D909C989D99D9
:1034E000A19AA09BC2FB03019D919C909C989D99E1
:1034F000C00F40EA41009F909F981B907B98012845
:1035000003DBFFE700201A9003E07B9840421A900B
:10351000FFE71B991A9883918290002081908299ED
:1035200001208840013880908098839908407F90DE
:103530008398829908418190809840107E9081986C
:10354000B0F1FF3F04DCFFE77E9801307E90FFE79B
:103550007F987E99884204DDFFE781980130819051
:10356000FFE7819832904999329808443290329816
:103570004799884203DDFFE73298199002E04798A7
:103580001990FFE71998329032984699884203DAE9
:10359000FFE73298189002E046981890FFE71898D5
:1035A00032903298C2994A1CC2920870319A4C9853
:1035B000011D4C9101684D98031D4D9300687A924E
:1035C000799178907A9817907898012803DBFFE733
:1035D0007898169002E000201690FFE71798169A48
:1035E0000121914041437998A791A6900020A59090
:1035F0004FF08041A291A390A298A399A79AA69B6D
:10360000C2FB0301A391A290A298A399C00F40EA24
:103610004100A590A59815907898012803DBFFE755
:103620000020149003E0789840421490FFE7159929
:10363000149889918890002087908899012088406B
:10364000013886908698899908408590899888994C
:10365000084187908698401084908798B0F1FF3F8A
:1036600004DCFFE7849801308490FFE78598849913
:10367000884204DDFFE7879801308790FFE787984D
:10368000319049993198084431903198479988424E
:1036900003DDFFE73198139002E047981390FFE7AE
:1036A0001398319031984699884203DAFFE73198B0
:1036B000129002E046981290FFE7129831903198EC
:1036C000C2994A1CC2920870309A4C98011D4C91C4
:1036D00001684D98031D4D9300687792769175901F
:1036E000779811907598012803DBFFE77598109083
:1036F00002E000201090FFE71198109A01219140FC
:1037000041437698AD91AC900020AB904FF0804152
:10371000A891A990A898A999AD9AAC9BC2FB030166
:10372000A991A890A898A999C00F40EA4100AB9030
:10373000AB980F907598012803DBFFE700200E90EF
:1037400003E0759840420E90FFE70F990E988F9115
:103750008E9000208D908E990120884001388C90A9
:103760008C988F9908408B908F988E9908418D90F6
:103770008C9840108A908D98B0F1FF3F04DCFFE7F1
:103780008A9801308A90FFE78B988A99884204DDF5
:10379000FFE78D9801308D90FFE78D983090499923
:1037A00030980844309030984799884203DDFFE70D
:1037B00030980D9002E047980D90FFE70D983090FB
:1037C00030984699884203DAFFE730980C9002E07F
:1037D00046980C90FFE70C9830903098C2994A1C9C
:1037E000C29208702F9A4C98011D4C9101684D9817
:1037F000031D4D93006874927391729074980B90AE
:103800007298012803DBFFE772980A9002E000201B
:103810000A90FFE70B980A9A01219140414373985F
:10382000B391B2900020B1904FF08041AE91AF9033
:10383000AE98AF99B39AB29BC2FB0301AF91AE9021
:10384000AE98AF99C00F40EA4100B190B19809908D
:103850007298012803DBFFE70020089003E07298CC
:1038600040420890FFE709990898959194900020AC
:10387000939094990120884001389290929895995C
:10388000084091909598949908419390929840108F
:1038900090909398B0F1FF3F04DCFFE790980130DF
:1038A0009090FFE791989099884204DDFFE7939804
:1038B00001309390FFE793982F9049992F980844EF
:1038C0002F902F984799884203DDFFE72F980790A4
:1038D00002E047980790FFE707982F902F984699A6
:1038E000884203DAFFE72F98069002E04698069098
:1038F000FFE706982F902F98C2994A1CC292087031
:10390000BDF8FE000138ADF8FE0076E4569800F0F0
:103910000300ADF8FE00FFE7BDF8FE00002800F050
:10392000CF80FFE74498BDF8FC1000EB41002490E5
:10393000BE98BDF8FC100844239000202290C09847
:1039400030B1FFE7C098011DC09100682290FFE7E9
:10395000539852994843ADF88600BDF8FC000130F9
:10396000ADF8FC0000202090FFE72098BDF88610FD
:10397000884211DAFFE723982099579A4A438056E4
:10398000249931F91210229A10FB01202290FFE7AE
:10399000209801302090E8E7229A4C98011D4C9124
:1039A00001684D98031D4D930068719270916F905E
:1039B000719805906F98012803DBFFE76F980490DA
:1039C00002E000200490FFE70598049A012191404D
:1039D00041437098B991B8900020B7904FF0804162
:1039E000B491B590B498B599B99AB89BC2FB03014C
:1039F000B591B490B498B599C00F40EA4100B79022
:103A0000B79803906F98012803DBFFE7002002902E
:103A100003E06F9840420290FFE7039902989B9160
:103A20009A90002099909A990120884001389890A6
:103A300098989B99084097909B989A9908419990DB
:103A40009898401096909998B0F1FF3F04DCFFE7FA
:103A5000969801309690FFE797989699884204DDF2
:103A6000FFE7999801309990FFE79998229049993A
:103A700022980844229022984799884203DDFFE764
:103A80002298019002E047980190FFE70198229068
:103A900022984699884203DAFFE72298009002E0D4
:103AA00046980090FFE7009822902298C2994A1CFD
:103AB000C2920870BDF8FE000138ADF8FE002BE799
:103AC00044984390FFE73C9801303C90FFF7D9BA07
:103AD000FFE73E9801303E90FFF7C3BA00208DF813
:103AE0007301FFE79DF973010DF53A7D80BD00007C
:103AF00082B0019000910198C068009A5168926864
:103B000050434843400002B0704700002DE9F043A5
:103B10008DB0DDF868C0DDF864C0DDF860C0DDF8A8
:103B20005CC0DDF858C0DDF854C0DDF850C00C9022
:103B30000B910A92099300208DF823000B9880685E
:103B4000012868D1FFE709980068012863D1FFE7E1
:103B50000B98C06901285ED1FFE70B98006A012825
:103B600059D1FFE715988068032831D1FFE71598F0
:103B7000406803282CD1FFE70B988069012827DCD7
:103B8000FFE70B984069012822DCFFE70C980B99AE
:103B90000A9A099BDDF850C0159C169D179E189F28
:103BA000DDF86480DDF86890EE46CEF81890CEF827
:103BB0001480CEF81070CEF80C60CEF80850CEF815
:103BC0000440CEF800C0FEF78DFA8DF8230021E006
:103BD0000C980B990A9A099BDDF850C0159C169D0C
:103BE000179E189FDDF86480DDF86890EE46CEF8E9
:103BF0001890CEF81480CEF81070CEF80C60CEF885
:103C00000850CEF80440CEF800C0FFF7B5F98DF8A3
:103C10002300FFE721E00C980B990A9A099BDDF835
:103C200050C0159C169D179E189FDDF86480DDF826
:103C30006890EE46CEF81890CEF81480CEF810704A
:103C4000CEF80C60CEF80850CEF80440CEF800C094
:103C5000FFF778F88DF82300FFE79DF923000DB0FA
:103C6000BDE8F0832DE9F04F8FB0DDF878C0DDF8C6
:103C700074C0DDF870C0DDF86CC0DDF868C0DDF838
:103C800064C0DDF860C00E900D910C920B930B9800
:103C900000680A90FFE70A98002843D0FFE71898C9
:103CA0001A991C9A1E9BDDF834E0DDF830C0DCF870
:103CB0000050DCF80460DDF864C0DCF80070DDF86A
:103CC00074C0DCF80C80DEF800C0DEF80840DEF8D6
:103CD0000C90DEF810A0EE46CDF824E04FF0010B7A
:103CE000CEF820B0CEF81CA0CEF81890CEF81480F4
:103CF000CEF81070CEF80C60CEF80850CEF8044024
:103D0000CEF800C005F074FA1998016818980844B4
:103D100018901D98C1681E9808441E900A98013892
:103D20000A90B8E700200FB0BDE8F08F80B5A6B0CC
:103D3000DDF8A8C0DDF8A4C0DDF8A0C02290219174
:103D400020921F93209840681E90209880681D90B4
:103D5000299840681C90299880681B902198406899
:103D60001A9021980068199028984068189028980F
:103D7000806817902198C0681690219880681590E7
:103D80002198006914902198406913902098C06888
:103D900012902A98119000201090169840420F908F
:103DA000FFE710981C99884280F2A680FFE7002068
:103DB0000E90159840420D90FFE70E981B9988428F
:103DC00080F29180FFE70F984042B0F1FF3F03DCA3
:103DD000FFE70020049003E00F9840420490FFE7C3
:103DE00004980C900D984042B0F1FF3F03DCFFE7D0
:103DF0000020039003E00D9840420390FFE70398F2
:103E00000B9018981E990F9A891A884203DAFFE7D7
:103E10001898029004E01E980F99401A0290FFE74C
:103E200002980A9017981D990D9A891A884203DA08
:103E3000FFE71798019004E01D980D99401A019032
:103E4000FFE701980990002008900C980790FFE781
:103E500007980A99884239DAFFE70B980690FFE73E
:103E60000698099988422CDAFFE71F9A129806995A
:103E70000D9B01EB030C07990F9B19441D9B01FB44
:103E800003C100FB01200590089878B9FFE72A9A42
:103E90000599129825922491239025982499239A84
:103EA000FCF753FA08980130089005E02A98059924
:103EB000129A05F087FEFFE7FFE7069801300690AB
:103EC000CEE7FFE7079801300790C1E712992A98DB
:103ED00008442A90FFE719990D9808440D900E9810
:103EE00001300E9069E7FFE71A990F9808440F9088
:103EF00010980130109054E711981B991C9A514367
:103F0000129A5143149A139B05F084FD002026B0A9
:103F100080BD0000B0B5ADF5547D94468E46044694
:103F2000DE98DD98DC98DB99DA9AD99DD89D489483
:103F3000CDF81CE1ADF81AC14593ADF81221ADF8EA
:103F40001011ADF80E01DE98BDF81A110844429028
:103F5000DD984190BDF81A014008ADF8020148987B
:103F60003F90FFE7BDF80201002800F0AF83FFE7B4
:103F700047983E903E98BDF80E1100EB41003D90F1
:103F80003F98BDF80E1108443C9000203B903A90B9
:103F900039903890419888B1FFE7419800683B908C
:103FA0004198011D419100683A904198006839900C
:103FB0004198011D419100683890FFE7BDF80E015E
:103FC0008008ADF8DE00FFE7BDF8DE00002800F055
:103FD000E380FFE73EA85890589800680068579023
:103FE0005899086804300860579832903DA8569058
:103FF0005698006800685590569908680430086023
:10400000559831903F986A9036A8699035A8689085
:104010006AA87E907E98006800687D907E99086806
:10402000043008607D98679067988490082083909A
:10403000839800F01F008390839818B9FFE7849855
:10404000859004E084988399C8418590FFE785981E
:104050002FFA80F0669067982FFA80F06590BDF88F
:104060009A11BDF8960140EA014068990860BDF8D0
:104070009401669940EA0140699908606A983F9006
:104080003C98649034A8639033A8629064A88090B0
:104090008098006800687F90809908680430086004
:1040A0007F9861906198879008208690869800F0AC
:1040B0001F008690869818B9FFE78798889004E0DB
:1040C00087988699C8418890FFE788982FFA80F0F2
:1040D000609061982FFA80F05F90BDF88211BDF872
:1040E0007E0140EA014062990860BDF87C01609958
:1040F00040EA01406399086064983C903698329990
:104100003B9A20FB01203B90369831993A9A20FB4C
:1041100001203A9034983299399A20FB0120399045
:1041200034983199389A20FB012038903EA8549059
:1041300054980068006853905499086804300860E7
:10414000539832903DA85290529800680068519060
:104150005299086804300860519831903598329926
:104160003B9A20FB01203B90359831993A9A20FBED
:1041700001203A9033983299399A20FB01203990E6
:1041800033983199389A20FB01203890BDF8DE0031
:104190000138ADF8DE0017E7BDF80E0100F00300AE
:1041A000ADF8DE00FFE7BDF8DE0000283ED0FFE7F7
:1041B0003F98411C3F9100788DF8C3003E98811CC8
:1041C0003E910088ADF8C0003C98411C3C910078BD
:1041D0008DF8BF003D98811C3D910088ADF8BC0072
:1041E0009DF9C300BDF9C0103B9A10FB01203B9024
:1041F0009DF9C300BDF9BC103A9A10FB01203A901A
:104200009DF9BF00BDF9C010399A10FB012039900B
:104210009DF9BF00BDF9BC10389A10FB0120389001
:10422000BDF8DE000138ADF8DE00BCE73B9AD89857
:104230000168459800687C927B917A907C982390E5
:104240007A98012803DBFFE77A98229002E00020A9
:104250002290FFE72398229A0121914041437B98C5
:10426000B591B4900020B3904FF08041B091B190DF
:10427000B098B199B59AB49BC2FB0301B191B090CB
:10428000B098B199C00F40EA4100B390B398219023
:104290007A98012803DBFFE70020209003E07A985A
:1042A00040422090FFE72199209891919090002022
:1042B0008F9090990120884001388E908E98919926
:1042C00008408D909198909908418F908E98401059
:1042D0008C908F98B0F1FF3F04DCFFE78C980130A1
:1042E0008C90FFE78D988C99884204DDFFE78F98CA
:1042F00001308F90FFE78F983B90D9993B98084405
:104300003B903B98BDF91211884203DDFFE73B98D3
:104310001F9003E0BDF912011F90FFE71F983B902B
:104320003B98BDF91011884203DAFFE73B981E90D5
:1043300003E0BDF910011E90FFE71E983B903B98EB
:10434000DE994A1CDE9208703A9AD898016845981E
:10435000006879927891779079981D9077980128E4
:1043600003DBFFE777981C9002E000201C90FFE73A
:104370001D981C9A0121914041437898BB91BA90B5
:104380000020B9904FF08041B691B790B698B79998
:10439000BB9ABA9BC2FB0301B791B690B698B79986
:1043A000C00F40EA4100B990B9981B907798012856
:1043B00003DBFFE700201A9003E0779840421A9051
:1043C000FFE71B991A9897919690002095909699DF
:1043D00001208840013894909498979908409390D0
:1043E0009798969908419590949840109290959836
:1043F000B0F1FF3F04DCFFE7929801309290FFE7B5
:1044000093989299884204DDFFE795980130959042
:10441000FFE795983A90D9993A9808443A903A9893
:10442000BDF91211884203DDFFE73A98199003E0C5
:10443000BDF912011990FFE719983A903A98BDF921
:104440001011884203DAFFE73A98189003E0BDF9AB
:1044500010011890FFE718983A903A9842994A1C30
:1044600042920870D8980430D8904598043045900E
:10447000399AD89801684598006876927591749039
:10448000769817907498012803DBFFE774981690CC
:1044900002E000201690FFE71798169A012191403C
:1044A00041437598C191C0900020BF904FF080416A
:1044B000BC91BD90BC98BD99C19AC09BC2FB030141
:1044C000BD91BC90BC98BD99C00F40EA4100BF901F
:1044D000BF9815907498012803DBFFE70020149023
:1044E00003E0749840421490FFE7159914989D9149
:1044F0009C9000209B909C990120884001389A90C4
:104500009A989D99084099909D989C9908419B90F4
:104510009A98401098909B98B0F1FF3F04DCFFE719
:10452000989801309890FFE799989899884204DD0F
:10453000FFE79B9801309B90FFE79B983990D999B2
:104540003998084439903998BDF91211884203DD31
:10455000FFE73998139003E0BDF912011390FFE7CC
:10456000139839903998BDF91011884203DAFFE7A2
:104570003998129003E0BDF910011290FFE71298EC
:1045800039903998DE994A1CDE920870389AD8988A
:1045900001684598006873927291719073981190B8
:1045A0007198012803DBFFE77198109002E000206A
:1045B0001090FFE71198109A0121914041437298A1
:1045C000C791C6900020C5904FF08041C291C39022
:1045D000C298C399C79AC69BC2FB0301C391C290FC
:1045E000C298C399C00F40EA4100C590C5980F908A
:1045F0007198012803DBFFE700200E9003E071981B
:1046000040420E90FFE70F990E98A391A2900020D0
:10461000A190A299012088400138A090A098A39968
:1046200008409F90A398A2990841A190A09840109B
:104630009E90A198B0F1FF3F04DCFFE79E98013007
:104640009E90FFE79F989E99884204DDFFE7A1981E
:104650000130A190FFE7A1983890D9993898084483
:1046600038903898BDF91211884203DDFFE7389879
:104670000D9003E0BDF912010D90FFE70D98389001
:104680003898BDF91011884203DAFFE738980C908A
:1046900003E0BDF910010C90FFE70C9838903898B2
:1046A00042994A1C42920870D8980430D890459894
:1046B00004304590BDF80E113F9808443F90BDF876
:1046C00002010138ADF80201FFF74CBCBDF81A0138
:1046D000C007002800F00682FFE747982E902E982A
:1046E000BDF80E1100EB41002D9000202C902B9076
:1046F000419848B1FFE7419800682C904198011D0E
:10470000419100682B90FFE7BDF80E018008ADF8DD
:10471000AA00FFE7BDF8AA00002800F08D80FFE79F
:104720002EA850905098006800684F9050990868E3
:10473000043008604F9827902DA84E904E9800683E
:1047400000684D904E990868043008604D98269096
:104750003F985E9029A85D9028A85C905EA8829002
:104760008298006800688190829908680430086027
:1047700081985B905B988A9008208990899800F0D6
:104780001F008990899818B9FFE78A988B9004E0F8
:104790008A988999C8418B90FFE78B982FFA80F00F
:1047A0005A905B982FFA80F05990BDF86A11BDF8C5
:1047B000660140EA01405C990860BDF864015A99BD
:1047C00040EA01405D9908605E983F9029982799DA
:1047D0002C9A20FB01202C90299826992B9A20FBBB
:1047E00001202B902EA84C904C98006800684B90AC
:1047F0004C990868043008604B9827902DA84A907F
:104800004A980068006849904A990868043008602E
:1048100049982690289827992C9A20FB01202C90C3
:10482000289826992B9A20FB01202B90BDF8AA00EE
:104830000138ADF8AA006DE7BDF80E0100F00300E5
:10484000ADF8AA00FFE7BDF8AA0040B3FFE73F9824
:10485000411C3F9100788DF897002E98811C2E9175
:104860000088ADF894002D98811C2D910088ADF83A
:1048700092009DF99700BDF994102C9A10FB01202D
:104880002C909DF99700BDF992102B9A10FB0120F6
:104890002B90BDF8AA000138ADF8AA00D3E72C9AF6
:1048A000D89801684598006870926F916E907098E2
:1048B0000B906E98012803DBFFE76E980A9002E0E8
:1048C00000200A90FFE70B980A9A0121914041438A
:1048D0006F98CD91CC900020CB904FF08041C89143
:1048E000C990C898C999CD9ACC9BC2FB0301C991C4
:1048F000C890C898C999C00F40EA4100CB90CB98A6
:1049000009906E98012803DBFFE70020089003E080
:104910006E9840420890FFE709990898A991A890DD
:104920000020A790A899012088400138A690A69859
:10493000A9990840A590A998A8990841A790A69878
:104940004010A490A798B0F1FF3F04DCFFE7A498C3
:104950000130A490FFE7A598A499884204DDFFE701
:10496000A7980130A790FFE7A7982C90D9992C9889
:1049700008442C902C98BDF91211884203DDFFE702
:104980002C98079003E0BDF912010790FFE7079804
:104990002C902C98BDF91011884203DAFFE72C986F
:1049A000069003E0BDF910010690FFE706982C90F1
:1049B0002C98DE994A1CDE9208702B9AD8980168D0
:1049C000459800686D926C916B906D9805906B980E
:1049D000012803DBFFE76B98049002E000200490BD
:1049E000FFE70598049A0121914041436C98D391C7
:1049F000D2900020D1904FF08041CE91CF90CE98B0
:104A0000CF99D39AD29BC2FB0301CF91CE90CE987F
:104A1000CF99C00F40EA4100D190D19803906B9894
:104A2000012803DBFFE70020029003E06B9840427F
:104A30000290FFE703990298AF91AE900020AD90ED
:104A4000AE99012088400138AC90AC98AF990840ED
:104A5000AB90AF98AE990841AD90AC984010AA9039
:104A6000AD98B0F1FF3F04DCFFE7AA980130AA90AF
:104A7000FFE7AB98AA99884204DDFFE7AD980130C3
:104A8000AD90FFE7AD982B90D9992B9808442B90C7
:104A90002B98BDF91211884203DDFFE72B98019096
:104AA00003E0BDF912010190FFE701982B902B98CC
:104AB000BDF91011884203DAFFE72B98009003E05C
:104AC000BDF910010090FFE700982B902B984299B8
:104AD0004A1C42920870D8980430D8904598043007
:104AE0004590FFE7BDF81A11DE980844DE90DE9885
:104AF0000DF5547DB0BD0000ADF5B86DDDF8E4C531
:104B0000DDF8E0C5DDF8DCC5DDF8D8C5DDF8D4C5D5
:104B1000DDF8D0C5DDF8CCC5DDF8C8C5DDF8C4C505
:104B2000DDF8C0C55690559154925393DDF8E405D5
:104B3000DDF8D015884205DAFFE7FF208DF85F0128
:104B400001F0A3BDDDF8D00504385290DDF8E4058E
:104B50000438519000205090FFE75098DDF8CC15B4
:104B60000239884201F36884FFE756984F905398C2
:104B70004E9000204D904C904B90FFE74B98DDF805
:104B8000D015884214DAFFE755984B9941564D9855
:104B900008444D9055984B99DDF8D0251144415665
:104BA0004C9808444C90FFE74B9801304B90E5E758
:104BB000DDF8D4154D9848434D90DDF8D4154C9848
:104BC00048434C90549880B1FFE75498509950F85E
:104BD00021104D9808444D905498509900EB810055
:104BE00041684C9808444C90FFE7DDF8C805401038
:104BF0004A90FFE74A98002800F07E87FFE7559823
:104C000049904D9848904C9847904D9846904C98B4
:104C1000459000204490FFE74498DDF8D015103906
:104C2000884200F33783FFE749A87F907F980068A8
:104C300000687E907F990868043008607E984290F2
:104C400042982FFA80F041904FA87D907D9800689F
:104C500000687C907D990868043008607C984390D7
:104C600043982FFA80F040904998529908449D90BB
:104C70009D9800689C909C983F904298CDF81404B1
:104C80000820CDF81004DDF8100400F01F00CDF866
:104C90001004DDF8100428B9FFE7DDF81404CDF89E
:104CA000180407E0DDF81404DDF81014C841CDF84D
:104CB0001804FFE7DDF818042FFA80F042904398BB
:104CC000CDF808040820CDF80404DDF8040400F051
:104CD0001F00CDF80404DDF8040428B9FFE7DDF86F
:104CE0000804CDF80C0407E0DDF80804DDF804142E
:104CF000C841CDF80C04FFE7DDF80C042FFA80F072
:104D0000439040984199489A20FB012048903F9851
:104D10002FFA80F03E9043984299489A20FB012058
:104D200048903F98FF900820FE90FE9800F01F00EA
:104D3000FE90FE9820B9FFE7FF98CDF8000405E04B
:104D4000FF98FE99C841CDF80004FFE7DDF80004A4
:104D50002FFA80F03F9040983E99479A20FB01201F
:104D6000479043983F99479A20FB012047904F98DE
:104D7000519908449B909B9800689A909A98439008
:104D800043982FFA80F040904398FC900820FB90C5
:104D9000FB9800F01F00FB90FB9818B9FFE7FC9808
:104DA000FD9004E0FC98FB99C841FD90FFE7FD9859
:104DB0002FFA80F0439040984199469A20FB0120B9
:104DC000469040983E99459A20FB01204590439893
:104DD0004299469A20FB0120469049A87B907B98F7
:104DE000006800687A907B990868043008607A98B7
:104DF000429043983F99459A20FB0120459049985D
:104E000052990844999099980068989098983F9082
:104E100042982FFA80F041904FA8799079980068D5
:104E20000068789079990868043008607898439011
:104E300043982FFA80F040904298F9900820F8901B
:104E4000F89800F01F00F890F89818B9FFE7F99863
:104E5000FA9004E0F998F899C841FA90FFE7FA98B7
:104E60002FFA80F042904398F6900820F590F5983C
:104E700000F01F00F590F59818B9FFE7F698F79045
:104E800004E0F698F599C841F790FFE7F7982FFAF4
:104E900080F0439040984199489A20FB0120489027
:104EA0003F982FFA80F03E9043984299489A20FB11
:104EB000012048903F98F3900820F290F29800F07B
:104EC0001F00F290F29818B9FFE7F398F49004E00D
:104ED000F398F299C841F490FFE7F4982FFA80F024
:104EE0003F9040983E99479A20FB01204790439875
:104EF0003F99479A20FB012047904F9851990844C9
:104F000097909798006896909698439043982FFAB8
:104F100080F040904398F0900820EF90EF9800F0D8
:104F20001F00EF90EF9818B9FFE7F098F19004E0B8
:104F3000F098EF99C841F190FFE7F1982FFA80F0CF
:104F4000439040984199469A20FB01204690409812
:104F50003E99459A20FB0120459043984299469AF4
:104F600020FB0120469049A8779077980068006858
:104F70007690779908680430086076984290439854
:104F80003F99459A20FB0120459049985299084441
:104F9000959095980068949094983F9042982FFA35
:104FA00080F041904FA875907598006800687490E3
:104FB00075990868043008607498439043982FFAF4
:104FC00080F040904298ED900820EC90EC9800F032
:104FD0001F00EC90EC9818B9FFE7ED98EE9004E014
:104FE000ED98EC99C841EE90FFE7EE982FFA80F02B
:104FF00042904398EA900820E990E99800F01F0059
:10500000E990E99818B9FFE7EA98EB9004E0EA988C
:10501000E999C841EB90FFE7EB982FFA80F04390B5
:1050200040984199489A20FB012048903F982FFAD8
:1050300080F03E9043984299489A20FB0120489086
:105040003F98E7900820E690E69800F01F00E69071
:10505000E69818B9FFE7E798E89004E0E798E69942
:10506000C841E890FFE7E8982FFA80F03F90409819
:105070003E99479A20FB0120479043983F99479AD1
:1050800020FB012047904F985199084493909398A2
:10509000006892909298439043982FFA80F0409045
:1050A0004398E4900820E390E39800F01F00E39019
:1050B000E39818B9FFE7E498E59004E0E498E399F1
:1050C000C841E590FFE7E5982FFA80F043904098BB
:1050D0004199469A20FB0120469040983E99459A76
:1050E00020FB0120459043984299469A20FB0120DD
:1050F000469049A8739073980068006872907399FD
:105100000868043008607298429043983F99459A25
:1051100020FB01204590499852990844919091981C
:105120000068909090983F9042982FFA80F04190BC
:105130004FA8719071980068006870907199086824
:10514000043008607098439043982FFA80F04090A4
:105150004298E1900820E090E09800F01F00E09075
:10516000E09818B9FFE7E198E29004E0E198E0994F
:10517000C841E290FFE7E2982FFA80F0429043980E
:10518000DE900820DD90DD9800F01F00DD90DD98B6
:1051900018B9FFE7DE98DF9004E0DE98DD99C8419A
:1051A000DF90FFE7DF982FFA80F043904098419915
:1051B000489A20FB012048903F982FFA80F03E90BB
:1051C00043984299489A20FB012048903F98DB90F1
:1051D0000820DA90DA9800F01F00DA90DA9818B90F
:1051E000FFE7DB98DC9004E0DB98DA99C841DC90BB
:1051F000FFE7DC982FFA80F03F9040983E99479A5D
:1052000020FB0120479043983F99479A20FB0120BB
:1052100047904F98519908448F908F9800688E90CE
:105220008E98439043982FFA80F040904398D890FE
:105230000820D790D79800F01F00D790D79818B9BA
:10524000FFE7D898D99004E0D898D799C841D99069
:10525000FFE7D9982FFA80F0439040984199469AF9
:1052600020FB0120469040983E99459A20FB012062
:10527000459043984299469A20FB012046904398D6
:105280003F99459A20FB01204590FFE74498103054
:105290004490C1E4FFE74498DDF8D0150439884212
:1052A00000F3CC80FFE749A86F906F980068006812
:1052B0006E906F990868043008606E98429042982A
:1052C0002FFA80F041904FA86D906D9800680068AB
:1052D0006C906D990868043008606C98439043980E
:1052E0002FFA80F040904998529908448D908D98FB
:1052F00000688C908C983F904298D5900820D4906C
:10530000D49800F01F00D490D49818B9FFE7D5982E
:10531000D69004E0D598D499C841D690FFE7D698A6
:105320002FFA80F042904398D2900820D190D198E3
:1053300000F01F00D190D19818B9FFE7D298D39010
:1053400004E0D298D199C841D390FFE7D3982FFABF
:1053500080F0439040984199489A20FB0120489062
:105360003F982FFA80F03E9043984299489A20FB4C
:10537000012048903F98CF900820CE90CE9800F022
:105380001F00CE90CE9818B9FFE7CF98D09004E0D8
:10539000CF98CE99C841D090FFE7D0982FFA80F0EF
:1053A0003F9040983E99479A20FB012047904398B0
:1053B0003F99479A20FB012047904F985199084404
:1053C0008B908B9800688A908A98439043982FFA24
:1053D00080F040904398CC900820CB90CB9800F080
:1053E0001F00CB90CB9818B9FFE7CC98CD9004E084
:1053F000CC98CB99C841CD90FFE7CD982FFA80F09B
:10540000439040984199469A20FB0120469040984D
:105410003E99459A20FB0120459043984299469A2F
:1054200020FB0120469043983F99459A20FB01209C
:105430004590FFE74498043044902CE7FFE74498F8
:10544000DDF8D01588423FDAFFE7499800788DF8FB
:10545000F7004998DDF8D015405C8DF8F6004F98BC
:1054600000788DF8F5009DF9F5009DF9F710489A40
:1054700010FB012048909DF9F5009DF9F610479A20
:1054800010FB012047904F98DDF8E415405C8DF843
:10549000F5009DF9F5009DF9F710469A10FB0120E3
:1054A00046909DF9F5009DF9F610459A10FB0120F4
:1054B00045904998013049904F9801304F90FFE74F
:1054C000449801304490BAE7489ADDF8C005509BF3
:1054D00050F82310DDF8C40550F82300CDF86C24F3
:1054E000CDF86814CDF86404DDF86C042990DDF87B
:1054F0006404012804DBFFE7DDF86404289002E07F
:1055000000202890FFE72998289A012191404143E3
:10551000DDF86804CDF82C15CDF828050020CDF86D
:1055200024054FF08041CDF81815CDF81C05DDF8A5
:105530001805DDF81C15DDF82C25DDF82835C2FB33
:105540000301CDF81C15CDF81805DDF81805DDF8B8
:105550001C15C00F40EA4100CDF82405DDF82405F4
:105560002790DDF86404012803DBFFE70020269084
:1055700004E0DDF8640440422690FFE7279926986E
:10558000CDF88414CDF880040020CDF87C04DDF83B
:105590008014012088400138CDF87804DDF87804C3
:1055A000DDF884140840CDF87404DDF88404DDF8D7
:1055B00080140841CDF87C04DDF878044010CDF863
:1055C0007004DDF87C04B0F1FF3F06DCFFE7DDF896
:1055D00070040130CDF87004FFE7DDF87404DDF8E5
:1055E0007014884206DDFFE7DDF87C040130CDF859
:1055F0007C04FFE7DDF87C044890479ADDF8C0059D
:1056000050994B1C50F82310DDF8C40550F82300C6
:10561000CDF86024CDF85C14CDF85804DDF86004B2
:105620002590DDF85804012804DBFFE7DDF8580475
:10563000249002E000202490FFE72598249A01217D
:1056400091404143DDF85C04CDF84415CDF84005A8
:105650000020CDF83C054FF08041CDF83015CDF855
:105660003405DDF83005DDF83415DDF84425DDF8C6
:105670004035C2FB0301CDF83415CDF83005DDF817
:105680003005DDF83415C00F40EA4100CDF83C0587
:10569000DDF83C052390DDF85804012803DBFFE723
:1056A0000020229004E0DDF8580440422290FFE7F9
:1056B00023992298CDF89C14CDF898040020CDF8B9
:1056C0009404DDF89814012088400138CDF8900446
:1056D000DDF89004DDF89C140840CDF88C04DDF86A
:1056E0009C04DDF898140841CDF89404DDF890048A
:1056F0004010CDF88804DDF89404B0F1FF3F06DCDB
:10570000FFE7DDF888040130CDF88804FFE7DDF815
:105710008C04DDF88814884206DDFFE7DDF8940488
:105720000130CDF89404FFE7DDF894044790469AE1
:10573000DDF8C005509B50F82310DDF8C40550F883
:105740002300CDF85424CDF85014CDF84C04DDF8E6
:1057500054042190DDF84C04012804DBFFE7DDF858
:105760004C04209002E000202090FFE72198209A2E
:10577000012191404143DDF85004CDF85C15CDF88E
:1057800058050020CDF854054FF08041CDF848155C
:10579000CDF84C05DDF84805DDF84C15DDF85C2545
:1057A000DDF85835C2FB0301CDF84C15CDF848059E
:1057B000DDF84805DDF84C15C00F40EA4100CDF892
:1057C0005405DDF854051F90DDF84C04012803DB77
:1057D000FFE700201E9004E0DDF84C0440421E90DC
:1057E000FFE71F991E98CDF8B414CDF8B00400203F
:1057F000CDF8AC04DDF8B014012088400138CDF8B4
:10580000A804DDF8A804DDF8B4140840CDF8A40419
:10581000DDF8B404DDF8B0140841CDF8AC04DDF8CF
:10582000A8044010CDF8A004DDF8AC04B0F1FF3FAF
:1058300006DCFFE7DDF8A0040130CDF8A004FFE7A7
:10584000DDF8A404DDF8A014884206DDFFE7DDF8EA
:10585000AC040130CDF8AC04FFE7DDF8AC044690B1
:10586000459ADDF8C00550994B1C50F82310DDF81F
:10587000C40550F82300CDF84824CDF84414CDF8E1
:105880004004DDF848041D90DDF84004012804DBE5
:10589000FFE7DDF840041C9002E000201C90FFE7C9
:1058A0001D981C9A012191404143DDF84404CDF834
:1058B0007415CDF870050020CDF86C054FF08041CF
:1058C000CDF86015CDF86405DDF86005DDF86415E8
:1058D000DDF87425DDF87035C2FB0301CDF86415E1
:1058E000CDF86005DDF86005DDF86415C00F40EA0D
:1058F0004100CDF86C05DDF86C051B90DDF8400427
:10590000012803DBFFE700201A9004E0DDF84004E3
:1059100040421A90FFE71B991A98CDF8CC14CDF8A5
:10592000C8040020CDF8C404DDF8C8140120884064
:105930000138CDF8C004DDF8C004DDF8CC1408400F
:10594000CDF8BC04DDF8CC04DDF8C8140841CDF86E
:10595000C404DDF8C0044010CDF8B804DDF8C40478
:10596000B0F1FF3F06DCFFE7DDF8B8040130CDF809
:10597000B804FFE7DDF8BC04DDF8B814884206DDA2
:10598000FFE7DDF8C4040130CDF8C404FFE7DDF81B
:10599000C4044590DDF8D815489808444890DDF8CF
:1059A000D815479808444790DDF8D815469808441C
:1059B0004690DDF8D8154598084445904898DDF89C
:1059C000DC15884203DDFFE74898199003E0DDF815
:1059D000DC051990FFE7199848904898DDF8E01524
:1059E000884203DAFFE74898189003E0DDF8E00505
:1059F0001890FFE7189848904798DDF8DC15884222
:105A000003DDFFE74798179003E0DDF8DC0517900A
:105A1000FFE7179847904798DDF8E015884203DACA
:105A2000FFE74798169003E0DDF8E0051690FFE7E2
:105A3000169847904698DDF8DC15884203DDFFE7AD
:105A40004698159003E0DDF8DC051590FFE7159802
:105A500046904698DDF8E015884203DAFFE746985D
:105A6000149003E0DDF8E0051490FFE714984690E9
:105A70004598DDF8DC15884203DDFFE74598139073
:105A800003E0DDF8DC051390FFE713984590459897
:105A9000DDF8E015884203DAFFE74598129003E04D
:105AA000DDF8E0051290FFE71298459048984E996E
:105AB000087047984E994870DDF8CC154E98084408
:105AC0004E9046984E99087045984E994870DDF86A
:105AD000CC154E9808444E90DDF8D0154F98401ADA
