:020000040800F2
:10000000205600209D010008570F00082F0E000801
:10001000550F00087F030008891100080000000048
:100020000000000000000000000000005B0F00085E
:10003000E103000800000000590F00085D0F0008F0
:10004000B7010008B7010008B7010008B7010008B0
:10005000B7010008B7010008B7010008B7010008A0
:10006000B7010008B7010008B7010008B701000890
:10007000B7010008B7010008B7010008B701000880
:10008000B7010008B7010008B7010008B701000870
:10009000B7010008B7010008B7010008B701000860
:1000A000B7010008B7010008B7010008B701000850
:1000B000B7010008B7010008B7010008B701000840
:1000C000B7010008B7010008B7010008B701000830
:1000D000B7010008B7010008B7010008B701000820
:1000E000B7010008B7010008B7010008B701000810
:1000F000B7010008B7010008B7010008B701000800
:10010000B7010008B7010008B7010008B7010008EF
:10011000B7010008B7010008B7010008B7010008DF
:10012000B7010008B7010008B7010008B7010008CF
:10013000B7010008B7010008B7010008B7010008BF
:10014000B7010008B7010008B7010008B7010008AF
:10015000B7010008B7010008B7010008B70100089F
:10016000B7010008B7010008B7010008B70100088F
:10017000B7010008B7010008B7010008000000003F
:10018000B7010008B7010008DFF80CD000F0BAF89A
:10019000004800475D45000820560020064880477B
:1001A00006480047FEE7FEE7FEE7FEE7FEE7FEE75C
:1001B000FEE7FEE7FEE7FEE7F50F0008890100080D
:1001C0002DE9F05F0546002092469B46884606468C
:1001D000814640241BE0284641464746224600F01F
:1001E00081F853465A46C01A914110D31146184619
:1001F000224600F068F82D1A67EB01084F462246A8
:100200000120002100F05FF817EB00094E41201E8D
:10021000A4F10104DFDC484631462A464346BDE8E6
:10022000F09F40EA01039B0703D009E008C9121FB1
:1002300008C0042AFAD203E011F8013B00F8013BA0
:10024000521EF9D27047D2B201E000F8012B491ECC
:10025000FBD270470022F6E710B513460A46044663
:100260001946FFF7F0FF204610BD30B504460020C8
:10027000034600E05B1C934203D2E05CCD5C401B74
:10028000F8D030BD10B500F0004420F00040C20DA1
:10029000C0F3160040F400007F2A02DA0020014675
:1002A00010BD0021962A03DCC2F19602D04002E084
:1002B000963A00F008F8002CF2D00023D0EB0300AF
:1002C00063EB010110BD202A04DB203A00FA02F1A1
:1002D000002070479140C2F1200320FA03F3194334
:1002E00090407047202A04DB203A21FA02F00021D6
:1002F000704721FA02F3D040C2F120029140084336
:1003000019467047064C074D06E0E06840F00103CF
:1003100094E8070098471034AC42F6D3FFF738FF53
:10032000B4510108D451010870B58C1810F8015B64
:1003300015F0070301D110F8013B2A1106D110F87E
:10034000012B03E010F8016B01F8016B5B1EF9D182
:100350002B0705D40023521E0DD401F8013BFAE708
:1003600010F8013BCB1A921C03E013F8015B01F873
:10037000015B521EF9D5A142D8D3002070BDFEE723
:1003800010B501F078FB11490968114BC1F3022146
:10039000104A012404290BD00F490C600C68002C72
:1003A000FCD10D4908390B60096891420AD0FEE77B
:1003B0000A498C608C68002CFCD10B600968914262
:1003C00000D0FEE701F0CAFB10BD0000002004E0F1
:1003D000C2A507F4CDB5E8B5084C0258003002407C
:1003E000704772B6FEE710B5040002D0607910B114
:1003F00006E0012010BD00202071204600F004F826
:1004000001206071002010BD08B5006806498842CF
:1004100008D10648016841F480510160006800F489
:100420008050009008BD000000300240303802408B
:100430002DE9F84FDFF8BCA10022012503264FF07B
:100440000F090AF1040BAAF1040E00BF0B6805FAAC
:1004500002F42340A34270D10F7907F00307012F64
:1004600001D0022F16D187684FEA420806FA08FC2D
:1004700027EA0C07D1F80CC00CFA08FC4CEA070C70
:10048000C0F808C04768A7430C79C4F3001494402F
:100490003C4344600C79E443A4070AD0C4684FEAA3
:1004A000420C06FA0CF7BC438F6807FA0CF7274397
:1004B000C7600C7904F00304022C12D1D40800EBBD
:1004C000840CDCF820405707FF0E09FA07F824EAED
:1004D0000804D1F8108008FA07F848EA0408CCF8B4
:1004E000208004684FEA420C06FA0CF7BC430F79EF
:1004F00007F0030707FA0CF7274307604C6814F46A
:10050000403F70D03C4C276847F480472760246800
:1005100022F0030704F480440094384C07EB040CE9
:10052000DCF8084897074FEA177809FA08F7BC4340
:10053000334FB84202D1002724E054E0314FB84293
:1005400001D101271EE0304FB84201D1022719E046
:100550002E4FB84201D1032714E02D4FB84201D1EC
:1005600004270FE02B4FB84201D105270AE02A4F9C
:10057000B84201D1062705E0284FB84201D107272C
:1005800000E0082707FA08F72743CCF80878DAF8DC
:1005900000405746D1F804C09C435FEACC2C00D5FC
:1005A0001C433C60DBF800405F46D1F804C09C432C
:1005B0005FEA8C2C00D51C433C60DEF80040774697
:1005C000D1F804C09C435FEA8C3C00D51C433C60DE
:1005D000084F083F3C68D1F804C09C435FEACC3C1C
:1005E00000D51C433C60521C102AFFF42FAFBDE81D
:1005F000F88F0000083C01404438024000300140C0
:10060000000002400004024000080240000C0240CA
:10061000001002400014024000180240001C02407A
:100620000148806870470000442800200248816823
:100630000278114481607047442800200B4810B5AF
:10064000016841F400710160016841F4806101605A
:10065000016841F480710160032000F061F80F200F
:1006600000F006F800F024F8002010BD003C024025
:1006700070B50D4D04464FF47A712878B1FBF0F057
:100680000A490968B1FBF0F000F0FCFA48B9102CF7
:1006900007D200222146501E00F022F800206C6094
:1006A00070BD012070BD00004428002050280020AB
:1006B0000A4808B5016841F480410160006800F40F
:1006C000804000900548001F016841F080510160A2
:1006D000006800F08050009008BD000044380240DF
:1006E000F0B40E4B1B680C46C3F30223C3F107059D
:1006F000042D00D90425191D072901D2002300E08B
:10070000DB1E012606FA05F1491E214099409E4054
:10071000761E16403143F0BC00F05BBD0CED00E0EE
:10072000064900F0070208684FF6FF03184040EA48
:100730000220034A10430860704700000CED00E0FF
:100740000000FA052DE9F0470E46050065D0DFF8F8
:100750001481D8F80000F7B200F00700B04207D2C9
:1007600088F80070D8F8000000F00700B04254D1BB
:1007700028683D4C810712D5400703D5206840F416
:10078000E05020602878000703D5206840F46040DE
:1007900020602068A96820F0F000084320602878D5
:1007A000C0072DD0304968680839012812D00228C6
:1007B00013D0032811D00968890700292DDA216890
:1007C00021F0030101432160FFF72AFF814641F236
:1007D000883A0EE009688903EFE709688901ECE7C8
:1007E000FFF71EFFA0EB0901514502D90320BDE828
:1007F000F0872068696800F00C00B0EB810FEFD142
:10080000D8F80010404601F00701B14207D907703F
:10081000006800F00700B04201D00120E7E7287827
:10082000400705D52068E96820F4E05008432060BF
:100830002878000706D52068296920F4604040EA3E
:10084000C100206000F038F82168084AC1F30311A4
:10085000515CC8400649086006480068FFF708FF79
:100860000020C4E7003C024008380240C04F0108A5
:1008700050280020482800200448054900680968DD
:10088000044AC1F38221515CC840704750280020BF
:1008900008380240D04F010804480549006809683B
:1008A000044AC1F34231515CC840704750280020CF
:1008B00008380240D04F0108154810B5006810F004
:1008C0000C02144813D04110042A0FD0082A0ED16C
:1008D0000F4C241F2268236802F03F025B0207D5F9
:1008E0002068C0F38810A0FB010106E0084610BD97
:1008F0002168C1F38811A1FB00010023FFF760FC10
:100900002168C1F30141491C4900B0FBF1F010BD61
:10091000083802400024F4002DE9F84F04006ED09E
:100920002078DFF84C93C007A9F104054AD009F1FB
:1009300004000168C1F38101012908D00068C0F3F7
:10094000810002280AD1D9F80000400206D52868A3
:10095000800337D560680028E1D033E06068B0F5E7
:10096000803F10D0B0F5A02F286810D020F4803040
:100970002860286820F4802028606068A8B1FFF70C
:100980004FFE06460DE0286840F48030F4E740F45E
:1009900080202860F7E700BFFFF742FE801B642835
:1009A00073D828688003F7D50CE0FFF739FE0646B8
:1009B00005E000BFFFF734FE801B6428F0D82868EC
:1009C0008003F7D42078DFF8AC8280074FF0000A6C
:1009D0003ED5A748001D016811F00C0F08D0006833
:1009E000C0F3810002280BD1D9F80000400207D4DF
:1009F0002868800716D5E068012800D112E033E1AD
:100A0000E068B8B10120C8F80000FFF709FE06460B
:100A100005E000BFFFF704FE801B0228C0D828684D
:100A20008007F7D52868216920F0F80040EAC10066
:100A300028600DE0C8F800A0FFF7F2FD064604E0CC
:100A4000FFF7EEFD801B02281FD828688007F7D427
:100A50002078000722D5864F87486169703771B1C9
:100A600001210160FFF7DCFD064604E0FFF7D8FD39
:100A7000801B022809D838688007F7D50EE0C0F837
:100A800000A0FFF7CDFD064605E082E0FFF7C8FDB8
:100A9000801B02287DD838688007F7D4207840076B
:100AA00068D5DFF8CCB100270BF13C0BDBF8000078
:100AB000C0000BD4DBF8001041F08051CBF80010DF
:100AC000DBF80000012700F0805000906B4E30688A
:100AD000C00510D4306840F480703060FFF7A0FD8E
:100AE000009005E0FFF79CFD0099401A022850D8BD
:100AF0003068C005F6D55E4EA0686C3601280FD070
:100B00000528306810D020F001003060306820F0F7
:100B100004003060A068B8B1FFF782FD00900FE0DC
:100B2000306840F00100F4E740F004003060F7E77F
:100B3000FFF776FD0099411A41F28830814266D86C
:100B400030688007F4D50EE0FFF76AFD009007E0FB
:100B5000FFF766FD0099411A41F28830814256D86C
:100B600030688007F4D42FB1DBF8001021F08051F9
:100B7000CBF80010A069C8B33D49091D0968C1F34D
:100B8000810102294AD00228504607D0C8F86000E7
:100B900000E03CE0FFF744FD04463BE04746C8F870
:100BA0006000FFF73DFD064605E000BFFFF738FD9A
:100BB000801B02282BD828688001F7D4D4E90701CC
:100BC0000843A16A2E4A490802EB0141626A41EAE0
:100BD0008211084394F82C1040EA0161C9F8001012
:100BE00001203866FFF71CFD044606E03EE000BF2A
:100BF000FFF716FD001B022809D828688001F7D5E9
:100C000034E000BFFFF70CFD001B022802D90320CF
:100C1000BDE8F88F28688001F4D427E00128F7D0D8
:100C2000D9F80000E26900F4800191421CD1226AE7
:100C300000F03F01914217D147F6C071626A01404E
:100C4000B1EB821F10D1A26A4FF0FF3300F44031A4
:100C500003EB5202B1EB024F06D194F82C1000F0D6
:100C60007060B0EB016F01D00120D1E70020CFE729
:100C70000438024000004742800E474200700040A6
:100C80000000FFFF10B5401EB0F1807F01D30120AE
:100C900010BD4FF0E02460610F21601700F099FA59
:100CA0000020A06107202061002010BD70B5040065
:100CB00004D094F83D00002510B106E0012070BD7D
:100CC00084F83C50204600F023F8242084F83D00AE
:100CD0002068C16821F40051C160204600F092F9FB
:100CE0002068016921F4904101612068416921F087
:100CF0002A0141612068C16841F40051C160256446
:100D0000202084F83D0084F83E00002070BD0000E3
:100D100010B586B0044614216846FFF79BFA1449C3
:100D20002068884221D113480021026842F0100255
:100D30000260006800F0100005900E481438026848
:100D400042F001020260006800F0010005904FF4DB
:100D5000C06000900220CDE901010320039007202C
:100D6000049069460448FFF763FB06B010BD00001D
:100D70000010014044380240000002402DE9F843D1
:100D8000044690F83D001F4616460D4620284CD1DB
:100D9000C5B1BEB194F83C00012846D0012084F8CA
:100DA0003C004FF00008C4F84080212084F83D004A
:100DB000FFF736FCA6848146E684A068B0F5805F24
:100DC00003D004E00120BDE8F883206928B12E4655
:100DD0005FF0000584F83C800EE00026FAE78021F1
:100DE000204600F095F9A0B9AEB116F8010B2168C4
:100DF0004860E08C401EE084E08C4B464FF00002DF
:100E000000970028EBD14FF04001204600F080F918
:100E100030B10320D7E735F8020BC0F30800E6E74E
:100E2000202084F83D000020CDE70220CBE7FEE73C
:100E3000074910B5054808600846FFF7D4FA0028AE
:100E400003D0BDE81040FFF7CCBA10BD003002401F
:100E500024180020094808B5016841F080010160AC
:100E6000016801F080010091016841F00101016019
:100E7000006800F00100009008BD0000303802401A
:100E80000C4810B50A4901604FF4E131416000217E
:100E900081600C22C160C0E904128161C161FFF769
:100EA00005FF002803D0BDE81040FFF79ABA10BD37
:100EB00000100140C04D002010B504A000F066F9FC
:100EC000BDE81040084801F099BC000053746172FD
:100ED00074696E6720496E697469616C697A6174BE
:100EE000696F6E0D0A0000003418002070B50F49BC
:100EF0000F4801F09BFB0A2300210C48BFEE000ABB
:100F00000A4600BF00EB8205D5ED000AF4EEC00AE8
:100F1000F1EE10FA02DDB0EE600A1146521C9A4260
:100F2000F0DBBDE8704003A000F030B94429002098
:100F30004418002054686520696E666572656E63AA
:100F40006520726573756C742069733A2025640D91
:100F50000A000000FEE7FEE770477047FFF766BB38
:100F600030B593B030216846FFF774F914210CA80E
:100F7000FFF770F91D480025016841F080510160BC
:100F8000006800F0805011901948016841F48041D8
:100F900001600068022400F480401190012000905C
:100FA000000401908001CDE9064008AA0420A82190
:100FB00082E813000B906846FFF7AEFC08B172B6EA
:100FC000FEE70CA90F2081E831004FF4A0500F90EC
:100FD0004FF48050109005210CA8FFF7B3FB0028B8
:100FE00001D072B6FEE713B030BD000040380240B9
:100FF000007000400248016841F4700101607047D0
:1010000088ED00E070B5044600680169E26821F4EB
:101010004051114301612169A068E2690843616997
:10102000114308432168CA6849F20C639A4302439A
:10103000CA6020684169A26921F44071114341618D
:1010400031492068884202D03049884202D1FFF7F6
:1010500023FC01E0FFF710FCE2690023192164255D
:101060003226B2F5004F626828D0A0FB0101930F31
:101070009200FFF7A5F80146B0FBF5F06FF01802FB
:10108000504301EB800006EB0010B0FBF5F000F0E0
:10109000F002B1FBF5F002EB0012B1FBF5F06FF0DE
:1010A0001803584301EB800006EB0010B0FBF5F08D
:1010B00000F00F0021681044886070BDA0FB0101A2
:1010C00092185B41FFF77CF80146B0FBF5F0020196
:1010D000B1FBF5F06FF01803584301EB800006EB0D
:1010E000C000B0FBF5F000F0F80002EB4002B1FBED
:1010F000F5F0584301EB800006EBC000B0FBF5F0C3
:1011000000F00700D6E70000001001400014014085
:101110002DE9F041984617460E460446069D27E005
:10112000681C25D02DB1FFF77BFAA0EB0800A84280
:101130001ED920680C3050E8001F21F4D07140E81F
:101140000012002AF5D12068143050E8001F21F069
:10115000010140E80012002AF5D1202084F83D006A
:1011600084F83E00002084F83C000320BDE8F081B4
:101170002068006836EA000004D00020B842CFD0D2
:101180000020F3E70120F9E7FEE700000FB4054B6C
:1011900010B503A9044A029801F016F810BC5DF8D6
:1011A00014FB0000194500085428002041000802E3
:1011B00018BF04200A0E18BF40F001004FF07F4214
:1011C00032EA010108BF40F00200012808BF0520F3
:1011D00070470907090E002804DB00F1E02080F8C1
:1011E0000014704700F00F0000F1E02080F8141D9B
:1011F0007047000010B510EE104A4FF019406849D2
:10120000002200EB44002DED028B884257D8DFED21
:10121000650A14F0004F60EE200A14BFBEEE001AFB
:10122000B6EE001A71EE200AFDEEE00A10EE900A0A
:1012300000EE900AF8EEE00A9FED5B1A00EEC10A9C
:101240009FED5A1A00EEC10ADFED590A9FED591AB7
:1012500000EE201ADFED580A40EE010A9FED571A02
:10126000574B00F0030100EE201A21EE000A7B44E8
:1012700003EB8103D3ED000A524B7B4403EB810364
:1012800093ED001A504B41EE000A7B4403EB8101C1
:10129000801091ED000A70EE800AEABB00EE100AA1
:1012A000B8EEC01ADFED491A9FED490ABDEC028B7A
:1012B00001EE210ABCEEC00A20EE200A10BD4FF05C
:1012C000FF40A0431BD04FF0CE40B0EB440F82BF95
:1012D000B7EE000ABDEC028B10BD3E48B0EB440FE8
:1012E00028BF012293D2022000F0B6FB14F0004F79
:1012F00015D0BDEC028BBDE8104000F095BB14F595
:10130000000F02BF9FED340ABDEC028B10BDBDEC97
:10131000028BBDE8104000E007E000F06FBBBDECC1
:10132000028BBDE8104000F077BB00EBD073591082
:101330004FF07E5202EBC15100EE101AA0EB630099
:1013400002EBC05060EE200A00EE100A20EE208A68
:1013500018EE100A88B118EE100AB0F1FF4F15D040
:1013600018EE100AFFF722FF042808BF00F05CFB0C
:10137000B0EE480ABDEC028B10BD022000F06CFB01
:10138000BDEC028BBDE8104000F04EBB022000F027
:1013900063FBBDEC028BBDE8104000F03DBB0000DC
:1013A0000000501E3BAAB8400070313EF4FD0537E6
:1013B00012BB2A3D12BB2A3EFFFFFF3EFFFF7F3FCD
:1013C000E23D0100E63D0100B63D01000000004B9A
:1013D00000007E4E0000A0850000000010B510EE59
:1013E000100A10EE901AB7EE001A0023A0F50004C0
:1013F0002DED028B4FF0007CB4F1FE4FB0EE418A30
:101400004FF07F420CEB410480F08681B4F1804FB5
:10141000C0F0CB81FE4901449FEDFE3AB1F5005F7B
:1014200040F2AA8200F580214FEAD14C0CF00F0166
:1014300001EE901ACCF3071CACF17F0CA0EBCC5062
:10144000B8EEE12A00EE100A6344DFEDF32AF0EE75
:10145000411A42EE221AF0EE613A30EE232A70EE83
:10146000632A12EE100A00F500606FF30B0001EE24
:10147000900A73EEE13A33EE804AC1EE023A22EE70
:10148000A30A10EE100A00F500606FF30B0000EEE7
:10149000100A40EE612A40EE442A62EEA32A70EE62
:1014A000221A21EEA12ADFEDDD3A02EE233A23EEE5
:1014B000023A20EE012A22EE811A03EE211A32EEC0
:1014C000010A10EE100A00F500606FF30B0000EE49
:1014D000100A72EE401A31EE811ADFEDD11A60EE79
:1014E000211A9FEDD02A20EE020A9FEDCF2A01EEAD
:1014F000020A31EE801A11EE100A00F500606FF357
:101500000B0001EE100AC94871EEC11A71EE802A73
:10151000784400EBC100D0ED001A90ED012A1801CB
:1015200000EE100AB8EEC03A32EE820A30EE010A3E
:1015300030EE210A30EE030A10EE100A00F50060CA
:101540006FF30B0000EE100A30EE433A73EE611AAF
:1015500031EEC11A31EE421A72EEC11A10EE900A43
:1015600000F500606FF30B0001EE100A70EEC12A67
:1015700020EE012A60EE220A31EE220A41EE800AB4
:1015800032EE200A10EE100A00F500606FF30B0037
:1015900000EE100A32EE401A71EE201A70EE210AA7
:1015A000F5EEC00AF1EE10FA34BFBEEE001AB6EE48
:1015B000001A71EE200AFDEEE00A10EE900A011109
:1015C00000EE901AB8EEE01A00EE900AF8EEE00A8B
:1015D00030EE600A30EE210ADFED951ADFED950A54
:1015E00040EE210ADFED941A944900F00F0040EE1E
:1015F000201A21EE800A794401EB8001D1ED000A26
:101600008F49794401EB8001D1ED001A8D4941EEFB
:10161000800A794401EB80008B4990ED000A70EE5E
:10162000800AB0EEC10A10EE100A884215DA10EEF8
:10163000100AB2EB400F10D39FED840A31EE000A7E
:101640009FED831A68EE200ABDEC028B20EE010AA2
:10165000BCEEC00A20EE200A10BD10EE100A7D4933
:10166000884233DA10EE100AB2EB400F2ED3BDEEF3
:10167000C10A68EE200A10EE100A00EBD073591070
:10168000C90501F17E5100EE101AA0EB6300C00500
:1016900060EE200A00F17E5000EE100A60EE808AB3
:1016A00018EE900AB2EB400F25D018EE900A4000D9
:1016B00011D018EE900AFFF779FD042808BF00F05A
:1016C000B3F9B0EE680ABDEC028B10BDB5EEC01ADE
:1016D000F1EE10FA0FD2022000F0BEF900F0A4F9EA
:1016E00010EE101A18EE100ABDEC028B61F31E000A
:1016F00000EE100A10BD022000F0AEF900F08CF9E7
:1017000010EE101A18EE100ABDEC028B61F31E00E9
:1017100000EE100A10BD00BFB4F1804F45D300BFEA
:1017200000F1FF4CBCF1FE4F25D200BFB0EEC00A65
:1017300010EE100AC1F3C75CBCF17F0F0CDBBCF1EB
:10174000970FBFF667AECCF1960C012404FA0CFC9F
:10175000ACF101040C4208D0012000F07DF9BDEC91
:10176000028BBDE8104000F04FB91CEA010F18BF12
:10177000BFEE008A4EE65FEA400C1CBF4FF0807C53
:10178000BCEB400F0BD96FF01A03DFED331A20EEDC
:10179000210A10EE100A10F0004FC7D13AE6A0F56A
:1017A000000CBCF1FE4F22D234E60CEB410CBCF134
:1017B000007F12D3F5EEC00AF1EE10FA06D15FEA0F
:1017C000400C18BFB2EB400F71D8A9E701F00041FF
:1017D00041F0FC5100EE901AA2E7BCF1807F06D2E6
:1017E00010EE90CAACF5000C00EE90CA98E720F01D
:1017F000004C6FF0FF44194A0CEB0403934239D3B9
:1018000021F000431C44944234D3B0F17E5F27E0C2
:10181000001080C0ABAAAA3E0000803D7EE24C3E94
:1018200000B03842D49AB8BB3BAA3842603B0100B2
:10183000FC596337C9FF753A1872313D3A3B0100D4
:101840006E3B0100DE3A01000000FC420000FE4257
:101850000000004B000040430000004DFFFF3F0030
:1018600018BF5FEA410222D0BCF1FF4F98BFB3F12D
:10187000FF4F05D9BDEC028BBDE8104000F0C1B8A8
:10188000B0F1FF4F0FD0C1F3C7527F2A09DB972A6F
:1018900012DAC2F19602012303FA02F2531E0B423E
:1018A00006D0002209E011F0004F55D129E05DE09B
:1018B0000A4218BF012200D1022210F5000F13D0F6
:1018C00020B3B0F1004F25D010F1814F4ED04FF032
:1018D000FE42B2EB400F94BF01200020012202EB38
:1018E000E171884238D10CE011F0004F02D0012A9A
:1018F00037D031E0012A02BF9FED340ABDEC028BE4
:1019000010BD9FED330ABDEC028B10BD11F0004FEE
:101910000CD121E0B1F1FF4F1ED011F5000F05D021
:1019200011F0004F15D00AB1012A08D0022000F0B2
:1019300093F8BDEC028BBDE8104000F055B80220D2
:1019400000F08AF800F050F8BDEC028BB1EE400ACE
:1019500010BD0AB1012A04D0BDEC028B9FED1D0A17
:1019600010BDBDEC028B9FED1C0A10BDBDEC028BBF
:10197000B7EE000A10BD00BF30EE410AB5EE001A06
:1019800000EE413AB6EE001A60EE001A00EE431A7D
:1019900021EEC12A9FED111A60EE011A9FED101A77
:1019A00020EE011A9FED0F0A02EE001A31EE810AB5
:1019B00010EE100A00F500606FF30B0000EE100A45
:1019C00071EEC01A71EE811AC8E50000000080FFB8
:1019D0000000807F000000000000008000B0B841DF
:1019E000D49A38BB3BAAB841DFED030AB7EE001A20
:1019F00081EE200A704700000000000030EE000A6F
:101A0000704730EE200A7047DFED020A80EEA00A30
:101A100070470000000000009FED020A20EE000A5F
:101A200070470000000000709FED020A20EE000ADF
:101A3000704700000000001002E008C8121F08C133
:101A4000002AFAD170477047002001E001C1121F3F
:101A5000002AFBD170470000014908607047000070
:101A60005828002010B54169044688472069A042E3
:101A700000D1002010BD0120704700002DE9F04F7B
:101A8000002699B00F4605463446B0464CE0A8689B
:101A9000C4EBC4038946426802EB83020E9280685D
:101AA00010AA00EBC40A2C480D9251F8082F406A86
:101AB000120A62F31F200190D1F804B01C2105A87E
:101AC000FEF7C8FBD9F81800006800F003FE059087
:101AD000D9F81800806806905FEA0A0009D0C0F8BB
:101AE0000080D9F80010416029B1498819B101215D
:101AF00002E0404603E00021016001B900200790A8
:101B0000D9F818001C2205A9406809900198CDE970
:101B10000A0B0D98FEF785FB1C2210A90E98FEF704
:101B200080FB761CB6B2641C0DB1288800E0002052
:101B3000A04205D9686818B150F824100029A6D130
:101B40001EB1A8684068386001E0C7F8008019B08D
:101B50003046BDE8F08F0000D84F01087047000004
:101B600070B51468C4F3C0543BB15D682DB15E8894
:101B70001EB12D6895ED000A01E09FED2D0A9268D7
:101B800084B33BB15C682CB15B881BB1636893F98B
:101B9000003000E0002300EE903A0023DFED251A2C
:101BA000B8EEE01A1BE000BFB0EC012AC2EE000A5A
:101BB00070EE810AF5EEC00AF1EE10FA02DBB6EE25
:101BC000002A01E0B0EE612A5B1C72EE200AFDEEF5
:101BD000E00A10EE904A04F3070402F8014B8B422E
:101BE000E2D370BDFFE733B15C6824B15B8813B109
:101BF00063681B7800E0002300EE903AB6EE001A0E
:101C00000023F8EE600A30EE811A0EE0F0EC011AC3
:101C10005B1CC1EE800A70EE810AFDEEE00A10EE58
:101C2000904A84F3080402F8014B8B42EED3D8E7C4
:101C300000000000FCFFFFBE70B50468C4F3C05490
:101C400039B14D682DB14E881EB12D6895ED000A51
:101C500001E09FED1F0A8068ECB139B14C682CB1EE
:101C6000498819B1616891F9004000E00024002121
:101C70000EE000BF10F9015B2D1B00EE905A02EB45
:101C80008105491CF8EEE00A60EE800AC5ED000A05
:101C90009942EFD370BD31B14C6824B1498811B17C
:101CA00061680C7800E0002400210DE010F8015B71
:101CB0002D1B00EE905A02EB8105491CF8EEE00A5C
:101CC00060EE800AC5ED000A9942EFD370BD0000B6
:101CD000000000002DE9F0479946DDE908870C4631
:101CE000054601EB820608E04A462146284600F0F8
:101CF00009F804EB880405EB8705B442F4D3BDE88A
:101D0000F08700002DE9F04107462DED028B1546C6
:101D10000E4691ED008ADFED208A01200CE000BF25
:101D200006EB800191ED000AB4EEC80AF1EE10FA5C
:101D300001D3B0EE408A401CA842F1D300240EE04B
:101D400006EB840090ED000A30EE480AFFF752FAE5
:101D500007EB840070EE288A80ED000A641CAC4218
:101D6000EED3F5EEC08AF1EE10FA10D0F7EE000ACD
:101D7000002080EEA80A08E007EB8001401CD1EDAE
:101D8000000A60EE800AC1ED000AA842F4D3BDEC5F
:101D9000028BBDE8F08100000000000070B5054630
:101DA0000C4648886988884202D9AAB1002070BDD3
:101DB00092B100260CE000BF6168C6EBC6006A68FD
:101DC00001EB800102EB80001C22FEF72AFA761C50
:101DD0006088B042F0D801E0606868606088688020
:101DE00020882880012070BD30B500B3F9B1F2B170
:101DF0005268E2B10F4C1368A34203D0026001297C
:101E000013D014E00023121D07E000BF52F8235046
:101E1000A54204D040F823505B1C8B42F6D38B4282
:101E200005D152F82300A04201D1012030BD00208D
:101E300030BD0000DECAFAA170B50D46060014469A
:101E40001AD0CCB1104600F01DFD00B16088A84248
:101E500012D10023042109E0C3EBC302606801EB47
:101E60008202805820B146F823005B1CAB42F3D3BA
:101E7000AB4201D1012070BD002070BD03498842F2
:101E800001D101207047002070470000DECAFAA18E
:101E90002DE9FE4F92468946040003D0A08D20B163
:101EA000256B03E00020BDE8FE8F00250020E082C6
:101EB000A082207BC043800702D030221121DCE0C9
:101EC000B9F1000F61D0D5B32888C0B3D9F8180094
:101ED0000026D0F8008056E0A868006800EB0610E5
:101EE000019052D058B3C6EBC600029009EB8000B7
:101EF0000121009000F0D0FCDBF8183059688842CE
:101F00001AD80098DBF80C208069D768D0F80CC08C
:101F1000674511D19768D0F808C067450CD1526861
:101F20004068824208D1186800F0C5FB0746584651
:101F300002F000FB874203D2182212219DE024E028
:101F4000DBF81800006800F0C5FB029920F07E4223
:101F500059F8210020F07E40824201D01922ECE79E
:101F60000098406888B100988069006878B141465F
:101F7000404500D208468046DDE900105A4600F090
:101F80008FF8761C2DB1288804E01722D5E721228E
:101F9000D3E70020B04206D9686820B150F826B0D7
:101FA000BBF1000F98D1BAF1000F74D0A08D0128B9
:101FB00006D9256B0C3503D0288808B1002658E0D7
:101FC000182259E0A868006800EB061B3BD0BBF163
:101FD000000F38D0C6EBC60001900AEB800001214B
:101FE000009000F059FCD9F8183059688842E7D8B9
:101FF0000098D9F80C208069D768D0F80CC06745E4
:10200000DED19768D0F808C06745D9D152684068DA
:102010008242D5D1186800F04EFB0746484602F0D0
:1020200089FA8742CCD3D9F81800006800F052FB37
:1020300020F07E4201985AF8200020F07E40824233
:1020400003D0192218E0172216E0009840680028F3
:10205000F9D000988069006868B14146404500D2D7
:10206000084680464A465846009900F019F8761C02
:102070003DB1288806E021221321204600F04BFFC5
:1020800010E70020B04206D9686820B150F82690C9
:10209000B9F1000F96D1A4F814804FF0010002E7C7
:1020A00070B504460E461546104602F043FA014646
:1020B000A060B06900684843E06071686160726860
:1020C00010442060A8690268920007D4D0E9022376
:1020D000D21A11448160A9696068C86070BD70B58A
:1020E0000646002521E0B068006800EB0514886909
:1020F0000268920005D5D4E901128068FEF791F8D4
:1021000008E0D0E90223D21A63681A448260896920
:102110006068C860D4E901010844606021688842B1
:1021200001D3E068081A6D1C60600EB1308800E0D1
:102130000020A84206D97068002803D050F8251066
:102140000029D0D170BD2DE9F041064600252BE0D5
:10215000B168096801EB051481690A6892000FD51E
:10216000A26889686068FEF75CF8D4E90101084458
:1021700060602168884201D3E068081A606012E05C
:10218000D4E901120A44626021688A4201D3E268FC
:102190008A1A62608169D1E90237DB1B1A448A60BE
:1021A00080696168C1606D1C0EB1308800E000205C
:1021B000A84206D97068002803D050F825000028EE
:1021C000C6D1BDE8F08100002DE9FF4F8DB00F466C
:1021D0000546002606E025280BD0DDE90F129047C2
:1021E0006D1C761C28780028F5D111B03046BDE86A
:1021F000F08F0024A246A1460122EC4900E00443EE
:1022000015F8013F203B02FA03F00842F7D1287885
:102210002A2810D06FF02F022878A0F13001092968
:1022200014D80AEB8A0102EB410144F0020400EBEE
:10223000010A6D1CF0E701CF5FEA000A03D544F400
:102240000054CAF1000A44F002046D1C28782E28BC
:1022500017D115F8010F44F004042A280ED06FF0AE
:102260002F022878A0F1300109290AD809EB890149
:1022700002EB410100EB01096D1CF2E757F8049BEA
:102280006D1C28786C280FD006DC4C2817D06828E5
:102290000DD06A2814D104E0742810D07A280FD108
:1022A0000DE044F400140AE044F4801401E044F426
:1022B00040146978814202D104F580146D1C6D1CB4
:1022C0002A786E2A1FD00CDC632A31D004DC002A65
:1022D0008BD0582A11D1A3E0642A68D0692A0CD186
:1022E00065E0732A2ED004DC6F2A73D0702A04D1E3
:1022F0009BE0752A6FD0782A6ED01046DDE90F1268
:102300009047761C50E1C4F30250022806D00328FF
:1023100009D0042801CF09D0066045E101CFF117AB
:10232000C0E9006140E101CF06803DE106703BE17C
:1023300017F8040B8DF8000000208DF80100EB4623
:10234000012003E057F804BB4FF0FF3061074FF066
:10235000000102D40DE008F10101884649450FDA79
:102360008045F8DB1BF808100029F4D108E008F1DB
:10237000010188468142FADB1BF808100029F6D1DA
:10238000DDE90F23AAEB08008146214600F036F96B
:10239000304400EB080604E0DDE90F121BF8010BE6
:1023A0009047B8F10108F7D221464846F7E00A21E4
:1023B000C4F302534FF0000B0891022B04D001CF5D
:1023C000C117032B09D00AE0FF1D27F00707F7E824
:1023D000020108E032E01FE020E000B2C117042B48
:1023E00001D140B2C117031E71F1000307DA4FF0AB
:1023F000000CD0EB0C006CEB01012D2302E0230557
:1024000004D52B238DF82430012303E0E30701D00A
:102410002023F7E7984658E00A2110E010210EE04B
:1024200010204FF0000B08900CE010214FF0000B33
:1024300044F004044FF00809089103E008214FF02C
:10244000000B0891C4F30253022B04D001CF0021EA
:10245000032B06D006E0FF1D27F00707F7E802016F
:1024600003E080B2042B00D1C0B24FF00008230774
:102470002BD5702A07D0DDF820C08CF0100C5CEA58
:102480000B0C05D00EE040238DF82430012308E02A
:1024900050EA010306D030238DF824308DF8252032
:1024A00002239846DDF820C08CF0080C5CEA0B0C87
:1024B0000BD150EA010301D1630706D530238DF813
:1024C00024304FF00108A9F10109582A04D038A29C
:1024D0000B9208AA0A920BE03AA2F9E75B46089A27
:1024E000FDF76EFE0B9B9B5C0A9A521E0A921370BC
:1024F00050EA0102F2D10A98ADEB000000F1200B86
:10250000600702D524F4803401E04FF00109D94579
:1025100002DDA9EB0B0000E0002000EB0B014144C1
:102520000890AAEB010AE00306D4DDE90F23214657
:10253000504600F063F806444FF0000908E009A98E
:1025400011F80900DDE90F12904709F10109761C25
:10255000C145F4DBE0030CD5DDE90F2321465046ED
:1025600000F04CF8064404E0DDE90F1230209047FB
:10257000761C0899481E08900029F5DC08E00A98A6
:102580000A990078491C0A91DDE90F129047761CE0
:10259000BBF10001ABF1010BF1DC21465046DDE956
:1025A0000F2300F019F806446D1C1BE609280100F2
:1025B00030313233343536373839616263646566B9
:1025C000000000003031323334353637383941427B
:1025D00043444546000000002DE9F0410446002533
:1025E0001E461746880404D405E039462020B0472B
:1025F0006D1C641EF9D52846BDE8F0812DE9F04137
:10260000044600251E469046C80301D5302700E049
:102610002027880404D505E041463846B0476D1CA4
:10262000641EF9D52846BDE8F081000010B50B4CBA
:10263000226950606069416009A0FEF7A7FD04F1BE
:102640000C0207CA00F054FD012805D0E06800F034
:1026500021FD07A100F0BCF9002010BD2C180020BE
:10266000537461727420546573740D0A0000000085
:1026700061695F7764636E6E5F72756E0000000063
:1026800079B1C0F3C6125143C91DC0F3415321F0C3
:102690000701D940C0F34340042804D0082807D1DB
:1026A00004E00020704701EB021101E001EB022180
:1026B000C91DC808704759B1C0F3C6125143C91D9E
:1026C00021F00701C0F34150C140C91DC80870473F
:1026D0000020704770B54021C0F34342022A1BD04E
:1026E000394A20F07E439C1A0D014E0193425FD07F
:1026F00029DC364AA3EB0204934259D019DC402B63
:1027000057D0403BB3F580234CD0802B37D0AB4221
:102710004FD12E49C91F4CE0C0F3C051C905C0F3C9
:10272000C61241EAC21100F07F02114341F4802138
:102730003FE0A4F54074F93C1FD00F2C35D0B442D3
:1027400037D1234935E0234BE21A9C421BD00BDCE6
:10275000214AA2181DD0802A19D0AA4211D0A2F570
:102760008062073A25D117E00F2A18D0B2420CD068
:102770001A4BDA421DD11A491BE01A4919E01A49CD
:1027800017E01A4915E01A4913E01A4911E01A49ED
:102790000FE0194980390CE01449C91D09E01449BA
:1027A0000F3106E01049803903E00E490F3100E097
:1027B000114600F080420A4300F00051114300F03E
:1027C0000060084370BD0000400406004704040098
:1027D0004010040000047E00000482FF00F801FFA6
:1027E0004010820140080400C0000400400484003E
:1027F0004008840040108400C000840010B50146E9
:1028000000220F4800F0F0FB10F0FF0F02D00DA1E6
:1028100000F0DEF80A4C00210C3CE06800F054FCAB
:1028200020610021E06800F059FC606121692246C6
:1028300049681160111D40680860002010BD00004B
:102840003818002061695F7764636E6E5F6372653C
:102850006174655F616E645F696E69740000000099
:1028600070B514460D46064600F00CF840B170688D
:10287000C5EBC50110EB810002D04460012070BDA2
:10288000002070BD28B1416819B1408808B101200D
:10289000704700207047000010B502002AD0164B88
:1028A0001068B3EBC01F03D0144BB3EBC01F01D1B2
:1028B000012000E0002008429069406802D01F30EB
:1028C00020F01F005369D9B2012900D000211C0A51
:1028D00007E0012907D0936953F821305843491C78
:1028E0001AB1234602E00123F8E700238B42F0DC13
:1028F000002800DC002010BD0060004200600002E3
:1029000008B509A10968009148B101789DF8002037
:10291000914204D104226946FDF7A7FC08B10020CA
:1029200008BD012008BD0000038404842DE9F041A6
:10293000C66B416B044600258163CEB1D9B101203D
:10294000226CB0470CE00220226CB047A06BFFF76E
:1029500089F807460320226CA16BB0476D1CA76362
:10296000A16B0029EFD106E0FFF77CF86D1CA06396
:10297000A06B0028F8D12846BDE8F081034600206E
:10298000596B002908D0CB600A69401C8A4203D0E9
:10299000002A01D01146F6E770472DE9F041446B5B
:1029A000002594B1012600272079C00707D0216AAD
:1029B000204611B18847304600E03846054420697A
:1029C000A04202D008B10446EEE72846BDE8F081F7
:1029D000020A31B1C0B21346024604A0FEF7D6FB8C
:1029E00003E0C1B20EA0FEF7D1FBFEE754454D5007
:1029F0004C415445202D204572726F72202825735A
:102A000029202D20747970653D307825303278206A
:102A1000636F64653D3078253032780D0A00000020
:102A200054454D504C415445202D204572726F72D3
:102A3000202D20747970653D307825303278206300
:102A40006F64653D3078253032780D0A0000000053
:102A5000F0B50024059F0460446084600D6926463B
:102A60006D4221E0002D06DAD0F800C00CF1010C17
:102A7000C0F800C014E0D2F808C0D7F808E0ACEB0A
:102A8000050CF44506DAD0F808C00CF1010CC0F8CA
:102A900008C005E0D0F804C00CF1010CC0F804C077
:102AA000D1F808C0761C6544D3F808C0B445D9DC19
:102AB0000568C560456805618568C0E90554C4615D
:102AC00004624C696442002515E0002C03DA866933
:102AD000761C86610CE05668D7F804C0361B664544
:102AE00003DA066A761C066202E0C669761CC661D5
:102AF000CE686D1C34445E68AE42E6DCF0BDD0E9C1
:102B00000621012322B149B18384521E826109E06A
:102B100021B100228284491EC16103E08384016ADD
:102B2000491E0162C16801600169416041698160BB
:102B300070470168012219B1C284491E01607047C3
:102B4000416821B1828CC284491E41607047C284B1
:102B50008168491E8160704710B570B169B162B17A
:102B6000074C0460D1E90041C0E90141D2E90012FB
:102B7000C0E903120123184610BD002010BD00005B
:102B8000DECAFAA110B518B1044A0168914200D01A
:102B900000200446FDF7F4FB204610BD0001C0A153
:102BA00030B44AB140B139B1074C1368A34206D1E1
:102BB00030BC0C32FFF740B930BC0020704730BC4D
:102BC0001C32FFF711B90000DECAFAA130B44AB1D5
:102BD00040B139B1064C1368A34206D130BC121D76
:102BE000FFF72AB930BC0020704730BCFFF7FCB8B3
:102BF000DECAFAA1F8B50E46FFF7C4FF04000AD0FA
:102C000000270097A08D00B1206B6946FEF736FFC4
:102C1000050006D00BE01022114600F07CF90020E0
:102C2000F8BD18221121204600F075F9009706B171
:102C300035800098F8BD0000034810B54469FDF7E1
:102C40009FFB204610BD0000D84F01082DE9F04F32
:102C500089B00646DDE912104FF0000A554663F3CD
:102C60000705CDE9011361F30F259046544660F343
:102C700017458346FEF7FFFE304F01001CD0304859
:102C800000680123C0F30220042806D02D48182232
:102C900002600268182A13D00BE02B4814228360CC
:102CA00083680BB1521EFBD1826812B90068401CC8
:102CB0000AD00846FEF752FFF86909B0BDE8F08F68
:102CC00003600268002AFCD10846FEF747FFFDF7C3
:102CD00057FBE6B11D49C8F80010C6F8008000F0A7
:102CE000BDFAB0B1FFF7A8FF8146C5F30721E8B2EE
:102CF000002200F066F90546C9F3072109F0FF003C
:102D0000002200F05EF9854205D07C680BE0386A4D
:102D1000D3E73C6807E00EA0006800906846FFF724
:102D2000EFFD10B9BC68C6F800A0DDE901105A46F5
:102D300000F047F9C8F848002046BEE7D84F010820
:102D4000002004E0084C0258003002400001C0A1FD
:102D50000384048410B5FFF715FF20B1BDE81040CF
:102D6000103000F075BA0148806910BDD84F0108D5
:102D70002DE9F04F91B00C46FFF704FF050013D08A
:102D8000B4B13BA12068FFF779F806004FF0000BC3
:102D900011D020680190D4E90301CDE90401D4E900
:102DA0000101CDE9020143E0002011B0BDE8F08F40
:102DB0001122102158E001212046D4F804A0FFF789
:102DC0006BFD804604F11C00D4F820900121109086
:102DD000FFF762FD07461422274906A8FDF721FAEE
:102DE0000120B8F1000F02D0ADF81E0002E0ADF8EE
:102DF0001EB0002408941FB1ADF82600109802E020
:102E0000ADF826B000200A90B9F1000F02D10FB141
:102E1000132206E0BAF1000F05D1B8F1000F02D07D
:102E2000122210211FE0142206A901A8FDF7F9F9CA
:102E300086F00102144602A905F11C00FEF7AEFF60
:102E400068B1224604A905F12400FEF7A7FF40B1AE
:102E50000320E8602846FFF791FD2846A5E71222E7
:102E600000E013221621284600F055F89CE70000E8
:102E7000696E6974000000003050010870B5FFF7FA
:102E800081FE041E08D0207B800706D41022112169
:102E9000204600F040F8002070BD2046FFF77DFD81
:102EA000E06B60B1656B55B1D4E90F322946002063
:102EB00098472869A84202D008B10546F4E70120E6
:102EC00070BD70B515460E46FFF75CFE04462A46F7
:102ED0003146FEF7DDFF00281CD0A08D08B1256B20
:102EE00000E00025012802D9266B0C360DE00026F3
:102EF0000BE02846FFF7F3F82046FFF717FD3046B2
:102F0000FFF721F9E08A401CE082E08AA18A88422A
:102F1000EFD380B270BD002802D0103000F0AFB9FE
:102F20007047F8B50E46FFF72DFE040007D00027C6
:102F30000097A08D012808D9206B0C3006E01022E4
:102F40001146FFF7E8FF0020F8BD00206946FEF7B4
:102F500095FD050005D1182211212046FFF7DBFF62
:102F6000009706B135800098F8BD4168D1E90201AB
:102F70004843704702460068010A012004E0536894
:102F8000491E53F8213058430029F8D170470246B2
:102F90000068010A012004E05368491E53F82130FB
:102FA00058430029F8D1704702460068010A012001
:102FB00004E05368491E53F8213058430029F8D1E2
:102FC0007047000640EA014040EA022070470000D6
:102FD0001CB500230522CDE900230123014AFFF798
:102FE00035FE1CBD780E00202DE9F0430F468FB052
:102FF000164605460021FFF7EBFF804610F0FF0F55
:103000000BD1684600F032F820B1A7B100240DF1D1
:103010000C090CE0286800F03DF80FB0BDE8F08323
:1030200057F8242021464846FFF71AFC641CBDF8D7
:103030000E00A042F4DC76B100246F4607E000BF2A
:1030400056F824202146381DFFF70AFC641CBDF801
:103050000600A042F4DC6946286800F01DF818B9A3
:10306000286800F017F880464046D6E71FB50028CC
:103070000CD00749D1E90023CDE90023D1E9022191
:10308000CDE902216A4602A9FFF766FD04B010BD32
:10309000F0780008FFF75EBE2DE9F0410D460646C8
:1030A000FFF766FE04000DD0294603F0B1FE074687
:1030B0002946204603F020FE00EA07043046FFF7C9
:1030C000DDFE2040BDE8F08110B90248024A0260EE
:1030D000FFF790BD780E00200001C0A110B9024892
:1030E000024A0260FFF71DBF780E00200001C0A158
:1030F000FFF7E7BE10EE102A10B500214FF07E5307
:103100000180F0EE000A9A4222DAB5EEC00AF1EE32
:1031100010FA1DDD4FF07C5310EE102A9A421FDA90
:10312000028820EE200A521C12B202801F2AF3DD10
:1031300001809FED130A13E0018820EE010A491E69
:1031400009B20180914207DA028020EE200A07E0EE
:10315000B6EE001A6FF01D0210EE101A9942EBDC69
:10316000DFED080A20EE200A10EE100AFDF78AF8BB
:10317000CA17B1EBE07F02D06FF00040504010BDA5
:10318000000000000000004F2DE9F04798462DEDAB
:10319000048B91460E468246B0EE608AB0EE409AAD
:1031A0000024F0EE008A6FF01D054FF07E5745E0D9
:1031B0000AEB840090ED000A002020EE090A80EE60
:1031C000081A11EE101AB9421EDAB5EEC01AF1EE65
:1031D00010FA19DD4FF07C5211EE101A914219DAF3
:1031E00021EE281A401C00B21F28F5DD00209FEDBB
:1031F000161A0FE021EE001A401E00B2A84205DAAE
:10320000284621EE281A05E0B6EE000A11EE101A43
:10321000B942EFDC28F814009FED0C0A61EE000AB9
:1032200010EE900AFDF72EF8CA17B1EBE07F02D03E
:103230006FF00040504049F82400641CB442B7DBF2
:10324000BDEC048BBDE8F087000000000000004FDB
:103250000022016802700260084670470120704732
:1032600010B18269002A00D10846704710B1806908
:1032700000B1014609B188687047002070470378A3
:1032800013F0FF0F01D0002070470170016862F356
:103290001F210160012070472DE9F04F024680692F
:1032A0009FB0018809B1436800E000235B682BB13F
:1032B00009B1436800E000235B681B680129984658
:1032C00002D943680C3300E000235B683BB101295D
:1032D00002D943680C3300E000235B681B68159338
:1032E000022902D94368183300E000235B6843B128
:1032F000022902D94368183300E000235B681F6885
:1033000000E0002702290BD9436813F1180F07D0FA
:1033100033F8184F012C03D95B680BB15E6800E0ED
:103320000026032902D94368243300E000235B68A8
:103330003BB1032902D94368243300E000235B68D2
:103340001B689B46536A9BB19A46032902D943687E
:10335000243300E000235B6843B1032902D94368AA
:10336000243300E000235B685C6804E0002402E092
:10337000DFF8D4A1159CD8F80C3002299D88ADB295
:103380001195D4F80CC0BCF804501FFA85F9DCF88C
:103390000C50DCF808C0CDF808C0D3F80CC0CDF84C
:1033A00024C09B681393138D9BB21C93938D9BB287
:1033B0001B93FB68D3F808C0CDF874C05B681E93FC
:1033C000B3699B681A93DBF818309E6802D943688A
:1033D000183300E000235B6863B1022902D940681A
:1033E000183000E000204068806818B10021FFF725
:1033F00037FF03E00020116AFFF738FF1290D8F87A
:1034000000102068DFED510A3A6851B14B6843B1B2
:10341000B1F802C0BCF1000F03D01B6893ED000AA5
:1034200001E0B0EE600A48B143683BB1B0F802C0B9
:10343000BCF1000F02D01B68D3ED000AD7F818C00A
:10344000D8F81830A769D3F80880BF68DCF80830CE
:1034500018931AB152680AB1126800E00022964629
:1034600000220B92029A05FB02F303FB097343450A
:1034700009D9139B099A5A43119B02FB0382BA4252
:1034800001D901220B9239B14A682AB1498819B190
:10349000516891F9001000E00021199138B141689C
:1034A00029B1408818B1486890F9000000E0002078
:1034B0000890324606EB890349467046FFF764FEE2
:1034C0000B9828B11D9880B217900120049005E058
:1034D000099880B21790A8B201250490DBF8180073
:1034E00003C8FFF7CDF801210F960C95CDE90D101B
:1034F000029904988AB2CDE90A200DF1640C09976B
:103500009CE80F00CDE90610CDE904321D98189B08
:1035100081B21E98CDE9003982B2CDE9022113981B
:10352000119B81B24046179A00F036FA04F1080068
:10353000FFF72DFD0246129B15981FB02146D44679
:10354000BDE8F04F60470000314500080000000072
:103550002DE9F04F024680699FB0018809B14368A8
:1035600000E000235B682BB109B1436800E0002351
:103570005B681B680129994602D943680C3300E057
:1035800000235B683BB1012902D943680C3300E09A
:1035900000235B681B681493022902D9436818331F
:1035A00000E000235B6843B1022902D94368183365
:1035B00000E000235B681F6800E0002702290BD9A8
:1035C000436813F1180F07D033F8184F012C03D9B3
:1035D0005B680BB15D6800E00025032902D94368F0
:1035E000243300E000235B683BB1032902D9436820
:1035F000243300E000235B681B689B46536A9BB141
:103600009A46032902D94368243300E000235B680B
:1036100043B1032902D94368243300E000235B68E7
:103620005C6804E0002402E0DFF8B0A1149CD9F843
:103630000C3002299E88B6B21696D4F80CC0BCF89D
:103640000460DCF80C80CDF83080DCF808C0CDF8E0
:1036500024C0D3F80CC0CDF86CC09B681A93138DAE
:10366000B6B29BB21893938D9BB21993D36BB3F8F8
:1036700000C01FFA8CFCCDF820C09B889BB207933A
:10368000FB68D3F808C0CDF85CC05B681C93AB69DD
:103690009B680593DBF818309D6802D9436818339E
:1036A00000E000235B6863B1022902D9406818304A
:1036B00000E000204068806818B10021FFF7D0FDCD
:1036C00003E00020116AFFF7D1FD1190D9F8001036
:1036D0002068DFED430A3A6851B14B6843B1B1F855
:1036E00002C0BCF1000F03D01B6893ED000A01E09B
:1036F000B0EE600A48B143683BB1B0F802C0BCF11B
:10370000000F02D01B68D3ED000ABB69A769D9F886
:1037100018C09B68D7F80880DCF808701D9322B1A8
:10372000526812B1D2F800C001E04FF0000C39B17C
:103730004A682AB1498819B1516891F9001000E02E
:103740000021894638B1416829B1408818B14868DC
:1037500090F9000000E000200A902A4605EB86035D
:1037600031466046FFF710FDDBF8180003C8FEF78E
:1037700087FF0122CDE90E200C99099889B20D919D
:10378000109581B2CDF82490CDE90B81DDE90712C7
:103790000DF1140E1998059B8EE80F00DDE9170155
:1037A0001C9A80B292B2CDE90301CDE901621D9865
:1037B00000901B98169B82B21A9881B2384600F08E
:1037C00075F904F10800FFF7E2FB0246119B14981B
:1037D0001FB02146D446BDE8F04F60473145000890
:1037E000000000002DE9F04F816997B0088808B10A
:1037F0004A6800E00022526832B108B14A6800E02D
:1038000000225268156800E00025012802D94A68A4
:103810000C3200E00022526842B1012802D94A6805
:103820000C3200E000225268146800E000240228F4
:1038300002D94A68183200E00022526842B10228D8
:1038400002D94A68183200E000225268166800E087
:10385000002602280BD94A6812F1180F07D032F857
:10386000183F012B03D9526812B1526800E00022C0
:103870009246032802D94A68243200E000225268A6
:1038800042B1032802D94868243000E00020406893
:10389000076800E00027E86880881FFA80F9E06880
:1038A000808880B2099004F10800FFF75EFB804633
:1038B000DAF8180080680E908FB1B86980680C90B3
:1038C0002A682168DFED330AB36930684AB1566867
:1038D0003EB157882FB1366896ED000A03E000200C
:1038E000EDE7B0EE600A31B14E6826B14F8817B1EE
:1038F0003668D6ED000AA469AD699B68A468AD6816
:1039000010933AB153682BB152881AB15A6892F9A0
:10391000002000E00022119239B14A682AB149889A
:1039200019B1516891F9001000E000218B4618B1DF
:10393000406808B1006800E000200021ADF8541094
:10394000149190ED001A15AF0DF1500A21EE001AF6
:10395000384681EE200AFFF7CDFB0026149014E0D4
:103960000C990E9ACDE90541CDE903B21198CDF835
:1039700000A0CDE901704A462846099B109902F043
:1039800073FF09984D440444761C4645E8D317B0AC
:10399000BDE8F08F000000002DE9FF4F9BB00A4604
:1039A000DDE936E0299DDDE9307A05EB850400EBA1
:1039B000440B00EB850105EB4504149000EB44003B
:1039C000DDF8AC9000244FF0010C11E0B1F900607B
:1039D000A6F10108B8F1150F07D207FA06F80CFA9C
:1039E00006F608EB560640C000E080C0891C641C47
:1039F000AC42EBDBA0EB85001C466243119090B219
:103A0000A1EB450116901391684200EB80013598B7
:103A100000260EEB4101012815D12A9A04FB05F07E
:103A2000504300FB09F04A46B1EB400F0BDB2A98EC
:103A30005E4604FB00F303FB02F0CDE9000B2946D0
:103A4000289801F01BFE0027DDF86C8027E0119913
:103A50002F9ACDE90B21CDE90DB62A99169ACDE919
:103A60000821CDF82890339BDDE92C20079332996B
:103A70005346CDE90501CDE90342DDE91301CDE966
:103A80000010029540462E9A289901F023FE3299A3
:103A90002D9A01FB05AA16997F1C01FB0288349818
:103AA0008742D4D31FB0BDE8F08F00002DE9FF4F4F
:103AB000BFB01C46DDF87081559A89464D9E5499D9
:103AC000CDF840804F9BCDE90228CDE900318346F7
:103AD00008EB860A324620464E9B4C9901F07AFD4F
:103AE0004E98C6EBC60104FB00F74F9808EB410562
:103AF000784380B206EB4601079008EB410006EBE5
:103B00008601389008EB41000A9500214FF001082A
:103B10001D9012E0BAF90020531E152B08D2DDF8D3
:103B200058C108FA02F30CFA02FC0CEB530200E055
:103B3000569A0AF1020A04C0491CB142EADBAAEB18
:103B4000460011903A901098399041982B905898CF
:103B5000CDF8B090309059982F904E9835904F985E
:103B600034905098229051982390529824905398D2
:103B7000259033A800902EAB2AAA20A913A8FEF7FF
:103B800067FF002037904C9808904E99600048439A
:103B90004F9948430A9901EB40000D90DDE94E0131
:103BA0004843604370434FF4A051B1EB400F00DB3A
:103BB0004100704201EB800000EBD0704FEA6008DA
:103BC0005A9801280DD107987043404509DCA00799
:103BD000DDE907200D99334634D001F0F1F90120D9
:103BE0003790DDE958205043579A002100FB062208
:103BF0005A4508D9419800FB09F000FB04B25798D8
:103C0000824200D90121079A98FBF2F080B28642E5
:103C100000D230463B90B6FBF0F03C903B98B6FBB0
:103C2000F0F200FB126018B13C98401C80B23C904E
:103C30004F9A600050434E9A50431F9000297AD00B
:103C4000002027E101F0ECFAC9E713A8FEF757FFBF
:103C50001E98DDE95712704300FB0210129001908C
:103C600038980C903A981190399810901D980F90B0
:103C70003B9809900B963C983D904C98089037984B
:103C800040B9A007DDE90720099B0D996FD000BF5F
:103C900001F096F93D98411E89B23D9168D316987E
:103CA000139017981490189815900020A4E013A86A
:103CB000FEF73FFFBDF87200012815D050993298E9
:103CC00048435299401A0FFA80FAA00751991E985A
:103CD00000FB01F05399A0EB01004F990FFA80F817
:103CE0000844029056D068E051991E984843539971
:103CF000401A4F990FFA80FA0844029033E0509925
:103D0000329848435299401A4E990FFA80F8084465
:103D1000059021E0BAF1000F07DB41998A4504DAEA
:103D2000B8F1000F01DBC84506DB2246294655984D
:103D300000F028FD0AE0B5E00AFB0981A00701FBBD
:103D400004B02246294614D001F060FB08F10100BE
:103D500005EB44050FFA80F805994145DADC0AF1D4
:103D600001000FFA80FA02995145C8DC27E08BE088
:103D70008DE001F0CFFBE9E708FB09A101FB04B0EE
:103D80003A46294601F0C6FB08F1010005EB47055C
:103D90000FFA80F802994145EEDC10E008FB09A11A
:103DA00001FB04B03A46294601F030FB08F101005E
:103DB0000FFA80F8029805EB47054045EEDC1F99A5
:103DC0000A9800EB4100A84213D10FAD019895E885
:103DD0000E00CDE90232CDE9041007990998CDE92A
:103DE0000001DDE90C2033460A9902F0F9F80A9D3A
:103DF00001903298401C00B2589932908842FFF6E8
:103E000056AF0A98854212D00FAD019895E80E0082
:103E1000CDE90232CDE9041007990998CDE90001F6
:103E2000DDE90C2033460A9902F070FB0A9D0999DE
:103E300012980844129001900B98401A80B20B908F
:103E400008460B99884200D20146099100293FF4A7
:103E500021AFDDE9072102FB001108910C9901EB6C
:103E600080010C91119901EB40011191109901EB26
:103E7000800110910F9901EB80000F90A007DDE900
:103E800008030D997FF404AF01F0CAF902E71E9808
:103E9000401C00B259991E908842FFF6D6AE43B03E
:103EA000BDE8F08F3C98399038980C901D980F9091
:103EB0003B980B9009965798FEE0379838B9A007C1
:103EC000DDE907200B9B0D9905D001F079F81D98CD
:103ED00001900020B2E001F0A3F9F8E713A8FEF783
:103EE0000EFE0020A1E013A8FEF723FEBDF872002D
:103EF000012815D05099329848435299401A0FFA28
:103F000080FAA00751991E9800FB01F05399A0EB8D
:103F100001004F990FFA80F80844029054D065E0F0
:103F200051991E9848435399401A4F990FFA80FAB5
:103F30000844029033E05099329848435299401A0D
:103F40004E990FFA80F80844039020E0BAF1000F70
:103F500007DB41998A4504DAB8F1000F01DBC84557
:103F600005DB22462946559800F00CFC09E00AFBC7
:103F70000981A00701FB04B02246294612D001F0B6
:103F800045FA08F1010005EB44050FFA80F80399A2
:103F90004145DBDC0AF101000FFA80FA0298504536
:103FA000C9DC25E001F0B6FAEBE708FB09A101FB4B
:103FB00004B03A46294601F0ADFA08F101000FFAC3
:103FC00080F8029805EB47054045EEDC10E008FB61
:103FD00009A101FB04B03A46294601F017FA08F19D
:103FE00001000FFA80F8029805EB47054045EEDC2A
:103FF0000A991F9801EB4000A84213D10FAD019818
:1040000095E80E00CDE90232CDE9041007990B982E
:10401000CDE90001DDE90C2033460A9901F0E0FF0B
:104020000A9D01903298401C00B201463290589887
:104030008142FFF658AF1E98401C00B259991E905D
:104040008842FFF64BAF0A98854212D00FAD019B14
:1040500095E8070005930292CDE9031007990B98A4
:10406000CDE90001DDE90C2033460A9902F04EFA51
:104070000A9D09990B98081A80B2099009990B9822
:10408000884200D201460B91B9B1DDE9072102FB5C
:10409000001108910C9901EB80010C91119901EB31
:1040A00040011191109901EB800110910F9901EBE2
:1040B00080010F911D9908441D903998411E89B2C5
:1040C0003991BFF4FAAEEAE62DE9F04F816989B083
:1040D00002460B880BB1486800E00020406828B118
:1040E0000BB1486800E0002040680068012B02D94D
:1040F0004C680C3400E00024646844B1012B02D900
:1041000049680C3100E000214968096800E000219D
:10411000C368CC68978BB3F80CB0B4F808C0B4F897
:104120000C80148DB3F808A0168C958C9B88126BAC
:104130001FFA83F91FFA88F813889288CDE907815E
:104140001FFA8CFCA4B2CDE9054CA9B29BB2CDE913
:104150000331B9B2009192B2B4B2CDE901421FFA73
:104160008BF21FFA8AF14B4600F0A8FA09B0BDE8BD
:10417000F08F2DE9F04F816999B00B880BB14A6837
:1041800000E0002252682AB10BB14A6800E0002228
:1041900052681268012B02D94C680C3400E00024EC
:1041A000646844B1012B02D949680C3100E0002158
:1041B0004968096800E00021037F846A0A94D46892
:1041C0000425E768A4680994406A048824B203942B
:1041D000848824B21794048924B21494808900B28C
:1041E0001390C868C4681694846811948C68B5EB01
:1041F000142F01D2006900E00120189090698468B2
:104200001594A2468C695269A468D5680D954969D0
:10421000D2E90169CD68896808910088C0F3C612A7
:10422000039800FB05FB149868431090179800FB57
:1042300001F8139848430B903BB1012B77D0022B28
:1042400072D104EB0B0600209BE0082A01D0002568
:1042500034E00A985A462146806890F90050284672
:1042600000F0E4FC04EB0B06002415E04246314666
:10427000284600F0DBFC4644314650460D9A00F0DB
:1042800043FC0D980B9A064482443146284600F0C0
:10429000CDFC0B98641C0644BC42E7DB109A19B0B5
:1042A00031462846BDE8F04F00F0C0BC0A983246BF
:1042B00081682046FBF7B5FF344435445D45F5DBA6
:1042C000002020E00A98324681682046FBF7A9FFCB
:1042D000344435444545F5DB514620460D9AFBF7FD
:1042E000A0FF0D9800250444824407E00A98324656
:1042F00081682046FBF795FF344435440B9885428E
:10430000F4DB09F101008146B8424FF00005E1DB22
:1043100007E00A98324681682046FBF782FF344462
:10432000354410988542F4DB19B0BDE8F08F49E0C0
:10433000002007E04A4651463046FBF772FF0898D6
:104340004E44484408904045F4DB514630460D9AAF
:10435000FBF767FF0D998A44AAEB09000F900E4402
:10436000002007E04A4630460F99FBF75AFF0898AD
:104370004E44401C0146089013988142F2DB049899
:10438000401C0490B842D3DB04EB0B08264605E042
:1043900001462A463046FBF744FF2E444046464538
:1043A000F6D103983844401E00FB05461098341897
:1043B00005E02A4631462046FBF733FF641BB44232
:1043C000F7D1B1E7A344002048E00BEB0806CDF895
:1043D0003CA00A9609E008984A46361A0F984844C5
:1043E00001460F903046FBF71CFF5E45F3D10A9E55
:1043F000514630460D9AFBF714FF0D994FF0000B14
:1044000070188A44009009991798461818984643DE
:104410000846049901FB0000139003980844129089
:1044200013E01398159AA0EB0B00801E00FB0921E6
:10443000DDE9112000FB0262089802FB00404A46B9
:10444000FBF7EFFE0BF1010B761C11988642E8DBBF
:104450000B99009800EB010B0498401C0490B842A3
:10446000B3DB03982646400000FB054706E02A46DA
:1044700039463046FBF7D5FE2E447F1BBE42F6D1AF
:104480001698401E00FB05441498400000FB15469A
:1044900006E02A4631462046FBF7C3FE641B2E4445
:1044A000B442F6D140E72DE9FC418069018809B1A9
:1044B000426800E00022526832B109B1426800E06F
:1044C00000225268146800E00024012902D94268E1
:1044D0000C3200E00022526842B1012902D9406842
:1044E0000C3000E000204068056800E00025E0682E
:1044F0004668E868476804F10800FEF73BFD02469D
:10450000CDE90067A06933468168A8698068FDF736
:10451000E1FBBDE8FC81000013B54FF6FF730122FB
:1045200069460248FCF72AFC00981CBDC04D0020DB
:10453000704700000146C0684A698969C068D2684E
:1045400009685043044A1140A1F58022C03A01D1C4
:10455000C01DC00870470000FFFF7F0110B5FCF7C9
:104560006DF8FCF7FDFCFCF775FCFCF761FCFCF753
:1045700087FCFCF7A1FCFCF7B9FC002010BD000093
:104580002DE9F0418069018809B1426800E000220C
:10459000526832B109B1426800E0002252681468E2
:1045A00000E00024012902D942680C3200E0002218
:1045B000526842B1012902D940680C3000E0002065
:1045C0004068066800E0002604F10800FEF7ECFCF5
:1045D0000146A069B5690368C3F34342012A08D0C4
:1045E0002468AA68E4B30B462146BDE8F041FDF714
:1045F00023BB3368806823B12A46BDE8F041FDF74C
:10460000AFBA044628680E46C0F3C61700F07F0113
:10461000791AC0F3C050081A403014D0404200EE5E
:10462000100AF8EEC00AB0EE000AFCF7D7FE2046EA
:10463000002106E0D0ED000A491C60EE800AE0ECA3
:10464000010AB142F6D3A968082F3246204603D0AA
:10465000BDE8F04100F0B2B8BDE8F04100F038B973
:1046600014460E46C3F3C61103F07F028A1AC3F341
:10467000C053D51A403508298068324621460DD0EE
:1046800000F0B6F9002D16D000EE105AF8EEC00A70
:10469000B0EE000AFCF7A2FE00200AE000F0EEF9FE
:1046A000F0E700BFD4ED000A401C60EE800AE4ECA5
:1046B000010AB042F6D3BDE8F08100002DE9F04FC9
:1046C0008BB01546DDE91B721C46DDE919A9DDE951
:1046D00017EB9669D0F818C003681268DFED280A56
:1046E00053B1586840B1B3F80280B8F1000F03D05D
:1046F000006890ED000A01E0B0EE600A4AB150682F
:1047000038B1B2F80280B8F1000F02D00068D0EDE5
:10471000000ADCF80800B6685BB1D3F804C0BCF14D
:10472000000F06D05B8823B1DCF8043093F9003029
:1047300000E000235AB1D2F804C0BCF1000F06D04B
:10474000528822B1DCF8042092F9002000E0002217
:10475000CDE90932CDE90797DDF858C0CDE905BAB2
:10476000CDE903CEDDE914230094CDE901230A4607
:104770002B46314600F0B0FA0BB0BDE8F08F0000D8
:104780000000000030B5C0EA004593082C142DB29B
:1047900009E000BF21F8025B5B1E21F8024B21F803
:1047A000025B21F8024B002BF4D102F0030202E07D
:1047B00021F8020B521E002AFAD130BD10B5930821
:1047C0009FED420A61E000BFF0EC010A60EE800A52
:1047D000F5EEC00AF1EE10FA02DDB6EE001A01E0C5
:1047E000BEEE001A71EE200AFDEEE00A10EE904ACD
:1047F00004F30F0421F8024BF0EC010A60EE800A8A
:10480000F5EEC00AF1EE10FA02DDB6EE001A01E094
:10481000BEEE001A71EE200AFDEEE00A10EE904A9C
:1048200004F30F0421F8024BF0EC010A60EE800A59
:10483000F5EEC00AF1EE10FA02DDB6EE001A01E064
:10484000BEEE001A71EE200AFDEEE00A10EE904A6C
:1048500004F30F0421F8024BF0EC010A60EE800A29
:10486000F5EEC00AF1EE10FA02DDB6EE001A01E034
:10487000BEEE001A5B1E71EE200AFDEEE00A10EE9D
:10488000904A04F30F0421F8024B002B9CD102F054
:10489000030218E0F0EC010A60EE800AF5EEC00AAF
:1048A000F1EE10FA02DDB6EE001A01E0BEEE001ADB
:1048B000521E71EE200AFDEEE00A10EE903A03F36C
:1048C0000F0321F8023B002AE4D110BD000000478D
:1048D00010B593089FED450A65E000BFF0EC010AB2
:1048E00060EE800AF5EEC00AF1EE10FA02DDB6EED7
:1048F000001A01E0BEEE001A71EE200AFDEEE00A99
:1049000010EE904A24B204F3070401F8014BF0ECD6
:10491000010A60EE800AF5EEC00AF1EE10FA02DD3F
:10492000B6EE001A01E0BEEE001A71EE200AFDEEAE
:10493000E00A10EE904A24B204F3070401F8014B98
:10494000F0EC010A60EE800AF5EEC00AF1EE10FA12
:1049500002DDB6EE001A01E0BEEE001A71EE200A8A
:10496000FDEEE00A10EE904A24B204F3070401F8C9
:10497000014BF0EC010A60EE800AF5EEC00AF1EEA0
:1049800010FA02DDB6EE001A01E0BEEE001A5B1E60
:1049900071EE200AFDEEE00A10EE904A24B204F314
:1049A000070401F8014B002B98D102F0030219E033
:1049B000F0EC010A60EE800AF5EEC00AF1EE10FAA2
:1049C00002DDB6EE001A01E0BEEE001A521E71EED4
:1049D000200AFDEEE00A10EE903A1BB203F3070343
:1049E00001F8013B002AE3D110BD000000000043A4
:1049F00010B593089FED200A2AE000BF30F9024B62
:104A000000EE904AF8EEE00A60EE800AC1ED000A7E
:104A100030F9024B00EE904AF8EEE00A60EE800AB0
:104A2000C1ED010A30F9044B00EE904AF8EEE00ABD
:104A300060EE800AC1ED020A30F9024C00EE904AA5
:104A4000F8EEE00A60EE800AC1ED030A10315B1E49
:104A5000002BD3D102F003020BE000BF30F9023B80
:104A6000521E00EE903AF8EEE00A60EE800AE1ECA9
:104A7000010A002AF2D110BD0000003810B59308D9
:104A80009FED200A2AE000BF10F9014B00EE904A8A
:104A9000F8EEE00A60EE800AC1ED000A10F9014B61
:104AA00000EE904AF8EEE00A60EE800AC1ED010ADD
:104AB00010F9024B00EE904AF8EEE00A60EE800A30
:104AC000C1ED020A10F9014C00EE904AF8EEE00A3E
:104AD00060EE800AC1ED030A10315B1E002BD3D1BA
:104AE00002F003020BE000BF10F9013B521E00EE82
:104AF000903AF8EEE00A60EE800AE1EC010A002A42
:104B0000F2D110BD0000003CF0B504E010F8013B0C
:104B100001F8013B521E8B0701D0002AF6D117097C
:104B20005BE0C37884781B0643EA044344788579C4
:104B300043EA042403781C43C3791B0643EA054374
:104B4000457943EA052305792B43C57A10F80A6FA6
:104B50002D0645EA064510F8016C90F804C045EAB8
:104B6000062610F8025C2E4345792D0645EA0C45D1
:104B700090F803C045EA0C2590F802C001F8014BFB
:104B800045EA0C054FEA142C01F801CB4FEA144C0E
:104B900001F801CB241601F8034B1C0A01F8023C72
:104BA00001F8014C1C0C01F8014B1B1601F8033BEA
:104BB000330A01F8026C01F8013C330C01F8023BA6
:104BC000331601F8013C0D702B0A4B702B0C8B70C7
:104BD0002B16CB70801D091D7F1E002FA1D1C2F3A3
:104BE000810416E0C37885781B0643EA05434578BF
:104BF00043EA052310F8045B2B4301F8013B1D0A2F
:104C000001F8015B1D0C01F8025B1B1601F8013C69
:104C1000641E002CE6D102F0030204E010F8013B10
:104C200001F8013B521E002AF8D1F0BDF0B502E0B8
:104C300001F8010B521E8B0701D0002AF8D14FF664
:104C4000FF741609C3B204EA00241C4344EA034378
:104C500043EA006321E000BF01F8013B1D0A01F8AF
:104C6000015B1C0C01F8014B1F1601F8037B01F8D6
:104C7000023C01F8015C01F8014B01F8037B01F8EB
:104C8000023C01F8015C01F8024B01F8017C0B7059
:104C90004D708C70CF70091D761E002EDCD11D0C5E
:104CA0001F161E0AC2F381046DB276B25BB208E031
:104CB00001F8013B641E01F8016B01F8025B01F889
:104CC000017C002CF4D102F0030202E001F8010B98
:104CD000521E002AFAD1F0BD2DE9FF4FC0EE201A76
:104CE0002DED020B86B09FEDA02A159BB5EEC00AF4
:104CF000CDE90010DDF870A04FF00000F1EE10FAE1
:104D000073DA2BE1002089E0002181E01B9D6FF028
:104D10007F040EFB05F0199D471B1A9D09FB05F04A
:104D2000189D461B784201D5002000E0784275426C
:104D300001D5002500E0754205950B9DDDF85CC0AE
:104D4000ED1B654500DD65460495DDF858C0951BF3
:104D5000654500DD6546AB461FE000BF07EB000C74
:104D6000CDF80CC0DDF804C0059D8C44CDF808C01A
:104D700010E000BFDDF80CC006EB05080CFB028C50
:104D80000CFB03FCDDF808801CF908C0A44500DD1D
:104D900064466D1C5D45EDDB401C049DA842DDDBD7
:104DA000B4EE600AF1EE10FA0AD1DDE91E05A84260
:104DB00006D10EFB0A90009D58430D44445525E052
:104DC0001E98201A01EE100A1F98F8EEC12A01EE73
:104DD000100AB8EEC11A01EEA21AB5EEC01AF1EE31
:104DE00010FA03DBF6EE002A02E01EE0F0EE422AA3
:104DF000009C32EE811A0C44BDEEC11A11EE100A6D
:104E000000F307060EFB0A9058430655491C09B2E9
:104E10009942FFF67BAF09F1010000B2814650458F
:104E2000FFF672AF0EF1010000B21D99864688426E
:104E3000FFF668AF0CB0BDE8F08F002087E00021DE
:104E40007FE01B9D7F240EFB05F0199D471B1A9DDB
:104E500009FB05F0189D461B784201D5002000E0B3
:104E60007842754201D5002500E0754205950B9DFD
:104E7000DDF85CC0ED1B654500DD65460495DDF899
:104E800058C0951B654500DD6546AB461FE000BF79
:104E900007EB000CCDF80CC0DDF804C0059D8C4478
:104EA000CDF808C010E000BFDDF80CC006EB050827
:104EB0000CFB028C0CFB03FCDDF808801CF908C01D
:104EC000A44500DA64466D1C5D45EDDB401C049D85
:104ED000A842DDDBB4EE600AF1EE10FA0AD1DDE99A
:104EE0001E05A84206D10EFB0A90009D58430D44B2
:104EF000445524E01E98201A01EE100A1F98F8EE7F
:104F0000C12A01EE100AB8EEC11A01EEA21AB5EEDE
:104F1000C01AF1EE10FA02DBF6EE002A01E0F0EE24
:104F2000422A0EFB0A9432EE811A5C43BDEEC11A8E
:104F300011EE100A00F30706009808442654491C95
:104F400009B29942FFF67DAF09F1010000B2814636
:104F50005045FFF674AF0EF1010000B21D99864670
:104F60008842FFF66AAF65E7FCFFFFBEF0B5970821
:104F7000059E14E050F8045B2FFA95F4D4FA03F47C
:104F80002FFA85F5D5FA03F521F8025B2D1421F8E7
:104F9000025B21F8024B241421F8024B7F1E002FE4
:104FA000E8D102F0030273B206E000BF10F9014B32
:104FB000E41A21F8024B521E002AF7D1F0BD00007E
:104FC0002DE9F04F9E4683184FEA5E0A151FFAE05E
:104FD0000024A2F11009AEE050F8046B53F804CBA2
:104FE0002FFA96F82FFA86F6370CC7EA080BC6EAAE
:104FF00008472FFA9CF82FFA8CFC4FEA1C46C6EAA9
:105000000806CCEA084C21F8027B3F1421F8027B09
:105010004FEA2C4721F802CB21F8027B4FEA2B47BD
:1050200021F802BB21F8027B21F8026B361421F82B
:10503000026B50F8047B53F8046B2FFA97FC2FFA9D
:1050400087F84FEA1847C7EA0C0BC8EA0C472FFA53
:1050500096F82FFA86FC4FEA1C46C6EA0806CCEA08
:10506000084C21F8027B3F1421F8027B4FEA2C47C1
:1050700021F802CB21F8027B4FEA2B47A1F800B0C0
:105080004F8021F8046F36144E8050F8087B53F897
:10509000086B2FFA97FC2FFA87F84FEA1847C7EAF0
:1050A0000C0BC8EA0C472FFA96F82FFA86FC4FEA49
:1050B0001C46C6EA0806CCEA084C21F8047F3F14D7
:1050C0004F8021F804CF4FEA2C474F8021F804BFCE
:1050D0004FEA2B474F8021F8046F36144E8050F86A
:1050E000047C53F8046C2FFA97FC2FFA87F84FEAE8
:1050F0001847C7EA0C0BC8EA0C472FFA96F82FFAA4
:1051000086FC4FEA1C46C6EA0806CCEA084C21F8A1
:10511000047F3F144F8021F804CF4FEA2C474F8083
:1051200021F804BF4FEA2B474F8021F8046F361453
:105130004E80091D10344C457FF74EAF2FE000BF65
:1051400050F8046B53F8047B2FFA96F82FFA86FC7C
:105150004FEA1C46C6EA0809CCEA08462FFA97F837
:105160002FFA87FC4FEA1C47C7EA0807CCEA084C2D
:1051700021F8026B361421F8026B4FEA2C4621F815
:1051800002CB21F8026B4FEA294621F8029B21F855
:10519000026B3E1421F8027B241D21F8026BAC4205
:1051A000CEDD08E010F9016B21F8026B13F9016BF9
:1051B00021F8026B641C9442F4DBAAF10104104450
:1051C00013441FFA84FABAF1000F7FF401AF5FEACB
:1051D000CE7322D0002615E050F8043B2FFA93F44A
:1051E0002FFA83F73B0CC3EA0403C7EA044421F80F
:1051F000024B241421F8024B21F8023B1B1421F826
:10520000023B361DAE42E7DD05E000BF10F9013B71
:1052100021F8023B761C9642F8DBBDE8F08F0000D7
:105220002DE9FF4F8418039B151F4FEA530AC6E070
:105230000023A2F1100686E050F8048B54F8047B9A
:105240002FFA98FC2FFA88F92FFA97F82FFA87F798
:1052500021F802CB4FEA2C4C21F802CB4FEA284C24
:1052600021F8028B21F802CB4FEA294C21F8029B4E
:1052700021F802CB21F8027B3F1421F8027B50F881
:10528000047B54F8049B2FFA97FC2FFA87FE2FFA21
:1052900099F82FFA89F721F802CB4FEA2C4C21F824
:1052A00002CB4FEA284C21F8028B21F802CB4FEABF
:1052B0002E4CA1F800E0A1F802C021F8047F3F14B1
:1052C0004F8050F8087B54F8048B2FFA97FC2FFA84
:1052D00087F92FFA98F72FFA88F821F804CF4FEAC8
:1052E0002C4CA1F802C021F8047F3F144F8021F814
:1052F000049F4FEA29474F8021F8048F4FEA28473F
:105300004F8050F8047C54F8048B2FFA97FC2FFA46
:1053100087F92FFA98F72FFA88F821F804CF4FEA87
:105320002C4CA1F802C021F8047F3F144F8021F8D3
:10533000049F4FEA29474F8021F8048F4FEA2847FE
:105340004F80091D1033B3427FF776AF23E000BFD3
:1053500050F8046B54F8047B2FFA96FC2FFA86F66B
:105360002FFA97F82FFA87F721F802CB4FEA2C4C47
:1053700021F802CB4FEA284C21F8028B21F802CB0E
:1053800021F8026B361421F8026B3E1421F8027BDF
:105390001B1D21F8026BAB42DADD08E010F9016B4E
:1053A00021F8026B14F9016B21F8026B5B1C93422C
:1053B000F4DBAAF10103104414441FFA83FABAF192
:1053C000000F7FF435AF039BDB071CD0002610E0F5
:1053D00050F8043B2FFA93F42FFA83F321F8024B91
:1053E000241421F8024B21F8023B1B1421F8023B44
:1053F000361DAE42ECDD04E010F9013B21F8023B22
:10540000761C9642F8DBBDE8FF8F0000F0B5002364
:10541000A2F110075AE000BF50F8044B50F8045BAB
:105420002FFA94F62FFA84FC4FEA1C44C4EA0604CF
:10543000CCEA06462FFA95FE2FFA85FC4FEA1C456A
:10544000C5EA0E05CCEA0E4C21F8026B361421F8A1
:10545000026B21F8024B241421F8024B4FEA2C4432
:1054600021F802CB21F8024B2C1421F8025B21F821
:10547000024B50F8084B50F8046C2FFA94F52FFAB1
:1054800084FC4FEA1C44C4EA0504CCEA05452FFA23
:1054900096FE2FFA86FC4FEA1C46C6EA0E06CCEAB8
:1054A0000E4C21F8025B2D1421F8025B21F8024B0F
:1054B000241421F8024B4FEA2C44A1F800C04C8080
:1054C00021F8046F34144C80091D1033BB42A3DD56
:1054D000161FB3421BDC50F8044B2FFA94F52FFA39
:1054E00084F73C0CC4EA0504C7EA054521F8025BD1
:1054F0002D1421F8025B21F8024B241421F8024BF1
:105500001B1DE6E710F9014B21F8024B5B1C93428F
:10551000F8DBF0BDF0B50023A2F1100742E000BFB8
:1055200050F8044B50F8045B2FFA94F62FFA84F4E9
:105530002FFA95FC2FFA85F521F8026B361421F825
:10554000026B21F8024B241421F8024B4FEA2C4441
:1055500021F802CB21F8024B2C1421F8025B21F830
:10556000024B50F8085B50F8044C2FFA95F62FFACE
:1055700085F52FFA94FC2FFA84F421F8026B361487
:1055800021F8026B21F8025B2D1421F8025B4FEA2F
:105590002C45A1F800C04D8021F8044F24144C8004
:1055A000091D1033BB42BBDD121F934211DC50F8C2
:1055B000044B2FFA94F52FFA84F421F8025B2D1492
:1055C00021F8025B21F8024B241421F8024B1B1D29
:1055D000EBE7F0BD2DE9F04F5843DDE9095B684387
:1055E000DDE90BA487B202EB420004EB4009002383
:1055F00040E0B808002614E05FF0000551F804CB45
:105600002FFA9CF82FFA8CFC94FA1CF494FA18F4F4
:10561000401E6D1C80B2802DF0DB251405FA84F449
:10562000264480284FF00004E6D80BE051F8045BD4
:105630002FFA95FC2FFA85F594FA15F494FA1CF4D8
:10564000401E80B20028F1D1201400FA84F08419A1
:1056500007F0030005E000BF11F9015B401E2C4478
:1056600080B20028F8D15BF8235004FB1A5449F8A3
:1056700023405B1C9342BCDBBDE8F08F2DE9F84F63
:105680009A46DDE90A5693468946044600EB05082A
:105690004F100EE05B46324641462046CDF800A052
:1056A00001F05EFC04EB450408EB450806EB8506BB
:1056B0007F1E002FEED15FEAC97008D0002004E001
:1056C00014F9011B26F8021B401CA842F8DBBDE8B8
:1056D000F88F00002DE9FF4FACB0DDF80CB1479911
:1056E000469879B111913C9C429844430020239400
:1056F0001390DDE93C0148431F903B98801E1490B5
:105700001398DDE31190EEE713993A9830F9110000
:105710001D903A99139801EB40002890B0F90200CF
:1057200012903999139851F8200015900846139952
:1057300000EB81002790406817904599139851F825
:1057400020000F900846139900EB810026904068D6
:105750000B901D98162801DB012005E0002801DDD3
:10576000002001E04FF0FF3025901298162801DB51
:10577000012005E0002801DD002001E04FF0FF30AE
:105780002490479840B923992D985B4601FB0B0163
:105790000094119A01F0E4FB00202190229044989B
:1057A00070B122A8009021AB5946239A119801F0BC
:1057B0009FFC449921984843219022984843229085
:1057C00013992E9850F8210021990844219013999B
:1057D0002E9800EB810022994068084422901F997E
:1057E0002C98A1F1040A1E902F9929911F980990D5
:1057F000DDE941103C9A00FB12101B90002046E3AB
:10580000084641994FF0000E48433E9948431C908A
:105810003F98401E2090B7E13C991C9E0EFB01F082
:105820003D99DDF844904843DDE9212106442C9858
:10583000134630440D4600261E9053E1A4F1100794
:1058400000261697F6E000BF59F8047B0D9759F82B
:10585000048BCDF8289050F8047B2FFA87F9CDF807
:105860001490DDF8289059F804CBCDF820C059F8F1
:1058700004CB2FFA97F7CDF828900497DDF8149011
:105880000D9FCDF81CC029FB0722049F27FB082C85
:10589000CDF808C0DDF820C029FB0C11DDF81CC0D4
:1058A00027FB0C1C00EB0A01CDF800C00A682FFA98
:1058B00082F12FFA92F704970D9F21FB0733DDF851
:1058C00020C021FB0C52049F27FB083CDDF82890E8
:1058D000CDF804C0DDF81CC059F8045B59F8041B6E
:1058E00027FB0C2CCDF80CC059F8042B59F8043BBD
:1058F000CDF8289050F804CB2FFA8CF72FFA9CF9AA
:10590000DDF808C027FB05C829FB0188DDF800C0C9
:10591000CDF8088027FB02C729FB037800EB0A07B4
:10592000CDF80080D7F800C02FFA8CF72FFA9CF83A
:10593000DDF804C027FB05C5DDF80CC027FB02C25B
:1059400028FB015CDDF82890CDF804C059F8041B51
:1059500059F8045B28FB032CCDF80CC00C9559F8C2
:10596000042B59F8043BCDF8289050F8045B2FFA2B
:1059700085F92FFA95F7DDF8088029FB018C0C9D3D
:1059800027FB05CCDDF80080CDF808C029FB028597
:1059900027FB0355009500EB0A052F682FFA87F5C2
:1059A0002FFA97F7DDF804C025FB01C1DDF80CC024
:1059B00025FB02C20C9D27FB0518DDF82890CDF8C9
:1059C000048059F8048B59F8045B0C9527FB0325D8
:1059D000039559F8043B089359F8045B079550F870
:1059E000041B2FFA81F72FFA91F1DDF808C027FB8D
:1059F00008C20C9D21FB0522009D27FB0353079D38
:105A000021FB053100EB0A031B682FFA83FC2FFAF8
:105A100093F74546DDF804802CFB0588039D089B21
:105A20002CFB035C0C9D27FB0583079D27FB05C50D
:105A3000169F1036BE427FF707AF271F1697BE424C
:105A40004ADC59F8047B0D9759F8047B0C9750F801
:105A5000048B2FFA88FCCDF814C059F8047B089702
:105A600059F8047B2FFA98F807970D9F2CFB072213
:105A70000C9F28FB0722089F2CFB0711079F28FB80
:105A8000071100EB0A073F682FFA87FC2FFA97F8F7
:105A90000D9F2CFB0733089F2CFB07550C9F28FB01
:105AA0000733079F28FB0755361D169FC7E700BF22
:105AB00039F802CBCDF820C039F8028B90F900708C
:105AC00017FB0C2217FB0811099FC75717FB0C3354
:105AD00017FB0855401C761CA642E9DB1B9E304490
