:020000040800F2
:10000000905F0020ED0200082138000869330008E5
:1000100069350008A9200008013D00080000000023
:1000200000000000000000000000000095380008FB
:10003000D92000080000000091380008ED380008C1
:100040000703000807030008070300080703000868
:100050000703000807030008070300080703000858
:100060000703000807030008070300080703000848
:100070000703000807030008070300080703000838
:100080000703000807030008070300080703000828
:100090000703000807030008070300080703000818
:1000A0000703000807030008070300080703000808
:1000B00007030008070300080703000807030008F8
:1000C00007030008070300080703000807030008E8
:1000D00007030008070300080703000807030008D8
:1000E00007030008070300080703000807030008C8
:1000F00007030008070300080703000807030008B8
:1001000007030008070300080703000807030008A7
:100110000703000807030008070300080703000897
:100120000703000807030008070300080703000887
:100130000703000807030008070300080703000877
:100140000703000807030008070300080703000867
:100150000703000807030008070300080703000857
:100160000703000807030008070300080703000847
:100170000703000807030008070300080000000049
:10018000070300080703000800F002F800F09FF8DA
:100190000AA090E8000C82448344AAF10107DA45E2
:1001A00001D100F094F8AFF2090EBAE80F0013F095
:1001B000010F18BFFB1A43F001031847443903002D
:1001C00064390300103A24BF78C878C1FAD85207BE
:1001D00024BF30C830C144BF04680C6070470000C1
:1001E0000023002400250026103A28BF78C1FBD840
:1001F000520728BF30C148BF0B6070476E2900F01E
:10020000EF83702900F0258566291EF04880652956
:100210001EF0458067291EF0428061291EF0418052
:1002200003681B0A28BF41F08001692900F09C8304
:10023000642900F09983752900F096836F2900F0F6
:10024000B384782900F0F184E92900F04D84E42991
:1002500000F04A84F52900F04784EF2900F0B084CB
:10026000F82900F0F0840368DB0928BF41F0800121
:10027000632901F0A182732901F0A682E32901F02C
:10028000B182F32901F0B682002070471FB51DF03E
:1002900092FF9DE8030000F00DFE01F0C1FB040099
:1002A000002000211DF0ACF8401C606000200021FF
:1002B0001DF0BCF8E06001F0A5FA00F07BFA1FBD6C
:1002C00010B5002001F05EFB01F005FB10BD01F050
:1002D00082FB1146FFF7DAFF1CF0B6F801F032FDA1
:1002E00003B4FFF7EDFF03BC00F0B6FD09488047FB
:1002F00009480047FEE7FEE7FEE7FEE7FEE7FEE708
:10030000FEE7FEE7FEE7FEE704480549054A064B1F
:1003100070470000B13900088901000890470020AB
:10032000905F0020904F0020904F002000487047C1
:100330003010002053EA020C00F069802DE9F04BE8
:100340004FF00006002B1FBFB3FA83F503FA05F444
:1003500024FA05F65E4012BF1643B2FA82F502FA9D
:1003600005F4C5F120051EBF22FA05FC44EA0C0481
:10037000203556EA044C4FEA144418BF641C4FF071
:1003800000084FF00009904271EB030C39D30029AB
:1003900019BFB1FA81F701FA07F6B0FA80F700FA4F
:1003A00007F6C7F120071EBF20FA07FC46EA0C0635
:1003B0002037B6FBF4FCA7EB0507103F07F01F0B37
:1003C000CBF120062CFA06F60CFA0BFB44BFB34621
:1003D0000026202FA4BF5E464FF0000B5BEA060C00
:1003E00008BF4FF0010B19EB0B0948EB0608ABFBFC
:1003F000027C06FB02CC0BFB03CCC01B71EB0C0197
:10040000C1E70B46024641464846BDE8F08B13B5AE
:10041000084318BF4FF0FF300146AFF30080BDE83E
:100420001C4070470FB4044910B503AA029800F0AD
:10043000EBFA10BC5DF814FBE41000200B460146FB
:10044000184600F0E0BC00000EB5054614460E4606
:1004500013A000F0EFFC284600F0ECFC16A000F022
:10046000E9FC304600F0E6FC15A000F0E3FC0021BA
:100470008DF80B100A210DF10A008DF80A1008E022
:1004800094FBF1F201FB124294FBF1F4303200F8DC
:10049000012D002CF4DC00F0CDFC00F0A9FC0000E4
:1004A0002A2A2A20617373657274696F6E206661EF
:1004B000696C65643A2000002C2066696C65200038
:1004C0002C206C696E65200010B5431C02E010F80A
:1004D000011B71B18107FAD14FF0013202C88C1AA9
:1004E0008C4314EAC211F9D0C01A0A0603D0C01E08
:1004F00010BDC01A10BD0A0401D0801E10BD090233
:10050000FCD0401E10BD40EA010370B59B072ED100
:100510004FF00136042A2AD308C810C99D1B9D43F9
:10052000121F15EAC61517D0D8B2E1B2401A50EA28
:10053000056110D198B2A1B2401A50EA05410AD122
:1005400023F07F4024F07F41401A50EA052102D178
:10055000180EA0EB146070BDA342DBD018BA21BA0C
:10056000884201D9012070BD4FF0FF3070BD0AB93B
:10057000002070BD10F8013B11F8014B63B1A3429C
:100580000AD1521E08D010F8013B11F8014B1BB1E3
:10059000A34201D1521EEDD1181B70BD032A40F2B7
:1005A000308010F0030C00F0158011F8013BBCF115
:1005B000020F624498BF11F801CB00F8013B38BF2D
:1005C00011F8013BA2F1040298BF00F801CB38BF3B
:1005D00000F8013B11F0030300F02580083AC0F059
:1005E000088051F8043B083A51F804CBA0E8081001
:1005F000F5E7121D5CBF51F8043B40F8043BAFF334
:100600000080D20724BF11F8013B11F801CB48BF8D
:1006100011F8012B24BF00F8013B00F801CB48BFC3
:1006200000F8012B704710B5203AC0F00B80B1E8FC
:100630001850A0E81850B1E81850A0E81850203A17
:10064000BFF4F5AF5FEA027C24BFB1E81850A0E820
:10065000185044BF18C918C0BDE810405FEA827C3A
:1006600024BF51F8043B40F8043B08BF7047D20751
:1006700028BF31F8023B48BF11F8012B28BF20F8F2
:10068000023B48BF00F8012B704702F0FF0343EA2A
:10069000032242EA024200F002B84FF000020429AD
:1006A000C0F0128010F0030C00F01B80CCF1040CA1
:1006B000BCF1020F18BF00F8012BA8BF20F8022BD5
:1006C000A1EB0C0100F00DB85FEAC17C24BF00F87B
:1006D000012B00F8012B48BF00F8012B70474FF0A9
:1006E000000200B5134694469646203922BFA0E882
:1006F0000C50A0E80C50B1F12001BFF4F7AF09078E
:1007000028BFA0E80C5048BF0CC05DF804EB89007E
:1007100028BF40F8042B08BF704748BF20F8022BC1
:1007200011F0804F18BF00F8012B70470000000047
:1007300030B44FF0013C50F8042B51F8043BCCFA94
:1007400052F4D51A20D1FCB950F8042B51F8043BCF
:10075000CCFA52F4D51A17D1B4B950F8042B51F889
:10076000043BCCFA52F4D51A0ED16CB950F8042BD4
:1007700051F8043BCCFA52F4D51A05D1002CDAD04A
:1007800030BC4FF00000704729BAB1FA81F111F086
:100790001801D1F120008440F2D1CA40CB4012F0C0
:1007A000FF0213F0FF0330BCD01A70477047704748
:1007B0007047000070B5064C7C44064D7D4404E053
:1007C0002046016808448047241DAC42F8D170BD22
:1007D000903403009034030000487047301000202C
:1007E00070B5064600F046FB056806F10B0020F0E8
:1007F0000704B4429CBF002070BD2B466A68BAB1A2
:100800001068A04210D304F1080188423CBF506830
:10081000586007D35168101941601168091B0160C5
:1008200058601460101D70BD13465268002AE7D14D
:100830002146284600F02AFB0028DED170BD70B5A5
:100840000446051F00F016FB0068002C14BF446826
:1008500070BD002C18BFAC423CBF20466468F8D382
:1008600001680A18AA4218BF456003D12A680546E4
:100870001144016028684119A1421CBF6C6070BD21
:100880006168696021680844286070BD10B5FFF791
:100890004DFD006810BD10B50446FFF747FD04602C
:1008A00010BD70B5044685690068C10601D53026C3
:1008B00000E02026C00707D070BDD4E901213046F2
:1008C0009047206A401C20626D1EF6D570BD70B541
:1008D000044685690078C00707D170BDD4E90121BD
:1008E00020209047206A401C20626D1EF6D570BD06
:1008F00009684A0501D540B27047C905FCD500B268
:10090000704709684A0501D5C0B27047C905FCD5D2
:1009100080B2704770B50C460546012A05D028788C
:10092000800600D5EA69002302E0012305E05B1C94
:10093000934202D2E05C0028F9D1A869E618C01AF7
:10094000A861286A184428622846FFF7AAFF04E035
:10095000D5E9012114F8010B9047B442F8D3284699
:10096000FFF7B5FF70BD00002DE9F04106460024F9
:1009700010687529314616A510D0FFF7B9FF002879
:1009800002DA404213A507E031688A0701D512A5B3
:1009900002E0490704D511A5012401E0FFF7B1FFEA
:1009A00000210A2206F1240709E0B0FBF2FCB0FBAB
:1009B000F2F302FB1C00303078541846491C002822
:1009C000F3D123462A463046BDE8F04100F0EDBAA7
:1009D000000000002D0000002B000000200000009F
:1009E00011680268006A530501D508700AE0D30552
:1009F00001D5088006E0130603D5C217C1E900023D
:100A000000E0086001207047074B70B50D467B443D
:100A100000F0B5FE0446284600F0F0FE10B14FF09D
:100A2000FF3070BD204670BD13BA01002DE9FF5F95
:100A300015468A460446DFF8AC80F8440027D8E91A
:100A400000103E46CDE9001010E03AF816106A4654
:100A500002A800F073FF411C07D02178890603D556
:100A6000E269391891420DD80744761C2078800637
:100A700002D5E069B84205DDAE42E6DB3AF8160081
:100A80000028E2D1A069C01BA0612046FFF709FF42
:100A9000D8E90010CDE90010002017E03AF818104E
:100AA0006A4602A800F04AFFB0F1FF3F81460BD032
:100AB00000250DF1080B05E0D4E901211BF8050024
:100AC00090476D1C4D45F7D308F10100B0428046B8
:100AD000E4DB206A384420622046FFF7F8FEBDE8D8
:100AE000FF9F00009AD801002DE9F0418046D21DF9
:100AF00022F007020025D2E90002F52915A614D03C
:100B0000011E72F1000106DA0023D0EB030063EB53
:100B1000020211A608E0D8F800108B0701D50FA635
:100B200002E0490701D50EA601251146002408F16F
:100B3000240704E000F0F4F930323A55641C50EA1E
:100B40000102F7D12B46324621464046BDE8F0412E
:100B500000F02BBA000000002D0000002B00000068
:100B60002000000030B4002100F1240408E002F06D
:100B70000705D208303542EA4372DB086554491C48
:100B800052EA0305F3D10468002310A2250708D513
:100B900004F020040C4304D0C46901230CA2641E99
:100BA000C46130BC00F001BA10B50446214610689B
:100BB000FFF7A7FE02462046BDE810400023D1E71C
:100BC000D21D22F00701D1E90023CBE7000000008D
:100BD00030000000F0B40D460188090502D5214C13
:100BE0007C4402E01F4C7C440E34002100F12406BA
:100BF00008E002F00F071209E75D42EA03721B09E1
:100C00007754491C52EA0307F3D1027800231207F4
:100C100004D5702D06D009B1022311342246F0BC50
:100C200000F0C3B901231034F8E770B504460D464F
:100C300021461068FFF765FE024629462046BDE8BA
:100C400070400023C6E7D21D22F00703D3E900233A
:100C5000C0E70368126843F0200303600823C36100
:100C60000023B7E7FCD601002DE9F05F8946044672
:100C70004FF0000ADFF874B1FB44C0F820A0204612
:100C8000E1688847002874D0252806D0D4E90121DE
:100C90009047206A401C2062F1E700265F4620460C
:100CA000E16888472028054607DB312D05D27819F1
:100CB00010F8200C08B10643F1E7B00701D526F083
:100CC0000406C4F81CA00027C4F818A02A2D09D0D7
:100CD00028461CF08DFB38B304EB8708303DC8F87C
:100CE000185019E059F8041B204604EB8702916163
:100CF000E1688847012F054618D1E069002820DA0D
:100D000026F020061DE0D8F8180000EB800005EB67
:100D100040003038C8F818002046E168884705468A
:100D20001CF066FB0028EED1012F0AD02E2D08D131
:100D30002046E16888477F1C0546022F46F02006C2
:100D4000C4DBA069002803DA404246F00106A06136
:100D5000F00701D026F010066C2D0BD0682D09D0BD
:100D60004C2D39D06A2D35D0742D35D07A2D33D015
:100D700016E038E0E1682F4620468847B84205462D
:100D800009D16C2F26D04FF48060E16806432046DD
:100D90008847054604E06C2F1AD04FF48070064354
:100DA0000DB3A5F14100192802D8203546F400669C
:100DB0004A462946204626604E46FFF71FFA80B174
:100DC00001280BD0F61D26F0070000F1080956E7B0
:100DD0004020E4E78020D8E70020D6E706F10409A8
:100DE0004DE7284652E7206ABDE8F09F8CD6010007
:100DF00010B5002000F0E7FDFFF762FABDE81040F3
:100E0000012000F029B82DE9F041074615460E46AD
:100E10001020FFF7E5FC04000AD06760C4E9026512
:100E200000F02CF80168216004600020BDE8F0812A
:100E30000120FBE710B5044602E0641C00F004F852
:100E400020780028F9D110BD08B569468DF800005A
:100E50000320ABBE08BD000001491820ABBEFEE771
:100E60002600020010B500F0DBFD001D10BD00BF24
:100E700091C50100004870473810002000487047B5
:100E800068100020704770477047704738B50446B7
:100E90000A4600206946AFF30080002808BF38BD2D
:100EA00002460099204600F0BFFD012038BD012018
:100EB00000F075BFF8B5AFF30080054600200C4682
:100EC000102000BF0646A819A0420DD93246694637
:100ED0000020AFF30080070008BF00F060FF00981B
:100EE000A04218BF0546C419FFF7C4FF05600746B6
:100EF000F01D20F007004619284600F00AF8B44219
:100F000008BFF8BDA21B31463868BDE8F84000F0C4
:100F10008BBD00210160C0E90110704710207047AF
:100F200030B5B0F10A0271F100034FEA900E4EEABB
:100F3000817EB0EB0E0061EB91014FEA101E4EEA8C
:100F4000017E10EB0E0041EB11114FEA102E4EEA1C
:100F5000016E10EB0E0041EB11214FEA104E4EEAEC
:100F6000014E10EB0E0041EB1141401841F1000120
:100F70004FEAD00040EA41704FEAD1014FEA8104C4
:100F800044EA907410EB800544EB01046D1944EBC6
:100F90000404521BA3414FF0000348BF0A3200D59E
:100FA00030BD401C41F1000130BD2DE9F0470D4638
:100FB00099469246044600F124080168880604D543
:100FC000E06921F01001216000E00120A84201DD6C
:100FD000471B00E00027A1697A1902EB0900081AF3
:100FE000A0612078C00602D42046FFF75AFC0026F4
:100FF00008E0D4E901211AF806009047206A401C55
:10100000761C20624E45F4DB2078C0060AD52046C7
:10101000FFF747FC06E0D4E9012130209047206A21
:10102000401C2062381EA7F10107F4DC07E0D4E978
:10103000012118F805009047206A401C2062281EF4
:10104000A5F10105F3DC2046FFF741FC20780006FE
:1010500002D50220BDE8F0870120FBE72DE9FF4F14
:101060000C461E464FF0FF378BB0D2E90001DDF889
:1010700060800A908A46C1F30A5505B93D460021B1
:1010800008464FF00000BAF1000F00F4400005DA06
:1010900000EB80004FF4400101EA50004FEA905904
:1010A000B9F1010F00DDB9460A9850EA4A000ED0A6
:1010B00044F61050A5F2FF3545432F14B8F1000F48
:1010C0001ED07542291E1EDDC9F100021CE0B8F1D8
:1010D000010F4FF0000001D0302103E0F24305E0A2
:1010E0002154401CB042FBDB304600220021215439
:1010F0000B99C1F80880C1E900200FB0BDE8F08F5E
:10110000BD1B6D1CDEE74A4600DA694206A800F006
:10111000E5FC06AB93E8070003AB83E80700504605
:101120000A991BF021FB8DE80700A0F500501F383D
:1011300000900398002D0ADD42F21F014A46084440
:10114000002303A9039068461BF08AFD09E0A0F57F
:1011500000504A461F38002303A9039068461BF03D
:1011600094FD8DE807000004000C03D04FF0FF3021
:10117000410800E01046B8F1000F03D000220092B1
:1011800015461EE0751E05D4FFF7CAFE30326255C3
:101190006D1EF9D5B3460122084302D000227F1C00
:1011A00004E02078302801D100227F1E002A099710
:1011B00084D01DE0112D07DAFFF7B2FE3032625500
:1011C0006D1C50EA0102F5D1084302D00098C8B165
:1011D0000EE00021681E05E0235C625C635422542B
:1011E000401E491C8142F7DBAB46A81B401E0990FC
:1011F000002004F80B000B98099AC0F80880C0E999
:10120000002B7AE711264FF0000857E72DE9F04F41
:1012100088460446D21D22F0070191B0D1E90001B1
:10122000CDE90A011BF068FE02460B98C00F01D001
:101230002D2007E02068810701D52B2002E0202126
:1012400001EAC000032A099001D0072A05DB034602
:101250004146204600F002FC0BE12078800601D5D3
:10126000E06900E00620B8F1650F814606D0B8F1CC
:10127000660F18D0B8F1670F70D131E00020B9F1D6
:10128000110F009001DB112301E009F101030AAA0B
:1012900001A90CA8FFF7E2FEDDE90C70002609F1B8
:1012A0000105834647E001204B4600904FF0004780
:1012B0000AAA01A90CA8FFF7D1FEDDE90DB00C992F
:1012C0005D46002610B909F101000D18B9EB0500C3
:1012D00003D4C0F1FF3609F10105A5EB09002BE0AD
:1012E000B9F1010F01DA4FF001090020B9F1110F36
:1012F0000090484601DD112300E003460AAA01A937
:101300000CA8FFF7ABFEDDE90C704D4600268346C6
:10131000207800070AD4AB4500DA5D4601A8012D0C
:1013200004DD411911F8011C302907D04F4502DABC
:1013300017F1040F04DA012082460FE06D1EEEE77C
:10134000002F02DCED1B3E4403E0781CA84200DDC8
:101350007D1CB81B00F1010A4FF000472078000700
:1013600003D4AA4501DB4FF0FF3A0021B7F1004F4B
:101370000DF143088DF8431024D002202B23002FB9
:1013800001DA7F422D230A21021EA0F1010000DCB8
:101390005FB197FBF1FC97FBF1F201FB1C7C174658
:1013A0000CF1300C08F801CDEEE7A8F10100037054
:1013B0002188090501D5452100E06521A0F101083A
:1013C00000F8011C09980FA9A1EB0807FF1D00B147
:1013D0000120411901EBEA70A1693844081A401E46
:1013E000A0612078C00602D42046FFF75AFA099877
:1013F00028B1D4E901219047206A401C206220785E
:10140000C00622D52046FFF74CFA1EE0002E04DB72
:10141000B34502DD01A8805D00E03020D4E9012160
:101420009047206A401C2062761CAAF101005FEA06
:10143000000A0AD100F0F4FAC0680168405CD4E9FF
:1014400001219047206A401C2062281EA5F1010559
:10145000DCDC07E0D4E9012118F8010B9047206A91
:10146000401C2062381EA7F10107F3DC2046FFF77D
:101470002EFA032011B041E62DE9F04F04460D4647
:10148000D21D22F0070089B0D0E9009748463946BE
:101490001BF032FD0246F80F01D02D2307E0206833
:1014A000810701D52B2302E0202101EAC0038DF83A
:1014B00020300BB1012000E00020032A824601D039
:1014C000072A04DB2946204600F0C8FA3FE12078CD
:1014D000800601D40D2500E0E569C7F30A560D2DFD
:1014E00049DA00214FEA175B08464FF00000002F51
:1014F00000F4400007DA00EB80004FF4400100EBFD
:10150000D07001EA60008115012901DD4FF0FF3143
:1015100000224FEA850CBCF1180F06D31346ACF13C
:1015200018004FF08052C24003E04FF4801323FABA
:101530000CF30CF10C0CBCF1200F04D3ACF1200C1B
:1015400009FA0CF001E007FA0CF000294FF000480E
:1015500001DD18B90FE00ED140450CD319EB02099B
:101560005F4121B9404502D19F4329EA0209BBEB03
:10157000175F00D0761C2088000502D57B48784490
:1015800002E07A487844193808AA302302F80A3071
:10159000037C0AF10101002E0AF1020A53546A4643
:1015A00002DC4FF0300101E04FF031014FF0010853
:1015B0008DF8001002D0A6F2FF3603E059EA470189
:1015C00000D06B4E002D02DC2178090704D54FF0C6
:1015D00002082E218DF80110C44600210BE0C7F34C
:1015E00003433F01C35C491C6D1E02F80830052906
:1015F00008F1010801DA002DF1DC00210CE000EB1C
:101600001973491C1B786D1E082902F808304FEA2F
:10161000091908F1010801DA002DF0DC21688B06B8
:1016200002D516E0A8F10108E04505DD02EB08034C
:1016300013F8013C302BF5D0B8F1000F09DD02EBB7
:10164000080313F8013C2E2B03D1090701D4A8F19C
:101650000108002D05DD3E2102F808106D1E08F17D
:101660000108407C002E02F8080008F1010804DAA5
:101670002D20764202F8080002E02B2002F8080034
:101680000A214FF47A70864208F101080BDB96FBC1
:10169000F0F3303302F8083096FBF0F308F101085C
:1016A00000FB136601E0642E0CDB642096FBF0F374
:1016B000303302F8083096FBF0F308F1010800FB24
:1016C000136601E00A2E06DB96FBF1F0303002F8DB
:1016D000080008F1010896FBF1F001FB10603030C2
:1016E00002F80800A16908F1010808EB050202EB05
:1016F0000A00081AA0612078C00602D42046FFF72D
:10170000D0F8216A08AE01EB0A00206204E0D4E9B7
:10171000012116F8010B9047BAF1010AF7D220789F
:10172000C00602D52046FFF7BCF86E4609E016F861
:10173000010B3E280FD0D4E901219047206A401CBC
:101740002062B8F10108F2D22046FFF7C0F809B0D4
:101750000320BDE8F08F206A2844206203E0D4E92A
:101760000121302090476D1EEBD3F8E7AACD010090
:1017700002FCFFFF01694A1C02610878704700B54E
:101780008FB0CDE901310021059105497944CDE9BA
:10179000031011466846FFF767FA0FB000BD00005E
:1017A000E5FFFFFF10B5436913B1AFF3008001E01F
:1017B000FFF7B0F8012010BD127800F124010A7083
:1017C00000224A700122EDE711684FF0FF32E9E78D
:1017D00010B5436913B1AFF3008001E0FFF726F9BC
:1017E000012010BD128800F1240182840022C284ED
:1017F0000122EDE711684FF0FF32E9E7007B00F0CE
:101800008000704710B542485421FEF768FF4148F8
:101810005421FEF764FF40485421FEF760FF3F4922
:101820003B483C4A3F4B08603D490A603A491960D1
:10183000531C0365481C1065012008653B48344A69
:1018400039A1784400F0E0F920B9384878440A38E2
:1018500000F09EFA37482F4A35A1784400F0D4F9B9
:1018600020B9344878440A3800F092FA32482A4ABB
:101870002FA1784400F0C8F920B92F4878440A38DD
:1018800000F086FA40232248DC000021224600F0C6
:1018900097F920B125487844543800F079FA1D486A
:1018A00022464023002100F08BF920B121487844E2
:1018B000543800F06DFA184822461023002100F039
:1018C0007FF9002806D01C487844BDE810405638FF
:1018D00000F05EBA10BD104870B5006D20F0010434
:1018E0000B4800F009FA0B4800F006FA0A4800F02D
:1018F00003FA09E0206D20F00105204600F0FCF914
:101900002046FEF79CFF2C46002CF3D170BD000052
:1019100090100020E410002038110020000000206A
:10192000040000200800002072000000A6D1010081
:101930007700000095D101006ED101002DE9F04142
:1019400016460C460546FFF78DFA036893F8010129
:10195000012807D0FF2C12D8185D80B101202C700F
:10196000BDE8F081D3F807013246214603F20713A0
:10197000C7182846BC46BDE8F041002360474FF039
:10198000FF30EDE72DE9F0410646FFF777FA804694
:10199000454613E016B1E068B0420ED120682860D9
:1019A000D4E90101D8F8007088472046FEF747FFC8
:1019B000D8F80000B842EBD100E025462C68002C96
:1019C000E8D1BDE8F08110B500F0CAF9BDE81040DB
:1019D00000F0C1B970477546FEF7FEFEAE46050041
:1019E0006946534620F00700854618B020B5FEF73B
:1019F0008BFCBDE820404FF000064FF000074FF091
:101A000000084FF0000BAC46ACE8C009ACE8C009D8
:101A1000ACE8C009ACE8C00921F007018D46704769
:101A20000048704750100020034640688C4600284C
:101A300018BF88423CBF03464068F8D31868184472
:101A4000884207D00CF1030020F00700001D411A66
:101A5000521A0146081D0A60FEF7F1BE2DE9F04159
:101A60001F46044603260168072A01F4006004DBD0
:101A700008B116A505E016A503E008B115A500E01C
:101A800015A521F010002060A069C01EA0610FB153
:101A9000401EA0612046FEF704FF4FB1D4E90121AA
:101AA00038469047206A401C2062C01C206206E035
:101AB000206AFAE7D4E9012115F8010B9047761E58
:101AC000F8D22046FEF703FFBDE8F0814E414E00FC
:101AD0006E616E00494E4600696E66002DE9F04762
:101AE000814616468AB0354878440DC88DE80D0009
:101AF00032487844801C03AC0DC884E80D0041F6E0
:101B00009B300844372190FBF1F290FBF1F5A5F1F1
:101B1000800501FB12041B3C02D56442012000E059
:101B20000020DFF898A080460027FA44AAF1BE0AF8
:101B30000EE0E0070AD03246684607EB4701012372
:101B40000AEB81011BF0A1F88DE8070064107F1CEF
:101B5000002CEED1194F7F44AE3F19E0E80715D0B5
:101B600007EB04100DF1180A90E80E008AE80E0049
:101B7000C068F04201D1981908903246012306A9A5
:101B800003A81BF082F803AB83E807006D10641C08
:101B9000002DE3D14FF0010332466946B8F1000F42
:101BA00003A802D01BF05CF801E01BF06EF8C9E955
:101BB0000001C9F808200AB0BDE8F087D0C80100CC
:101BC00070B5C468A50713D0650211D4B2F5807F43
:101BD00009D0B2F5007F06D0B2F5806F08D101239D
:101BE00000F1240106E05D1E6FF07F46B54201D38F
:101BF000012070BD0161C361416024F47061114333
:101C0000C160002070BD00002DE9F0410C46164671
:101C1000070047D0104600F06FF82078611C61285B
:101C20000AD0722802D077283CD102E00125002496
:101C300005E00225042402E0082448F2020511F818
:101C4000010B2B2806D0622809D011F8010C74284A
:101C50000AD00BE045F0030544F00204EFE745F03D
:101C6000040544F00104EAE744F010043846214634
:101C700011F03AFC411C15D00021316171604FF424
:101C80000071F560F1617061200704D530460222D1
:101C9000002100F08BF8306D40F0010030653046D7
:101CA000BDE8F0810020FBE72DE9F0410D46064636
:101CB000104C206DC10704D0410804D020F001046D
:101CC000F7E722460EE05420FEF78AFD07000ED00B
:101CD000206D47F001010843542120653846FEF786
:101CE000FEFC3A4629463046BDE8F0418CE700202C
:101CF000D6E70000901000202DE9F04704464FF091
:101D0000FF380026C568D4E90497A80718D02046F4
:101D100000F008F9384611F097FB002800DA464633
:101D2000280502D54846FEF78AFD4C212046FEF7DD
:101D3000D6FC206D20F0010020653046BDE8F0871C
:101D40004046FBE710B50446AFF300802046BDE8EF
:101D50001040FEF7C5BA002801D0FFF77DB87047E4
:101D600010B5002102A000F021F9012010BD0000F3
:101D7000534947414252543A2041626E6F726D613D
:101D80006C207465726D696E6174696F6E0000001D
:101D900010B500F025F9BDE81040FFF7DCBF10B525
:101DA00000F038F9BDE81040FFF7D5BF2DE9F0414C
:101DB000044616460D464769007B80072ED03846FC
:101DC00011F06EFB50BB3EB3012E02D0022E25D186
:101DD00004E0204600F046F905441DE0384611F0C5
:101DE00059FBE168002841F01001E16005DA204666
:101DF00000F058F80120BDE8F081C9030BD56268F6
:101E0000E16A914200D81146A26911442269891AF7
:101E1000814200DD08460544002D01DA0220EAE790
:101E2000E16A6068E268814206D29103E06203D50C
:101E300022F4003141F01002A6690027AE4213DC03
:101E4000E16A814201D90B4600E0034603EB060C30
:101E50002369ACEB030CAC4506DD814201D98C460D
:101E600000E084469C4505D1A760276042F0200031
:101E7000A5620DE0AD1BE669AE1B8142A66000D9EC
:101E80000846C01A281A20605819606022F0200005
:101E900003490840E060002084F84870ABE7000088
:101EA000BFCFD7FFC16821F4001141F08001C160AC
:101EB00000218160016070472DE9F74F15460C46FF
:101EC0004FF0FF3B3848D768D2F814A0074209D03A
:101ED0005046A96911F040FB002819DB3248C04385
:101EE0000740EF604FF000496FF000484C4501D3C8
:101EF000464600E0264600993B465046324611F0E1
:101F000033FBA96920F00042B21A1144A96128B13B
:101F10002846FFF7C7FF5846BDE8FE8FA41BE5D152
:101F20000020F9E770B504460569C06A6168884217
:101F300000D80846E16821F42011E160C90312D5F8
:101F4000A84208D02246411B2846FFF7B5FF10B132
:101F50004FF0FF3070BD0020E562C4E90150E06839
:101F600020F48030E060002070BD10B50446C068E9
:101F700020F02000E060A16AA06988420DD02046D0
:101F8000FFF7D0FFE06820F4405040F01000E06020
:101F9000A06AA0612069E062606044F24001E068EC
:101FA0008843E06010BD00001000020070B50546D7
:101FB0000C460A2000E06D1CFEF746FF35B128787C
:101FC0000028F8D102E0641CFEF73EFF14B120782F
:101FD0000028F8D1BDE870400A20FEF735BF0000A8
:101FE00010B5014602A0FFF7E1FF012010BD00007F
:101FF00053494752545245443A20526564697265C8
:1020000063743A2063616E2774206F70656E3A20A6
:102010000000000010B5012805D0002103A0FFF743
:10202000C5FF012010BD09A1F8E700005349475240
:10203000544D454D3A204F7574206F662068656198
:1020400070206D656D6F7279000000003A20486560
:102050006170206D656D6F727920636F727275703B
:102060007465640010B50146C268900703D09006FD
:1020700007D5886A0AE0FEF759F901210160881E38
:1020800010BD8B69486818440B69C01A91F8483034
:102090001BB191F84910401A10BD1103FCD500285E
:1020A000FADD401E10BD0000FFE7FEE780B582B0FC
:1020B0000190019808B9FFE70CE00198FEF704FAD7
:1020C0000090009830B1FFE70198BDF800101AF0B9
:1020D0000FFBFFE702B080BD7047000072B6FFE75C
:1020E000FEE7000080B582B00090009820B9FFE7BD
:1020F00001208DF8070011E00098407938B9FFE71A
:10210000009900200871009800F00CF8FFE7009992
:102110000120487100208DF80700FFE79DF80700B7
:1021200002B080BD82B001900198006843F20001C6
:10213000C4F20201884212D1FFE7FFE700200090BD
:1021400043F63000C4F20200016841F4805101609E
:10215000006800F4805000900098FFE7FFE702B0AD
:10216000704700008EB00D900C9100200A900990ED
:1021700008900B90FFE70B980F2800F2CC81FFE747
:102180000B99012088400A900C9800680A99084031
:10219000099009980A99884240F0B881FFE70C98A5
:1021A000406800F00300012807D0FFE70C98406862
:1021B00000F0030002282FD1FFE70D9880680890F7
:1021C0000B984100032000FA01F108988843089019
:1021D0000C98C0680B99490000FA01F1089808436F
:1021E000089008980D9988600D98406808900B99A0
:1021F000012000FA01F10898884308900C98406883
:10220000C0F300100B9900FA01F1089808430890F8
:1022100008980D994860FFE70C98406800F00300AB
:10222000032818D0FFE70D98C06808900B9841006C
:10223000032000FA01F10898884308900C98806800
:102240000B99490000FA01F1089808430890089892
:102250000D99C860FFE70C98406800F00300022861
:1022600026D1FFE70D980B996FF0030202EA5101A6
:102270000844006A08900B9800F0070081000F20C6
:1022800000FA01F10898884308900C9800690B99AE
:1022900001F00701890000FA01F10898084308904D
:1022A00008980D990B9B02EA530211440862FFE75C
:1022B0000D98006808900B984100032000FA01F186
:1022C0000898884308900C98406800F003000B9928
:1022D000490000FA01F108980843089008980D9900
:1022E00008600C9880798007002800F00E81FFE7D5
:1022F000FFE70020079043F64400C4F202000168A3
:1023000041F480410160006800F480400790079824
:10231000FFE70B9820F0030043F60801C4F2010127
:10232000405808900B9800F0030081000F2000FA3D
:1023300001F10898884308900D980021C4F2020129
:10234000884203D1FFE7002006905EE00D9840F23E
:102350000041C4F20201884203D1FFE70120059049
:1023600050E00D9840F60001C4F20201884203D10A
:10237000FFE70220049042E00D9840F60041C4F2CD
:102380000201884203D1FFE70320039034E00D9857
:1023900041F20001C4F20201884203D1FFE70420A8
:1023A000029026E00D9841F20041C4F202018842F9
:1023B00003D1FFE70520019018E00D9841F60001D8
:1023C000C4F20201884203D1FFE7062000900AE030
:1023D0000D9941F60042C4F202020820914208BF62
:1023E00007200090FFE700980190FFE70198029016
:1023F000FFE702980390FFE703980490FFE7049833
:102400000590FFE705980690FFE70698C0B20B9984
:1024100001F00301890000FA01F1089808430890CF
:1024200008980B9921F0030143F60802C4F2010257
:10243000885043F60840C4F20100006808900999EA
:102440000898884308900C988079C006002805D524
:10245000FFE70999089808430890FFE7089843F6B2
:102460000841C4F20101086043F60C40C4F20100C7
:102470000068089009990898884308900C9880791A
:102480008006002805D5FFE70999089808430890B9
:10249000FFE7089843F60C41C4F20101086043F6D7
:1024A0000440C4F201000068089009990898884324
:1024B00008900C9880798007002805D5FFE70999D6
:1024C000089808430890FFE7089843F60441C4F2CF
:1024D0000101086043F60040C4F201000068089062
:1024E00009990898884308900C988079C00728B10A
:1024F000FFE70999089808430890FFE7089843F612
:102500000041C4F201010860FFE7FFE7FFE70B9815
:1025100001300B902FE60EB07047000044F2887037
:10252000C2F200000068704741F22000C2F20000D1
:10253000027844F28871C2F2000108681044086011
:102540007047000080B543F60041C4F202010868FC
:1025500040F400700860086840F480600860086813
:1025600040F480700860032000F080F80F2000F035
:1025700005F800F03BF8002080BD000080B582B077
:10258000009040F20C00C2F20000006841F220010D
:10259000C2F200010A784FF47A71B1FBF2F1B0FB9C
:1025A000F1F000F09BFD20B1FFE701208DF807005E
:1025B00018E000980F280DD8FFE700994FF0FF3082
:1025C000002200F039F8009841F22401C2F2000123
:1025D000086003E001208DF8070003E000208DF87B
:1025E0000700FFE79DF8070002B080BD82B0FFE75B
:1025F0000020019043F64400C4F20200016841F457
:1026000080410160006800F4804001900198FFE77C
:10261000FFE70020009043F64000C4F2020001688A
:1026200041F080510160006800F0805000900098F7
:10263000FFE702B07047000080B586B08DF8170044
:10264000049103920020029010F092FE02909DF9F6
:102650001700019002980499039A01F0E3F80146EB
:10266000019810F08DFE06B080BD000080B582B0EC
:102670000190019810F0A6FE02B080BD80B584B034
:1026800002900191029820B9FFE701208DF80F0018
:1026900021E1019843F60041C4F20201096801F00A
:1026A0000701884212D9FFE7019943F60040C4F2BE
:1026B00002000170006800F007000199884204D010
:1026C000FFE701208DF80F0005E1FFE70298007891
:1026D000800700282AD5FFE70298007840070028E5
:1026E00009D5FFE743F60801C4F20201086840F487
:1026F000E0500860FFE7029800780007002809D53D
:10270000FFE743F60801C4F20201086840F46040A4
:102710000860FFE743F60801C4F20201086820F0F0
:10272000F000029A926810430860FFE70298007870
:10273000C00700286ED0FFE702984068012811D139
:10274000FFE743F60000C4F20200006800F4003125
:102750000020B0EB514F04D1FFE701208DF80F00AE
:10276000B9E02CE002984068022805D0FFE7029803
:102770004068032811D1FFE743F60000C4F20200CD
:10278000006800F000710020B0EB516F04D1FFE74A
:1027900001208DF80F009EE010E043F60000C4F227
:1027A0000200006800F002010020B0EB510F04D1DC
:1027B000FFE701208DF80F008DE0FFE7FFE743F60C
:1027C0000801C4F20201086820F00300029A52686E
:1027D00010430860FFF7A2FE0090FFE743F60800F1
:1027E000C4F20200006800F00C0002994968B0EBE6
:1027F000810F0ED0FFE7FFF791FE0099401A41F2DA
:102800008931884204D3FFE703208DF80F0062E08E
:10281000E4E7FFE7019843F60041C4F202010968CA
:1028200001F00701884212D2FFE7019943F6004008
:10283000C4F202000170006800F0070001998842AC
:1028400004D0FFE701208DF80F0044E0FFE7029875
:102850000078400700280CD5FFE743F60801C4F2D2
:102860000201086820F4E050029AD2681043086020
:10287000FFE702980078000700280DD5FFE743F630
:102880000801C4F20201086820F46040029A12694B
:1028900040EAC2000860FFE700F04CF843F6080188
:1028A000C4F202010968C9B20A094EF2D431C0F675
:1028B0000101895CC84040F20C01C2F200010860CD
:1028C00041F22400C2F200000068FFF757FE00202A
:1028D0008DF80F00FFE79DF80F0004B080BD0000E9
:1028E00040F20C00C2F200000068704780B5FFF7AC
:1028F000F7FF43F60801C4F202010968C1F382221E
:102900004EF2E431C0F60101895CC84080BD000090
:1029100080B5FFF7E5FF43F60801C4F2020109683C
:1029200089B24A0B4EF2E431C0F60101895CC8401D
:1029300080BD000080B586B0002005900490039013
:10294000029043F60800C4F20200006800F00C0098
:102950000146019140B1FFE7019804280AD0FFE742
:10296000019808280CD04FE042F20040C0F2F40079
:1029700002904FE041F20020C0F27A00029049E05C
:1029800043F60400C4F20200016801F03F01059122
:1029900000684002002813D5FFE743F60400C4F2A4
:1029A00002000068C0F3881041F20021C0F27A01F1
:1029B000A0FB0101059A0023FDF7BCFC049012E086
:1029C00043F60400C4F202000068C0F3881042F22B
:1029D0000041C0F2F401A0FB0101059A0023FDF7BC
:1029E000A9FC0490FFE743F60400C4F2020000686B
:1029F00000F44031022000EBD13003900498039999
:102A0000B0FBF1F0029005E042F20040C0F2F400A9
:102A10000290FFE7029806B080BD000080B586B046
:102A20000490049820B9FFE701208DF8170050E3C7
:102A300004980078C007002800F0A580FFE743F65F
:102A40000800C4F20200006800F00C00042813D053
:102A5000FFE743F60800C4F20200006800F00C0033
:102A600008281ED1FFE743F60400C4F20200006804
:102A70004002002815D5FFE743F60000C4F202002B
:102A8000006800F400310020B0EB514F08D0FFE7A0
:102A90000498406820B9FFE701208DF8170018E37B
:102AA00070E0FFE704984068B0F5803F09D1FFE788
:102AB00043F60001C4F20201086840F48030086067
:102AC00020E004984068B0F5A02F0DD1FFE743F651
:102AD0000001C4F20201086840F480200860086820
:102AE00040F4803008600CE043F60001C4F20201BB
:102AF000086820F480300860086820F480200860AE
:102B0000FFE7FFE7FFE704984068E8B1FFE7FFF75A
:102B100005FD0390FFE743F60000C4F202000068E1
:102B200000F400310020B0EB514F0CD1FFE7FFF76C
:102B3000F5FC0399401A652804D3FFE703208DF8BC
:102B40001700C6E2E7E71CE0FFF7E8FC0390FFE7A9
:102B500043F60000C4F20200006800F400310020D7
:102B6000B0EB514F0CD0FFE7FFF7D8FC0399401AA8
:102B7000652804D3FFE703208DF81700A9E2E7E7F3
:102B8000FFE7FFE7FFE7049800788007002840F19F
:102B90009680FFE743F60800C4F20200006810F0D8
:102BA0000C0F13D0FFE743F60800C4F202000068E0
:102BB00000F00C0008282CD1FFE743F60400C4F213
:102BC000020000684002002823D4FFE743F600001B
:102BD000C4F20200006800F002010020B0EB510FC7
:102BE00009D0FFE70498C068012804D0FFE701205E
:102BF0008DF817006DE243F60001C4F20201086887
:102C000020F0F800049A126940EAC2000860FFE769
:102C100054E00498C06870B3FFE70021C4F2472174
:102C200001200860FFF77AFC0390FFE743F60000FD
:102C3000C4F20200006800F002010020B0EB510F66
:102C40000CD1FFE7FFF76AFC0399401A032804D36D
:102C5000FFE703208DF817003BE2E7E743F60001AA
:102C6000C4F20201086820F0F800049A126940EAF0
:102C7000C200086021E00021C4F247210020086062
:102C8000FFF74CFC0390FFE743F60000C4F202009C
:102C9000006800F002010020B0EB510F0CD0FFE7FC
:102CA000FFF73CFC0399401A032804D3FFE70320F5
:102CB0008DF817000DE2E7E7FFE7FFE7FFE704986D
:102CC0000078000700284BD5FFE70498406918B347
:102CD000FFE740F68061C4F2472101200860FFF75A
:102CE0001DFC0390FFE743F67400C4F20200006885
:102CF00000F002010020B0EB510F0CD1FFE7FFF70D
:102D00000DFC0399401A032804D3FFE703208DF834
:102D10001700DEE1E7E722E040F68061C4F24721D8
:102D200000200860FFF7FAFB0390FFE743F674000A
:102D3000C4F20200006800F002010020B0EB510F65
:102D40000CD0FFE7FFF7EAFB0399401A032804D3EE
:102D5000FFE703208DF81700BBE1E7E7FFE7FFE798
:102D6000049800784007002840F1CE80FFE700205B
:102D70008DF8070043F64000C4F202000068C0006E
:102D8000002815D4FFE7FFE70020009043F640003D
:102D9000C4F20200016841F080510160006800F057
:102DA000805000900098FFE701208DF80700FFE7B2
:102DB00047F20000C4F200000068C005002822D4D9
:102DC000FFE747F20001C4F20001086840F4807098
:102DD0000860FFF7A3FB0390FFE747F20000C4F28F
:102DE00000000068C00500280CD4FFE7FFF796FB41
:102DF0000399401A032804D3FFE703208DF8170036
:102E000067E1EAE7FFE7FFE704988068012809D156
:102E1000FFE743F67001C4F20201086840F00100C8
:102E200008601FE00498806805280DD1FFE743F68D
:102E30007001C4F20201086840F0040008600868EC
:102E400040F0010008600CE043F67001C4F202019A
:102E5000086820F001000860086820F0040008609D
:102E6000FFE7FFE7FFE704988068F8B1FFE7FFF7A7
:102E700055FB0390FFE743F67000C4F202000068C0
:102E800000F002010020B0EB510F0ED1FFE7FFF779
:102E900045FB0399401A41F28931884204D3FFE788
:102EA00003208DF8170014E1E5E71EE0FFF736FB7D
:102EB0000390FFE743F67000C4F20200006800F0E0
:102EC00002010020B0EB510F0ED0FFE7FFF726FB09
:102ED0000399401A41F28931884204D3FFE7032065
:102EE0008DF81700F5E0E5E7FFE79DF807000128FA
:102EF00009D1FFE743F64001C4F20201086820F05F
:102F000080500860FFE7FFE704988069002800F020
:102F1000DC80FFE743F60800C4F20200006800F01E
:102F20000C00082800F08580FFE7049880690228DB
:102F30005CD1FFE76021C4F2472100200860FFF761
:102F4000EDFA0390FFE743F60000C4F202000068C8
:102F500000F000710020B0EB516F0CD0FFE7FFF7DD
:102F6000DDFA0399401A032804D3FFE703208DF804
:102F70001700AEE0E7E70499C869D1F820C04B6AB2
:102F80008A6A40EA0C0040EA8310D2034FF6FF73CE
:102F90009A43A2F580321043C96A40EA016043F6C1
:102FA0000401C4F2020108606021C4F2472101203B
:102FB0000860FFF7B3FA0390FFE743F60000C4F29E
:102FC0000200006800F000710020B0EB516F0CD1DE
:102FD000FFE7FFF7A3FA0399401A032804D3FFE79A
:102FE00003208DF8170074E0E7E721E06021C4F2C8
:102FF000472100200860FFF791FA0390FFE743F6AE
:103000000000C4F20200006800F000710020B0EB84
:10301000516F0CD0FFE7FFF781FA0399401A03289C
:1030200004D3FFE703208DF8170052E0E7E7FFE73E
:103030004AE004988069012804D1FFE701208DF857
:10304000170046E043F60400C4F202000068029054
:1030500004988069012831D0FFE7029800F48000CD
:103060000499C969884229D1FFE7029800F03F001E
:103070000499096A884221D1FFE7029847F6C07196
:1030800008400499496AB0EB811F17D1FFE7029805
:1030900000F440300499896AC9034FF6FF729143E6
:1030A000A1F58031884209D1FFE7029800F07060F5
:1030B0000499C96AB0EB016F04D0FFE701208DF8D5
:1030C000170006E0FFE7FFE7FFE700208DF8170095
:1030D000FFE79DF8170006B080BD000080B582B004
:1030E0000190019800F0D8FB02B080BD80B582B09D
:1030F0000090009820B9FFE701208DF807003EE01E
:103100000098806908B1FFE700E0FFE7009890F8B9
:103110003D0040B9FFE70099002081F83C0000988D
:1031200000F032F8FFE70099242081F83D00009874
:103130000168C86820F40050C860009800F0D8FC0E
:1031400000980168086920F49040086100980168BF
:10315000486920F02A00486100980168C86840F476
:103160000050C860009900200864009A202182F86D
:103170003D10009A82F83E108DF80700FFE79DF899
:10318000070002B080BD000080B588B00790002025
:10319000069005900490039002900798006841F211
:1031A0000001C4F20101884234D1FFE7FFE70020AB
:1031B000019043F64400C4F20200016841F010019E
:1031C0000160006800F0100001900198FFE7FFE740
:1031D0000020009043F63000C4F20200016841F084
:1031E00001010160006800F0010000900098FFE715
:1031F0004FF4C0600290022003900020049003204E
:103200000590072006900020C4F2020002A9FEF7F4
:10321000A9FFFFE708B080BD80B58AB0089007918C
:10322000ADF81A20059300200290089890F83D0010
:10323000202840F09080FFE7079820B1FFE7BDF815
:103240001A0020B9FFE701208DF8270087E0FFE78B
:10325000089890F83C00012804D1FFE702208DF87F
:1032600027007CE00899012081F83C00FFE7FFE798
:103270000899002008640899212081F83D00FFF793
:103280004DF90290BDF81A0008998884BDF81A001B
:103290000899C88408988068B0F5805F09D1FFE775
:1032A0000898006928B9FFE7002004900798039068
:1032B00004E00798049000200390FFE7FFE70899D7
:1032C000002081F83C00FFE7FFE70898C08C58B366
:1032D000FFE70898029B05996A4611608021002249
:1032E00000F0A4FC20B1FFE703208DF8270036E0B2
:1032F000049858B9FFE7039800886FF35F20089996
:103300000968486003980230039008E00498007848
:10331000089909684860049801300490FFE708990B
:10332000C88C0138C884D0E70898029B05996A4682
:1033300011604021002200F079FC20B1FFE703205A
:103340008DF827000BE00899202081F83D0000202F
:103350008DF8270003E002208DF82700FFE79DF895
:1033600027000AB080BD0000FFE7FEE780B541F20C
:103370000C30C2F2000043F20001C4F2020101600D
:10338000FEF7B0FE18B1FFE7FEF7A8FEFFE780BD2D
:1033900082B0FFE70020019043F63000C4F2020043
:1033A000016841F080010160006800F08000019038
:1033B0000198FFE7FFE70020009043F63000C4F2D9
:1033C0000200016841F001010160006800F00100A5
:1033D00000900098FFE702B07047000080B582B00F
:1033E00041F21430C2F20000019041F20001C4F237
:1033F000010101604FF4E131416000218160C16051
:1034000001610C2242618161C161FFF76FFE18B159
:10341000FFE7FEF763FEFFE702B080BD80B582B034
:103420004EF6FC10C0F6010041F26031C2F200011C
:103430004FF4505210F0C4F80190019838B1FFE7F2
:1034400041F6B700C0F60300FCF7ECFFFFE702B05F
:1034500080BD000080B59CB000201A90199041F208
:103460005830C2F200000068002870D0FFE741F237
:103470005830C2F2000000680021019105AA19F03D
:10348000DBF8019810991A910490FFE70498B0F5C1
:10349000806F0FDAFFE7049A40F22000C2F20000CA
:1034A00050F822001A9941F82200FFE704980130F1
:1034B0000490EBE741F25830C2F2000000680021AE
:1034C000009105AA19F0EAF81098199041F6AF009A
:1034D000C0F60300FCF7A6FF00980390FFE70398EF
:1034E00063280DDCFFE741F25830C2F200000068AB
:1034F00019F0BAF81890FFE7039801300390EEE74F
:1035000041F6A900C0F60300FCF78CFF189820B123
:10351000FFE74FF0FF301B9002E000201B90FFE719
:1035200000200290FFE7029809280FDCFFE71998B6
:10353000029A50F8220044F26071C2F2000141F890
:103540002200FFE7029801300290ECE7FFE71B98AA
:1035500038B1FFE741F60010C0F60300FCF762FF48
:10356000FFE71CB080BD0000FFE7FEE780B58EB02E
:103570000C930B900A9109920020089009980790EB
:103580000A9801380690FFE7079801780020039019
:1035900041B1FFE70899069A00209142B8BF012087
:1035A0000390FFE70398C007002800F02D81FFE794
:1035B00007980078252840F01C81FFE70798013024
:1035C00007900798007801460291252800F0BE80F8
:1035D000FFE70298632800F0C380FFE702986428A1
:1035E00011D0FFE70298662879D0FFE70298732888
:1035F00000F0D280FFE70298752824D0FFE70298F8
:10360000782840D0F4E006980899401A0A2809DC86
:10361000FFE70B99089A501C0890002088540898DE
:103620000D90FAE00B98089908440C990A1D0C9229
:10363000096800F009FF01460898084408900798B7
:1036400001300790D4E006980899401A0A2809DC4E
:10365000FFE70B99089A501C08900020885408989E
:103660000D90DAE00B98089908440C990A1D0C9209
:10367000096800F007FF0146089808440890079879
:1036800001300790B4E006980899401A092809DC2F
:10369000FFE70B99089A501C08900020885408985E
:1036A0000D90BAE00B99089A501C0890302088546D
:1036B0000B99089A501C0890782088540B98089908
:1036C00008440C990A1D0C92096801F0A1F8014602
:1036D00008980844089007980130079088E00698F9
:1036E0000899401A00EE100AB8EEC00AB2EE0C1AA1
:1036F000B4EE410AF1EE10FA09DAFFE70B99089AE5
:10370000501C08900020885408980D9085E00B9874
:103710000899084401900C98073020F0070000F148
:1037200008010C9190ED000B51EC100B19F094FE78
:103730000146019800EE101A00F078FE0146089844
:103740000844089007980130079051E00798411C01
:10375000079100780B99089A531C0893885447E006
:1037600006980899401A002809DCFFE70B99089A87
:10377000501C08900020885408980D904DE00C983B
:10378000011D0C9100680B99089A531C08938854EA
:103790000798013007902BE00C98011D0C910068F0
:1037A000059000200490FFE7049808990144069AC8
:1037B00000209142009008DAFFE705980499405CE8
:1037C000002818BF01200090FFE70098C00758B1FB
:1037D000FFE7059804994A1C0492405C0B99089AEB
:1037E000531C08938854DFE7079801300790FFE7E0
:1037F00009E00798411C079100780B99089A531C1F
:1038000008938854FFE7BFE60B99089A501C08906C
:103810000020885408980D90FFE70D980EB080BDE9
:10382000FFE7FEE788B0079006910592079800F041
:10383000070004900498C0F10700052803D3FFE7B0
:103840000420019004E00498C0F107000190FFE714
:103850000198039004980430062803D8FFE700205D
:10386000009003E0049803380090FFE7009802906E
:1038700006980399012202FA01F101390840029BDE
:10388000984005999A40013A1140084308B07047A2
:10389000704700007047000080B582B0009000982B
:1038A0000138B0F1807F03D3FFE70120019019E0D8
:1038B000009801384EF21401CEF2000108604FF07A
:1038C000FF300F210FF05CFD4EF21801CEF2000127
:1038D000002008604EF21002CEF2000207211160B3
:1038E0000190FFE7019802B080BD000080B5FEF7AF
:1038F0001BFE80BD80B594B008A83021FCF7EFFE18
:10390000002007900690059004900390FFE70020A8
:10391000029043F64000C4F20200016841F0805179
:103920000160006800F0805002900298FFE7FFE716
:103930000020019047F20000C4F20000016841F449
:1039400080410160006800F4804001900198FFE729
:10395000012008904FF48030099002210E914FF41D
:1039600080000F9004201090A822119212911390C1
:1039700008A8FFF753F818B1FFE7FEF7AFFBFFE722
:103980000F20039002200490002005904FF4A050D7
:1039900006904FF48050079003A80521FEF76EFEB5
:1039A00018B1FFE7FEF79AFBFFE714B080BD0000F7
:1039B0004EF68851CEF20001086840F470000860AD
:1039C0007047000082B001900199042000EB810053
:1039D0000090009802B0704783B08DF807009DF802
:1039E000070001460091112800F278800099DFE875
:1039F00001F0090F212D3957451B4B335D63513FB2
:103A0000696F271543F23370C0F6030002906BE034
:103A100043F2E260C0F60300029065E043F21270E8
:103A2000C0F6030002905FE043F21370C0F603009B
:103A3000029059E043F2EB60C0F60300029053E0BD
:103A400043F2EA60C0F6030002904DE043F22470B6
:103A5000C0F60300029047E043F22570C0F6030071
:103A6000029041E043F2FA60C0F6030002903BE0AE
:103A700043F2F960C0F60300029035E043F2417072
:103A8000C0F6030002902FE043F20070C0F603007E
:103A9000029029E043F21970C0F60300029023E07F
:103AA00043F23A70C0F6030002901DE043F20A7040
:103AB000C0F60300029017E043F2F160C0F6030085
:103AC000029011E043F22A70C0F6030002900BE06E
:103AD00043F24670C0F60300029005E043F24E70D8
:103AE000C0F603000290FFE7029803B070470000A1
:103AF00080B586B0059005980068006920F44050B4
:103B0000059A1168D26810430861059988680B69A5
:103B10004A69C9691843104308430490059800682E
:103B2000C06849F20C618843049908430599096803
:103B3000C86005980068406920F44070059A1168D3
:103B40009269104348610598006841F20001C4F28F
:103B50000101884209D0FFE70598006841F2004161
:103B6000C4F20101884204D1FFE7FEF7D1FE0390C1
:103B700003E0FEF7BBFE0390FFE70598C069B0F5D0
:103B8000004F29D1FFE703981921A0FB0101059AF5
:103B90001368029353685A00DB0FFCF7CBFB0299C2
:103BA000864648F21F53C5F2EB13AEFB03204209D1
:103BB00010014FF0640C02FB1CEC322202EBCC0231
:103BC000A2FB0332F82303EA521300EB4300C2F3D3
:103BD00042121044886026E003981921A0FB0101DD
:103BE000059A1368019353689A009B0FFCF7A2FB98
:103BF0000199844648F21F52C5F2EB12ACFB023029
:103C00004309642003FB10CC322000EB0C10A0FB16
:103C10000202F02000EA521000EB0310C2F343123C
:103C200010448860FFE706B080BD000080B588B012
:103C3000DDF828C0069005918DF813200393FFE767
:103C400006980068006805990840401AB0FA80F0AC
:103C500040099DF81310884249D1FFE70A980130C6
:103C6000002843D0FFE70A9840B1FFE7FEF756FC73
:103C70000399401A0A99884237D9FFE7FFE7FFE71F
:103C80000698006850E8030F20F4D0700290FFE718
:103C900002990698026842E803100028F0D1FFE775
:103CA000FFE7FFE7FFE70698006850E8050F20F000
:103CB00001000190FFE701990698026842E80510AB
:103CC0000028F0D1FFE7FFE70699202081F83D00AA
:103CD000069981F83E00FFE70699002081F83C0034
:103CE000FFE703208DF81F0005E0FFE7A8E70020AD
:103CF0008DF81F00FFE79DF81F0008B080BD000091
:103D0000FFE7FEE780B50FF08FFB80BD83B080B585
:103D100083B0079306920591029005A8019002983E
:103D200001990091009900F059FD03B0BDE8804071
:103D300003B070470000000082B08DED000B0098CA
:103D400001999FED050B52EC103BD20F62F3DF712E
:103D500041EC100B02B070470000000000000000B2
:103D600080B582B08DED010A9DED010A19F0F0F8E1
:103D700002B080BD80B582B08DED010A01981AF0C5
:103D80007FF941EC100B19F0AFFA51EC100B19F060
:103D900063FB00EE100A02B080BD000080B541F266
:103DA000CB50C0F60300FEF781F9FFE7FEE7000005
:103DB00084B003900291019203980168029802680E
:103DC0000120914200900ADBFFE701980168039807
:103DD000026800209142B8BF01200090FFE70098E0
:103DE00000F0010004B0704780B582B001900198E6
:103DF00090F9000000F04AF802B080BD80B582B0B2
:103E00000190019890ED000A00F048F802B080BDE2
:103E100080B582B001900198007800F047F802B0B8
:103E200080BD000080B582B001900198006800F06C
:103E300045F802B080BD000080B582B001900198C5
:103E4000006800F041F802B080BD000080B582B08B
:103E500001900198008800F03DF802B080BD00009C
:103E600082B0012001909DF80400012801D1FFE7F4
:103E70000AE041F2B860C0F6030041F2FB61C0F60F
:103E800003012622FCF7E0FA02B0704781B08DF8FA
:103E900003009DF9030001B07047000081B08DED73
:103EA000000A9DED000A01B07047000081B08DF856
:103EB00003009DF8030001B07047000081B000903E
:103EC000009801B07047000081B00090009801B0E8
:103ED0007047000081B0ADF80200BDF8020001B0EB
:103EE0007047000082B0019100900098019902B0E3
:103EF0007047000080B582B00190FFF7B1FF0198D4
:103F000000900068FFF7E0FF01460098084402B007
:103F100080BD000080B584B003900291029903989F
:103F200000EB8100039003980190FFF785FF0146A5
:103F30000198084404B080BD80B584B0039002911C
:103F40000299039800EB8100039003980190FFF71A
:103F500073FF01460198084404B080BD80B584B069
:103F6000039002910299039800EB8100039003985B
:103F70000190FFF761FF01460198084404B080BD3D
:103F800080B584B0039002910299039800EB810000
:103F9000039003980190FFF74FFF014601980844F2
:103FA00004B080BD80B584B003900291029903985B
:103FB00000EB8100039003980190FFF73DFF01465D
:103FC0000198084404B080BD80B584B0039002918C
:103FD0000299039800EB8100039003980190FFF78A
:103FE0002BFF01460198084404B080BD80B582B023
:103FF000019000910198009900EB810090ED000A7A
:10400000FFF74CFF02B080BD80B582B001900091F7
:104010000198009950F82100FFF750FF02B080BDD1
:1040200080B582B0019000910198009A00EBC20126
:1040300050F832004968FFF755FF02B080BD00001C
:1040400080B586B00590ADF8121005980290BDF8C5
:1040500012100DF06FFB01460298ADF81010BDF87C
:10406000101008440390BDF8100048B1FFE7039812
:104070000090FFF7E1FE014600980844019002E03D
:1040800000200190FFE7019806B080BD80B586B0A2
:104090000590ADF8121005980290BDF812100DF0C1
:1040A00049FB01460298ADF81010BDF81010084405
:1040B0000390BDF8100048B1FFE703980090FFF7A8
:1040C000BBFE014600980844019002E000200190E8
:1040D000FFE7019806B080BD80B586B00590ADF8C9
:1040E000121005980290BDF812100DF023FB014646
:1040F0000298ADF81010BDF8101008440390BDF8F8
:10410000100048B1FFE703980090FFF795FE0146C5
:1041100000980844019002E000200190FFE7019818
:1041200006B080BD80B586B00590ADF81210059838
:104130000290BDF812100DF0FDFA01460298ADF89C
:104140001010BDF8101008440390BDF8100048B1DD
:10415000FFE703980090FFF76FFE014600980844C0
:10416000019002E000200190FFE7019806B080BDB9
:1041700080B586B00590ADF8121005980290BDF894
:1041800012100DF0D7FA01460298ADF81010BDF8E4
:10419000101008440390BDF8100048B1FFE70398E1
:1041A0000090FFF749FE014600980844019002E0A4
:1041B00000200190FFE7019806B080BD80B586B071
:1041C0000590ADF8121005980290BDF812100DF090
:1041D000B1FA01460298ADF81010BDF8101008446D
:1041E0000390BDF8100048B1FFE703980090FFF777
:1041F00023FE014600980844019002E0002001904F
:10420000FFE7019806B080BD80B586B00590ADF897
:10421000121005980290BDF812100DF08BFA0146AD
:104220000298ADF81010BDF8101008440390BDF8C6
:10423000100048B1FFE703980090FFF7FDFD01462D
:1042400000980844019002E000200190FFE70198E7
:1042500006B080BD80B586B00590ADF81210059807
:104260000290BDF812100DF065FA01460298ADF803
:104270001010BDF8101008440390BDF8100048B1AC
:10428000FFE703980090FFF7D7FD01460098084428
:10429000019002E000200190FFE7019806B080BD88
:1042A00080B586B00590ADF8121005980290BDF863
:1042B00012100DF03FFA01460298ADF81010BDF84B
:1042C000101008440390BDF8100048B1FFE70398B0
:1042D0000090FFF7B1FD014600980844019002E00C
:1042E00000200190FFE7019806B080BD80B586B040
:1042F0000590ADF8121005980290BDF812100DF05F
:1043000019FA01460298ADF81010BDF810100844D3
:104310000390BDF8100048B1FFE703980090FFF745
:104320008BFD014600980844019002E000200190B6
:10433000FFE7019806B080BD80B586B00590ADF866
:10434000121005980290BDF812100DF0F3F9014615
:104350000298ADF81010BDF8101008440390BDF895
:10436000100048B1FFE703980090FFF765FD014694
:1043700000980844019002E000200190FFE70198B6
:1043800006B080BD80B586B00590ADF812100598D6
:104390000290BDF812100DF0CDF901460298ADF86B
:1043A0001010BDF8101008440390BDF8100048B17B
:1043B000FFE703980090FFF73FFD0146009808448F
:1043C000019002E000200190FFE7019806B080BD57
:1043D00080B586B00590ADF8121005980290BDF832
:1043E00012100DF0A7F901460298ADF81010BDF8B3
:1043F000101008440390BDF8100048B1FFE703987F
:104400000090FFF719FD014600980844019002E072
:1044100000200190FFE7019806B080BD80B582B012
:1044200001900198FFF766FD02B080BD80B582B0B3
:1044300001908DED000A9DED000A019800F066F8EC
:104440000199401A02B080BD80B582B00190009100
:104450000098019900F06EF90199401A02B080BDF0
:1044600080B590B00F900E910D920D9801A900911A
:1044700000F060F9009A0F980E9900F0D7F910B08B
:1044800080BD000080B582B0019000910098019934
:104490000A2200F06BF90199401A02B080BD0000B9
:1044A00080B592B0119010910F920E930F980E9AC2
:1044B00002A9019100F05AF9019A1198109900F09F
:1044C000B5F912B080BD000085B004900391049846
:1044D0000290039801380190FFE702980199884201
:1044E00011D2FFE7029800788DF803000198007858
:1044F00002994A1C029208709DF8030001994A1E15
:1045000001920870E9E7049805B0704780B59CB047
:104510008DED1A0A19901998189019982F30179044
:104520004FF0004016904FF0FF4015901720149068
:104530007F2013904FF6FF70C0F27F0012901A9800
:104540001190119800F0FF416FF07E0000EBD15008
:10455000109011986FF3DF500F909DF84700000600
:10456000002807D5FFE718992D200870189801300A
:104570001890FFE7189900200870109880281DD126
:10458000FFE70F9868B9FFE718981799091A42F2E0
:10459000A162C0F6030200F049F9189018981B9028
:1045A000C5E018981799091A42F29962C0F60302F9
:1045B00000F03CF9189018981B90B8E00D200E9070
:1045C00017208DF8340041F21340C1F215600C90B1
:1045D00040F60D60C1F211200B9040F20340C0F68E
:1045E00008300A900F98099000200890FFE708987B
:1045F0000C280EDCFFE70F98089A0AA9895620FAC2
:1046000001F1099808440990FFE7089801300890E3
:10461000EDE7189931200870189801301890189912
:104620002E200870189801301890189900200870F2
:104630000720079017981899401A072803DCFFE70E
:1046400018981B9073E001200690FFE70698062853
:1046500009DCFFE71899069A30208854FFE706988E
:1046600001300690F2E71898059018981799091AE2
:10467000099A0A23FFF714FF189018980599401A11
:1046800004900498C0F10700039018993020087036
:104690000398D8B1FFE700200290FFE70298049941
:1046A00088420FDAFFE718980138189018990878AF
:1046B000039A8854189930200870FFE70298013057
:1046C0000290EBE7189807301890FFE7FFE718987B
:1046D00010F8011C00203029019009D1FFE718983B
:1046E000411E059A0020914288BF01200190FFE7FA
:1046F0000198C00720B1FFE7189801381890E6E745
:1047000018990020087018981799091A42F29D62AA
:10471000C0F6030200F08AF8189018981799091A41
:10472000109AFFF79DFE189018981B90FFE71B98B2
:104730001CB080BD80B584B00390029103980190B5
:104740000398B0F1FF3F09DCFFE70299481C029093
:104750002D200870019840420190FFE701980299CE
:104760000A2200F003F804B080BD000080B586B0D6
:1047700005900491039204980290FFE7059A03992B
:10478000B2FBF1F000FB112001900198092805DC33
:10479000FFE7019830308DF8030004E001985730AE
:1047A0008DF80300FFE79DF8030004994A1C04926A
:1047B000087003990598B0FBF1F00590FFE70598A4
:1047C0000028DBD1FFE704990020087002980499C3
:1047D000FFF77AFE049806B080BD000080B5C4B033
:1047E00043914290429A43980190019B02A8009005
:1047F0004FF48071FEF7BAFE0098FDF757FC41F6C2
:10480000B400C0F60300FDF751FC44B080BD0000C9
:1048100080B582B001900091009801991022FFF7B5
:10482000A5FF0199401A02B080BD000086B0059036
:104830000491039205980290FFE70298007820B156
:10484000FFE7029801300290F7E7059904980844C1
:1048500001380190FFE7039801780020009041B1F2
:10486000FFE70299019A0020914238BF0120009091
:10487000FFE70098C00758B1FFE703980078029956
:104880000870029801300290039801300390E2E72B
:10489000029900200870029806B0704780B584B075
:1048A0000290019102980090C06830B1FFE7009833
:1048B000019900F009F8039002E000200390FFE75F
:1048C000039804B080BD000080B588B007900691C1
:1048D00007980190C068416800200290884702460E
:1048E00002980B4601990DF1100CCDF800C0CCE9EF
:1048F00000230A6901320A61069A0A624A6A013291
:104900004A62C96849688847009B019A84460298B0
:10491000CDF80CC08C460399C2F81CC09161D2F846
:1049200018C0D169D3E900E3BCEB0E0E61EB030CB8
:10493000936AD16A13EB0E0341EB0C019362D162CF
:1049400008B080BD81B0009000994FF0FF30486200
:10495000002001B07047000080B584B00390029140
:1049600003980190C06828B1FFE70198029900F010
:1049700003F8FFE704B080BD80B590B00F900E91B2
:104980000F980090C0684168002088470246009850
:1049900001920A4601990CABC3E900124169013149
:1049A0004161C068006820B3FFE70098016A029186
:1049B000416A05910CA9D1E90021D0F818C0C3695A
:1049C000B2EB0C02994106920791002108910A91DD
:1049D000DDF818C0079B026B416B12EB0C025941CA
:1049E00002634163C1680B688868C96802AA984776
:1049F000FFE70098C06841680120884703460846E1
:104A000000990CAAD2E900C2B3EB0C0C60EB0203D4
:104A10008A6AC86A12EB0C0258418A62C86210B0F6
:104A200080BD000080B584B003900291039801908E
:104A300003F08AFF01984EF23441C0F601010831BB
:104A40000160029981600021C1600161416104B08F
:104A500080BD000080B582B001900198009000F008
:104A600005F8009800F00CF802B080BD80B582B067
:104A700001900198009003F081FF009802B080BD82
:104A800081B0009001B0704781B00090009801B0F3
:104A90007047000087B00590049103920293049838
:104AA00018B1FFE7039820B9FFE701208DF81B003C
:104AB000F2E00498007F0399087002980399486017
:104AC000049880690399086204984069006807287F
:104AD00004DBFFE701208DF81B00DDE003990020D7
:104AE000886448640864C8638863486304994969B2
:104AF0000968039A11630190FFE701980399096B14
:104B000088420FD2FFE704984069019A00EB8200C7
:104B10004068039901EB82014863FFE70198013087
:104B20000190EAE70399002048610399886103999D
:104B30000120C86003990861049840690068022850
:104B40000BD1FFE704984069406803998860049896
:104B5000406980680399C8617DE0049840690068F5
:104B6000032810D1FFE704984069406803998860E2
:104B70000498406980680399C86004984069C068D7
:104B80000399C86166E0049840690068042815D15B
:104B9000FFE7049840694068039988600498406979
:104BA00080680399C86004984069C06803990861E7
:104BB0000498406900690399C8614AE00498406913
:104BC000006805281AD1FFE70498406940680399F6
:104BD00088600498406980680399C86004984069B7
:104BE000C0680399086104984069006903994861A5
:104BF0000498406940690399C86129E004984069B4
:104C0000006806281FD1FFE70498406940680399AF
:104C100088600498406980680399C8600498406976
:104C2000C068039908610498406900690399486164
:104C300004984069406903998861049840698069D3
:104C40000399C86103E001208DF81B0024E0FFE711
:104C5000FFE7FFE7FFE7049800690399C86204983B
:104C6000007801280ED1FFE7049840680090009872
:104C7000006840680399486200984068406803995A
:104C8000886205E003990020486203998862FFE783
:104C900000208DF81B00FFE79DF81B0007B0704750
:104CA00080B586B005900491039205980290029811
:104CB0004030049906F090FD019002980199039A02
:104CC0004FF0FF33FFF7E6FE06B080BD80B582B03F
:104CD00001900198009000980830FFF733FE00998A
:104CE000D1F8F4000130C1F8F4000098403006F02B
:104CF0009BFD02B080BD000080B586B00590049198
:104D000003920598029002984030049906F0C6FD7F
:104D1000019002980199039A4FF0FF33FFF7BAFE12
:104D200006B080BDB0B58AB0DDF83CC0DDF838C053
:104D300009900891079206930999049108980860D0
:104D400001F108052846FFF76DFE049840300899E8
:104D5000079A069BDDF838C00F9CEE46CEF80C5043
:104D600000250595CEF80850CEF80440CEF800C0D6
:104D700006F0BCFD04980599C0F8F4100AB0B0BD67
:104D800080B582B0019001980090403006F010FE8E
:104D900000980830FFF76AFE009802B080BD00005E
:104DA00082B001900091019802B0704781B00090EC
:104DB000009801B07047000080B582B00190019862
:104DC00080680DF0EFFA0CF0D7FE02B080BD000055
:104DD00080B58AB009900998029040690890002037
:104DE0000790FFE7029807990191C0690CF0C4FE93
:104DF0000146019888423BD2FFE70298079941613A
:104E00008068079908F06EF9069000200590FFE78A
:104E100005980699884226D2FFE702980169079A09
:104E200051F83210059A01EB42110491006907997B
:104E300050F83100059900EB4110C06903900398C8
:104E400060B1FFE70398406840B1FFE7029803991B
:104E50004A6840680499C9689047FFE7FFE70598EA
:104E600001300590D4E7FFE7079801300790B9E7D4
:104E700002990898486100200AB080BD80B58CB0C6
:104E80000B900B98029040690A9000200990FFE770
:104E9000029809990191C0690CF06EFE01460198D3
:104EA00088424CD2FFE702980999416180680999CC
:104EB00008F018F9089000200790FFE70798089974
:104EC000884237D2FFE702980169099A51F83210F7
:104ED000079A01EB421106910069099950F83100D7
:104EE000079900EB4110C06905900598406920289A
:104EF00007D1FFE7069840690390069880690490FF
:104F000005E006980069039000200490FFE70598EB
:104F1000006850B1FFE7029805990B684068039953
:104F2000049A98470699C860FFE7FFE707980130A1
:104F30000790C3E7FFE7099801300990A8E70299B5
:104F40000A98486100200CB080BD000081B000903C
:104F50000098006901B0704780B590B00E900D9137
:104F60000E98029041690C910D9941610D99039140
:104F7000C0690CF001FE01460398884212D3FFE796
:104F800002980D990191C0690CF0F6FD0199024655
:104F900042F20740C0F60300FEF7B8FE01208DF88C
:104FA0003F0078E0029880680D9908F09BF80B901C
:104FB00000200A90FFE70A980B99884264D2FFE725
:104FC000029801690D9A51F832100A9A01EB4211C8
:104FD000099100690D9950F831000A9900EB4110D0
:104FE000C0690890089801F0EBFD014602984068FE
:104FF000426B06A807F06CFF0898C06808B1FFE78D
:1050000002E0FEF7CBFEFFE702980899CA68406805
:1050100009999047014602988DF81710C0680168F9
:10502000C96888479DF81700012812D1FFE7089842
:1050300001F0C6FD01460A9A9DF8173042F29D30F4
:10504000C0F60300FEF762FE01208DF83F000490D9
:105050000EE09DF8170038B1FFE79DF817008DF8B6
:105060003F000120049003E0FFE700200490FFE7E9
:1050700006A807F049FF049808B1FFE70BE0FFE737
:105080000A9801300A9096E702990C98486100202E
:105090008DF83F00FFE79DF83F0010B080BD000095
:1050A00080B586B0059004910392059801908068C0
:1050B0000DF078F904990CF035FD0DF0C7FA03995D
:1050C0000CF0CAFD0146019802910069049900EBB9
:1050D000C1004068029901EB410100EB810006B07C
:1050E00080BD000080B58CB00A900A98029040699B
:1050F000099000200890FFE7029808990191C06983
:105100000CF03AFD01460198884253D2FFE702981D
:10511000089941618068089907F0E4FF0790002032
:105120000690FFE70698079988423ED2FFE702986B
:105130000169089A51F83210069A01EB4211059163
:105140000069089950F83100069900EB4110C069D8
:10515000049004988068F0B1FFE7029804998A6887
:105160004068059990478DF80F009DF80F0088B1B1
:10517000FFE7049801F024FD0146069A9DF80F30E0
:1051800042F2D130C0F60300FEF7C0FD01208DF8D9
:105190002F0016E0FFE70298C068069905F08EFC24
:1051A000FFE7069801300690BCE7FFE7089801305A
:1051B0000890A1E702990998486100208DF82F0016
:1051C000FFE79DF82F000CB080BD000080B586B0D1
:1051D0000590049103920598019080680DF0E2F823
:1051E00004990CF09FFC0DF03BFA03990CF034FD90
:1051F0000146019802910069049900EBC1004068E2
:10520000029901EB410100EB810006B080BD000076
:1052100080B582B001900091019880680DF0C2F8CD
:1052200000990CF07FFC0DF011FA0CF03FFD02B07C
:1052300080BD000080B582B0019000910198806827
:105240000DF0B0F800990CF06DFC0DF009FA0CF0BF
:105250002DFD02B080BD000080B58CB00A900A9888
:10526000029000200990FFE7029809990191C06916
:105270000CF082FC0146019888426AD2FFE702984E
:10528000C06909990CF082FC089000200790FFE7A4
:105290000798009008980DF0EDF90CF0D1FB01464D
:1052A0000098884250D2FFE708980DF0E3F907997B
:1052B0000CF09CFB069006980DF088F800283ED074
:1052C000FFE7FFE702980069099900EBC100406819
:1052D000079901EB410100EB810005A90AF044FBAD
:1052E0008DF813009DF8130028B1FFE79DF8130017
:1052F0008DF82F003AE0FFE70020039006980DF0AC
:105300007DF809280AD1FFE706980DF06DF80CF03A
:10531000C9FF00210CF0DCFC0390FFE70298006954
:10532000099900EBC1004068079901EB410150F871
:1053300021009DF80C200599FBF7A7F9FFE7FFE78F
:10534000079801300790A3E7FFE70998013009901B
:105350008AE70298806928B1FFE70298806909F01E
:1053600011FCFFE700208DF82F00FFE79DF82F00CC
:105370000CB080BD82B00190009101990098086145
:1053800002B0704781B000900098406901B070474A
:1053900080B586B0DDF820C004900391029201939D
:1053A0000499009105914EF24C40C0F6010008307E
:1053B000086003984860029888600198C8600020DF
:1053C0000861486108988861029830B1FFE7029847
:1053D0000CF0E8FF0099C861FFE7059806B080BDB2
:1053E00080B582B001900198009000F005F8009817
:1053F00000F008F802B080BD81B00090009801B0C4
:105400007047000081B0009001B0704782B00190F9
:105410000198406818B9FFE70020009004E0019867
:10542000406800680090FFE7009802B070470000F5
:1054300081B0009000984EF28441C0F6010108311D
:10544000016001B07047000081B00090FEDE0000F6
:1054500081B00090009801B07047000083B00290C6
:1054600001910298019908440138B0FBF1F04843DA
:105470000090009803B0704780B588B007900691FF
:1054800005920493079806990CF0A4FC01900598E6
:1054900004990CF09FFC01460198884201D1FFE776
:1054A00002E0FEF77BFCFFE7079806990CF092FC00
:1054B0000390059804990CF08DFC029003A802A9B2
:1054C0000DF00CFE006808B080BD000080B582B011
:1054D00001900198406900F003F802B080BD00001F
:1054E00080B586B0059000200390012102910190C3
:1054F000FFE7019805990968884216DAFFE70598E1
:10550000019900EB810042684FEAE27C029B03981C
:10551000A3FB021E03FB0CE300FB0230029103908D
:10552000FFE7019801300190E3E70298039906B084
:1055300080BD000080B594B01290119110920F932D
:1055400012981199109A0F9B01F050FB10990EA818
:10555000099001F015FD09990CA801F099FCFFE7ED
:105560000CA800210DF050FEE8B9FFE7FFE7119904
:1055700043F6C010C0F603006A46506040F2AA40ED
:10558000106041F65D32C0F6030243F66B13C0F6BD
:105590000303084603F072F9FFE7FFE701208DF8E7
:1055A0004F000B905CE0FFE7FFE712980CF0B6FFAE
:1055B0000A900A98002847D0FFE70A980CF084FC6C
:1055C00000F062FD02900CA807900DF087F80146EC
:1055D000029808700A980CF08BFC0146079803911A
:1055E0000DF07CF80146039848600A980CF076FCB0
:1055F0000146079804910DF071F8014604988860FF
:105600000A980CF057FC00F091FE014607980591AE
:105610000DF064F80146059808730A980CF040FCF8
:105620000146079806910DF059F801460698086161
:105630000A980CF02BFC0146079808910DF04EF8E3
:1056400001460898486100E0FFE70CA80DF062F9F8
:105650000F99086000208DF84F0001200B90FFE7A4
:105660000CA80DF079F99DF84F0014B080BD000032
:1056700082B08DED000B9DED000B02B017F034BE33
:1056800080B582B08DED010A9DED010AFEF772FB37
:1056900002B080BD83B002900120019000200090F4
:1056A000FFE700980299096888420DDAFFE702983F
:1056B000009900EB81004168019848430190FFE7A1
:1056C000009801300090ECE7019803B070470000AB
:1056D00080B584B003900291039800908068FFF732
:1056E00035FC0146009801918068FFF74BFE0146AA
:1056F000019800EBC1004068029901EB410100EB09
:10570000810004B080BD000086B004900391029235
:1057100001930398002812D4FFE703980299884266
:105720000DDAFFE70198039950F8210000900098E6
:10573000013018B1FFE70098059004E0FFE74FF053
:10574000FF300590FFE7059806B0704783B00290E0
:10575000019102980069019900EB81000090009886
:10576000006803B07047000081B000900098406965
:1057700001B0704780B586B00490039102920498FE
:1057800000900299039A136853F8042BFFF7BCFFAB
:1057900001900198B0F1FF3F03DCFFE70020059086
:1057A00006E0009801990268526990470590FFE76A
:1057B000059806B080BD000082B00190009101996B
:1057C0000098086102B0704780B582B001900091E6
:1057D00001984068009902685269904702B080BD04
:1057E00080B586B0049003910292049800900299CB
:1057F000039A536853F8042BFFF786FF0190019832
:10580000B0F1FF3F03DCFFE70020059006E00098C1
:1058100001990268526990470590FFE7059806B024
:1058200080BD000010B588B00790069107990191DE
:10583000486805908868C9680291FFF787FB0146B0
:1058400001980391069904918068FFF79BFD0299E6
:10585000039A049B86460598D0F800C0DCF804C083
:105860006C46C4F800E0E04708B010BD80B582B0D7
:1058700001900091019840680099026892689047F1
:1058800002B080BD80B586B0059004910392059862
:1058900004990191416802918068FFF773FD0199B5
:1058A00002460298039B05F01BF806B080BD00007D
:1058B00080B586B0049003910292049800900299FA
:1058C000039A936853F8042BFFF71EFF0190019889
:1058D000B0F1FF3F03DCFFE70020059006E00098F1
:1058E00001990268526990470590FFE7059806B054
:1058F00080BD000084B00390029101920093039850
:105900004EF2AC41C0F601010831016002994160DC
:10591000009981600199C16000210161416104B079
:105920007047000080B582B001900198009000F0AF
:1059300005F8009800F008F802B080BD81B0009032
:10594000009801B07047000081B0009001B070472E
:1059500080B592B010900F910E920D9310980F9900
:105960000E9A0D9B01F042F90E990CA8059001F0DA
:1059700007FB05990AA801F0BBFAFFE70AA8002176
:105980000DF056FCE8B9FFE7FFE70F9943F6C010AA
:10599000C0F603006A46506040F26470106041F641
:1059A0005D32C0F6030243F66B13C0F603030846EC
:1059B00002F064FFFFE7FFE701208DF84700099040
:1059C0004AE0FFE7FFE710980CF0D4FD0890089834
:1059D000B0B3FFE708980CF0E7FA0790079868B3B0
:1059E000FFE7FFE7079804900AA80CF0A3FE0499CC
:1059F00002460F9B43F6B810C0F60300EC46CCF805
:105A00000000202001F006FB8DF81B009DF81B0014
:105A100038B1FFE79DF81B008DF847000120099081
:105A20001AE0FFE7FFE707980CF040F903900AA897
:105A30000CF080FE01460398086200E0FFE700E0FA
:105A4000FFE70AA80DF002F80D99086000208DF814
:105A5000470001200990FFE70AA80DF019F89DF80A
:105A6000470012B080BD000080B58EB00C900B9145
:105A70000A9209930C980B990A9A099B01F0B6F8BF
:105A80000A9908A8039001F07BFA039906A801F08F
:105A900047FAFFE706A800210DF0D4FBE8B9FFE7BD
:105AA000FFE70B9943F6C010C0F603006A4650604A
:105AB00040F2FD70106041F65D32C0F6030243F61D
:105AC0006B13C0F60303084602F0D8FEFFE7FFE7BA
:105AD00001208DF83700059021E0FFE7FFE70C98E3
